{
  "contractName": "MultiSigDocumentRegistry",
  "abi": [
    {
      "constant": true,
      "inputs": [
        {
          "name": "",
          "type": "address"
        }
      ],
      "name": "verifierInfo",
      "outputs": [
        {
          "name": "isVerifier",
          "type": "bool"
        },
        {
          "name": "Name",
          "type": "string"
        },
        {
          "name": "Email",
          "type": "string"
        }
      ],
      "payable": false,
      "stateMutability": "view",
      "type": "function"
    },
    {
      "constant": true,
      "inputs": [
        {
          "name": "",
          "type": "address"
        },
        {
          "name": "",
          "type": "uint256"
        }
      ],
      "name": "docVault",
      "outputs": [
        {
          "name": "",
          "type": "address"
        }
      ],
      "payable": false,
      "stateMutability": "view",
      "type": "function"
    },
    {
      "inputs": [],
      "payable": false,
      "stateMutability": "nonpayable",
      "type": "constructor"
    },
    {
      "anonymous": false,
      "inputs": [
        {
          "indexed": true,
          "name": "issuer",
          "type": "address"
        },
        {
          "indexed": true,
          "name": "docAddr",
          "type": "address"
        }
      ],
      "name": "DocumentIndexed",
      "type": "event"
    },
    {
      "anonymous": false,
      "inputs": [
        {
          "indexed": true,
          "name": "issuer",
          "type": "address"
        },
        {
          "indexed": true,
          "name": "docAddr",
          "type": "address"
        }
      ],
      "name": "DocumentCreated",
      "type": "event"
    },
    {
      "anonymous": false,
      "inputs": [
        {
          "indexed": true,
          "name": "issuer",
          "type": "address"
        }
      ],
      "name": "VerifierRegistration",
      "type": "event"
    },
    {
      "constant": false,
      "inputs": [
        {
          "name": "_name",
          "type": "string"
        },
        {
          "name": "_email",
          "type": "string"
        }
      ],
      "name": "registerVerifier",
      "outputs": [],
      "payable": false,
      "stateMutability": "nonpayable",
      "type": "function"
    },
    {
      "constant": false,
      "inputs": [
        {
          "name": "signers",
          "type": "address[]"
        },
        {
          "name": "verifier",
          "type": "address"
        },
        {
          "name": "required",
          "type": "uint8"
        },
        {
          "name": "validDays",
          "type": "uint256"
        },
        {
          "name": "offset",
          "type": "uint256"
        },
        {
          "name": "buffer",
          "type": "bytes"
        }
      ],
      "name": "createDocument",
      "outputs": [
        {
          "name": "",
          "type": "address"
        }
      ],
      "payable": false,
      "stateMutability": "nonpayable",
      "type": "function"
    },
    {
      "constant": false,
      "inputs": [
        {
          "name": "doc",
          "type": "address"
        }
      ],
      "name": "setDocument",
      "outputs": [],
      "payable": false,
      "stateMutability": "nonpayable",
      "type": "function"
    },
    {
      "constant": true,
      "inputs": [
        {
          "name": "addr",
          "type": "address"
        },
        {
          "name": "docId",
          "type": "uint256"
        }
      ],
      "name": "isVerified",
      "outputs": [
        {
          "name": "",
          "type": "bool"
        }
      ],
      "payable": false,
      "stateMutability": "view",
      "type": "function"
    },
    {
      "constant": true,
      "inputs": [
        {
          "name": "issuer",
          "type": "address"
        },
        {
          "name": "docId",
          "type": "uint256"
        },
        {
          "name": "key",
          "type": "string"
        }
      ],
      "name": "getEntry",
      "outputs": [
        {
          "name": "",
          "type": "string"
        }
      ],
      "payable": false,
      "stateMutability": "view",
      "type": "function"
    },
    {
      "constant": true,
      "inputs": [
        {
          "name": "issuer",
          "type": "address"
        },
        {
          "name": "docId",
          "type": "uint256"
        }
      ],
      "name": "getProofHash",
      "outputs": [
        {
          "name": "",
          "type": "bytes32"
        }
      ],
      "payable": false,
      "stateMutability": "view",
      "type": "function"
    },
    {
      "constant": true,
      "inputs": [
        {
          "name": "issuer",
          "type": "address"
        },
        {
          "name": "docId",
          "type": "uint256"
        }
      ],
      "name": "isEnoughSignature",
      "outputs": [
        {
          "name": "",
          "type": "bool"
        }
      ],
      "payable": false,
      "stateMutability": "view",
      "type": "function"
    },
    {
      "constant": true,
      "inputs": [
        {
          "name": "issuer",
          "type": "address"
        }
      ],
      "name": "getDocumentCount",
      "outputs": [
        {
          "name": "",
          "type": "uint256"
        }
      ],
      "payable": false,
      "stateMutability": "view",
      "type": "function"
    }
  ],
  "bytecode": "0x608060405234801561001057600080fd5b50615547806100206000396000f300608060405260043610620000af576000357c0100000000000000000000000000000000000000000000000000000000900463ffffffff168063019dab6714620000b4578063197fbfe414620001e45780631a2097761462000320578063385034f814620003885780633b993fe0146200049a5780635318387014620004f457806372e3170c1462000560578063889d5b9114620005f0578063b1fe911a14620006a2578063c0f3445f14620006e8575b600080fd5b348015620000c157600080fd5b50620001a260048036038101908080359060200190820180359060200190808060200260200160405190810160405280939291908181526020018383602002808284378201915050505050509192919290803573ffffffffffffffffffffffffffffffffffffffff169060200190929190803560ff1690602001909291908035906020019092919080359060200190929190803590602001908201803590602001908080601f016020809104026020016040519081016040528093929190818152602001838380828437820191505050505050919291929050505062000750565b604051808273ffffffffffffffffffffffffffffffffffffffff1673ffffffffffffffffffffffffffffffffffffffff16815260200191505060405180910390f35b348015620001f157600080fd5b5062000228600480360381019080803573ffffffffffffffffffffffffffffffffffffffff16906020019092919050505062000b63565b60405180841515151581526020018060200180602001838103835285818151815260200191508051906020019080838360005b83811015620002785780820151818401526020810190506200025b565b50505050905090810190601f168015620002a65780820380516001836020036101000a031916815260200191505b50838103825284818151815260200191508051906020019080838360005b83811015620002e1578082015181840152602081019050620002c4565b50505050905090810190601f1680156200030f5780820380516001836020036101000a031916815260200191505b509550505050505060405180910390f35b3480156200032d57600080fd5b506200036e600480360381019080803573ffffffffffffffffffffffffffffffffffffffff1690602001909291908035906020019092919050505062000cd2565b604051808215151515815260200191505060405180910390f35b3480156200039557600080fd5b506200041c600480360381019080803573ffffffffffffffffffffffffffffffffffffffff16906020019092919080359060200190929190803590602001908201803590602001908080601f016020809104026020016040519081016040528093929190818152602001838380828437820191505050505050919291929050505062000df5565b6040518080602001828103825283818151815260200191508051906020019080838360005b838110156200045e57808201518184015260208101905062000441565b50505050905090810190601f1680156200048c5780820380516001836020036101000a031916815260200191505b509250505060405180910390f35b348015620004a757600080fd5b50620004de600480360381019080803573ffffffffffffffffffffffffffffffffffffffff16906020019092919050505062000fe5565b6040518082815260200191505060405180910390f35b3480156200050157600080fd5b5062000542600480360381019080803573ffffffffffffffffffffffffffffffffffffffff1690602001909291908035906020019092919050505062001031565b60405180826000191660001916815260200191505060405180910390f35b3480156200056d57600080fd5b50620005ae600480360381019080803573ffffffffffffffffffffffffffffffffffffffff1690602001909291908035906020019092919050505062001154565b604051808273ffffffffffffffffffffffffffffffffffffffff1673ffffffffffffffffffffffffffffffffffffffff16815260200191505060405180910390f35b348015620005fd57600080fd5b50620006a0600480360381019080803590602001908201803590602001908080601f0160208091040260200160405190810160405280939291908181526020018383808284378201915050505050509192919290803590602001908201803590602001908080601f0160208091040260200160405190810160405280939291908181526020018383808284378201915050505050509192919290505050620011a2565b005b348015620006af57600080fd5b50620006e6600480360381019080803573ffffffffffffffffffffffffffffffffffffffff169060200190929190505050620012c9565b005b348015620006f557600080fd5b5062000736600480360381019080803573ffffffffffffffffffffffffffffffffffffffff16906020019092919080359060200190929190505050620014ad565b604051808215151515815260200191505060405180910390f35b6000856000808273ffffffffffffffffffffffffffffffffffffffff1673ffffffffffffffffffffffffffffffffffffffff16815260200190815260200160002060000160009054906101000a900460ff161515620007ab57fe5b600160003373ffffffffffffffffffffffffffffffffffffffff1673ffffffffffffffffffffffffffffffffffffffff168152602001908152602001600020888888888888620007fa620015d0565b80806020018773ffffffffffffffffffffffffffffffffffffffff1673ffffffffffffffffffffffffffffffffffffffff1681526020018660ff1660ff16815260200185815260200184815260200180602001838103835289818151815260200191508051906020019060200280838360005b838110156200088a5780820151818401526020810190506200086d565b50505050905001838103825284818151815260200191508051906020019080838360005b83811015620008cb578082015181840152602081019050620008ae565b50505050905090810190601f168015620008f95780820380516001836020036101000a031916815260200191505b5098505050505050505050604051809103906000f08015801562000921573d6000803e3d6000fd5b5090806001815401808255809150509060018203906000526020600020016000909192909190916101000a81548173ffffffffffffffffffffffffffffffffffffffff021916908373ffffffffffffffffffffffffffffffffffffffff16021790555050600160003373ffffffffffffffffffffffffffffffffffffffff1673ffffffffffffffffffffffffffffffffffffffff16815260200190815260200160002060018060003373ffffffffffffffffffffffffffffffffffffffff1673ffffffffffffffffffffffffffffffffffffffff168152602001908152602001600020805490500381548110151562000a1657fe5b9060005260206000200160009054906101000a900473ffffffffffffffffffffffffffffffffffffffff1673ffffffffffffffffffffffffffffffffffffffff163373ffffffffffffffffffffffffffffffffffffffff167fb55d3b0b0e05c540eee42d7d68168252801651e9067981ca77d56c784414a32760405160405180910390a3600160003373ffffffffffffffffffffffffffffffffffffffff1673ffffffffffffffffffffffffffffffffffffffff16815260200190815260200160002060018060003373ffffffffffffffffffffffffffffffffffffffff1673ffffffffffffffffffffffffffffffffffffffff168152602001908152602001600020805490500381548110151562000b2b57fe5b9060005260206000200160009054906101000a900473ffffffffffffffffffffffffffffffffffffffff169150509695505050505050565b60006020528060005260406000206000915090508060000160009054906101000a900460ff1690806001018054600181600116156101000203166002900480601f01602080910402602001604051908101604052809291908181526020018280546001816001161561010002031660029004801562000c265780601f1062000bfa5761010080835404028352916020019162000c26565b820191906000526020600020905b81548152906001019060200180831162000c0857829003601f168201915b505050505090806002018054600181600116156101000203166002900480601f01602080910402602001604051908101604052809291908181526020018280546001816001161561010002031660029004801562000cc85780601f1062000c9c5761010080835404028352916020019162000cc8565b820191906000526020600020905b81548152906001019060200180831162000caa57829003601f168201915b5050505050905083565b6000600160008473ffffffffffffffffffffffffffffffffffffffff1673ffffffffffffffffffffffffffffffffffffffff1681526020019081526020016000208281548110151562000d2157fe5b9060005260206000200160009054906101000a900473ffffffffffffffffffffffffffffffffffffffff1673ffffffffffffffffffffffffffffffffffffffff166380007e836040518163ffffffff167c0100000000000000000000000000000000000000000000000000000000028152600401602060405180830381600087803b15801562000db057600080fd5b505af115801562000dc5573d6000803e3d6000fd5b505050506040513d602081101562000ddc57600080fd5b8101908080519060200190929190505050905092915050565b6060600160008573ffffffffffffffffffffffffffffffffffffffff1673ffffffffffffffffffffffffffffffffffffffff1681526020019081526020016000208381548110151562000e4457fe5b9060005260206000200160009054906101000a900473ffffffffffffffffffffffffffffffffffffffff1673ffffffffffffffffffffffffffffffffffffffff1663b319c9e4836040518263ffffffff167c01000000000000000000000000000000000000000000000000000000000281526004018080602001828103825283818151815260200191508051906020019080838360005b8381101562000ef857808201518184015260208101905062000edb565b50505050905090810190601f16801562000f265780820380516001836020036101000a031916815260200191505b5092505050600060405180830381600087803b15801562000f4657600080fd5b505af115801562000f5b573d6000803e3d6000fd5b505050506040513d6000823e3d601f19601f82011682018060405250602081101562000f8657600080fd5b81019080805164010000000081111562000f9f57600080fd5b8281019050602081018481111562000fb657600080fd5b815185600182028301116401000000008211171562000fd457600080fd5b505092919050505090509392505050565b6000600160008373ffffffffffffffffffffffffffffffffffffffff1673ffffffffffffffffffffffffffffffffffffffff168152602001908152602001600020805490509050919050565b6000600160008473ffffffffffffffffffffffffffffffffffffffff1673ffffffffffffffffffffffffffffffffffffffff168152602001908152602001600020828154811015156200108057fe5b9060005260206000200160009054906101000a900473ffffffffffffffffffffffffffffffffffffffff1673ffffffffffffffffffffffffffffffffffffffff166355e033736040518163ffffffff167c0100000000000000000000000000000000000000000000000000000000028152600401602060405180830381600087803b1580156200110f57600080fd5b505af115801562001124573d6000803e3d6000fd5b505050506040513d60208110156200113b57600080fd5b8101908080519060200190929190505050905092915050565b6001602052816000526040600020818154811015156200117057fe5b906000526020600020016000915091509054906101000a900473ffffffffffffffffffffffffffffffffffffffff1681565b816000815114151515620011b257fe5b816000815114151515620011c257fe5b606060405190810160405280600115158152602001858152602001848152506000803373ffffffffffffffffffffffffffffffffffffffff1673ffffffffffffffffffffffffffffffffffffffff16815260200190815260200160002060008201518160000160006101000a81548160ff02191690831515021790555060208201518160010190805190602001906200125d929190620015e1565b5060408201518160020190805190602001906200127c929190620015e1565b509050503373ffffffffffffffffffffffffffffffffffffffff167ffcd1e1d3b6626e7a8ef5bd6998bb1b9418f3ccab842073142e2a5a3a0d50c9ac60405160405180910390a250505050565b8073ffffffffffffffffffffffffffffffffffffffff1663877b9a67336040518263ffffffff167c0100000000000000000000000000000000000000000000000000000000028152600401808273ffffffffffffffffffffffffffffffffffffffff1673ffffffffffffffffffffffffffffffffffffffff168152602001915050602060405180830381600087803b1580156200136557600080fd5b505af11580156200137a573d6000803e3d6000fd5b505050506040513d60208110156200139157600080fd5b8101908080519060200190929190505050801515620013ac57fe5b600160003373ffffffffffffffffffffffffffffffffffffffff1673ffffffffffffffffffffffffffffffffffffffff1681526020019081526020016000208290806001815401808255809150509060018203906000526020600020016000909192909190916101000a81548173ffffffffffffffffffffffffffffffffffffffff021916908373ffffffffffffffffffffffffffffffffffffffff160217905550508173ffffffffffffffffffffffffffffffffffffffff163373ffffffffffffffffffffffffffffffffffffffff167f77525f1f4dcbb48f088f291683e1f35f64ce1040d83dfdba5c37ea901b0866ea60405160405180910390a35050565b6000600160008473ffffffffffffffffffffffffffffffffffffffff1673ffffffffffffffffffffffffffffffffffffffff16815260200190815260200160002082815481101515620014fc57fe5b9060005260206000200160009054906101000a900473ffffffffffffffffffffffffffffffffffffffff1673ffffffffffffffffffffffffffffffffffffffff16638cd0670b6040518163ffffffff167c0100000000000000000000000000000000000000000000000000000000028152600401602060405180830381600087803b1580156200158b57600080fd5b505af1158015620015a0573d6000803e3d6000fd5b505050506040513d6020811015620015b757600080fd5b8101908080519060200190929190505050905092915050565b604051613e8b806200169183390190565b828054600181600116156101000203166002900490600052602060002090601f016020900481019282601f106200162457805160ff191683800117855562001655565b8280016001018555821562001655579182015b828111156200165457825182559160200191906001019062001637565b5b50905062001664919062001668565b5090565b6200168d91905b80821115620016895760008160009055506001016200166f565b5090565b905600608060405261016d6001557fffffffffffffffffffffffffffffffffffffffffffffffffffffffffffffffff6002556000600360006101000a81548160ff0219169083151502179055506000600360016101000a81548160ff02191690831515021790555060006004556000600760146101000a81548160ff021916908360ff1602179055506000600760156101000a81548160ff021916908360ff160217905550600a604051908082528060200260200182016040528015620000d25781602001602082028038833980820191505090505b5060099080519060200190620000ea92919062000c79565b506000600c60006101000a81548160ff0219169083151502179055503480156200011357600080fd5b5060405162003e8b38038062003e8b83398101806040528101908080518201929190602001805190602001909291908051906020019092919080519060200190929190805190602001909291908051820192919050505085858560ff1685601e600085518484846000841180156200018c5750600a8411155b15156200019857600080fd5b600083118015620001a95750600a83105b1515620001b557600080fd5b600082118015620001c557508181105b1515620001d157600080fd5b600094505b89518510156200038257600073ffffffffffffffffffffffffffffffffffffffff168a868151811015156200020757fe5b9060200190602002015173ffffffffffffffffffffffffffffffffffffffff16141580156200027a57503373ffffffffffffffffffffffffffffffffffffffff168a868151811015156200025757fe5b9060200190602002015173ffffffffffffffffffffffffffffffffffffffff1614155b15156200028357fe5b6001600860008c888151811015156200029857fe5b9060200190602002015173ffffffffffffffffffffffffffffffffffffffff1673ffffffffffffffffffffffffffffffffffffffff16815260200190815260200160002060000160006101000a81548160ff02191690831515021790555060098a868151811015156200030757fe5b9060200190602002015190806001815401808255809150509060018203906000526020600020016000909192909190916101000a81548173ffffffffffffffffffffffffffffffffffffffff021916908373ffffffffffffffffffffffffffffffffffffffff160217905550508480600101955050620001d6565b33600760006101000a81548173ffffffffffffffffffffffffffffffffffffffff021916908373ffffffffffffffffffffffffffffffffffffffff160217905550600160086000600760009054906101000a900473ffffffffffffffffffffffffffffffffffffffff1673ffffffffffffffffffffffffffffffffffffffff1673ffffffffffffffffffffffffffffffffffffffff16815260200190815260200160002060000160006101000a81548160ff0219169083151502179055506009600760009054906101000a900473ffffffffffffffffffffffffffffffffffffffff1690806001815401808255809150509060018203906000526020600020016000909192909190916101000a81548173ffffffffffffffffffffffffffffffffffffffff021916908373ffffffffffffffffffffffffffffffffffffffff1602179055505088600660006101000a81548173ffffffffffffffffffffffffffffffffffffffff021916908373ffffffffffffffffffffffffffffffffffffffff160217905550426000819055506000871462000520578662000523565b60005b60018190555060008714620005445762015180600154026000540162000548565b6002545b6002819055506001880160058190555062015180860260005401600481905550505050505050505050506200058d828262000599640100000000026401000000009004565b50505050505062000e17565b600060608060605b60008611156200090b57858501519350836040519080825280601f01601f191660200182016040528015620005e55781602001602082028038833980820191505090505b5092506200060486868562000913640100000000026401000000009004565b6200061e836200096f640100000000026401000000009004565b86039550858501519350836040519080825280601f01601f1916602001820160405280156200065c5781602001602082028038833980820191505090505b5091506200067b86868462000913640100000000026401000000009004565b62000695826200096f640100000000026401000000009004565b860395506200072c62000712620006d66040805190810160405280600181526020016000815250620009b764010000000002620028a6176401000000009004565b620006f585620009b764010000000002620028a6176401000000009004565b620009e76401000000000262002e38179091906401000000009004565b62000a146401000000000262002e52176401000000009004565b905080600a6000856040516020018082805190602001908083835b6020831015156200076e578051825260208201915060208101905060208303925062000747565b6001836020036101000a0380198251168184511680821785525050505050509050019150506040516020818303038152906040526040518082805190602001908083835b602083101515620007d95780518252602082019150602081019050602083039250620007b2565b6001836020036101000a03801982511681845116808217855250505050505090500191505060405180910390206000191660001916815260200190815260200160002090805190602001906200083192919062000d08565b50600b620008c7620008ad620008716040805190810160405280600181526020016000815250620009b764010000000002620028a6176401000000009004565b6200089087620009b764010000000002620028a6176401000000009004565b620009e76401000000000262002e38179091906401000000009004565b62000a146401000000000262002e52176401000000009004565b90806001815401808255809150509060018203906000526020600020016000909192909190915090805190602001906200090392919062000d08565b5050620005a1565b505050505050565b600060209050600084840151915060016020830401905060006020830611156200093e576001810190505b60005b818110156200096757858501516020820285015260208603955060018101905062000941565b505050505050565b6000602082518115156200097f57fe5b0490506000602083518115156200099257fe5b06141515620009a45780806001019150505b8080600101915050602081029050919050565b620009c162000d8f565b600060208301905060408051908101604052808451815260200182815250915050919050565b620009f162000d8f565b62000a0d83838362000a88640100000000026401000000009004565b5092915050565b606080600083600001516040519080825280601f01601f19166020018201604052801562000a515781602001602082028038833980820191505090505b50915060208201905062000a7e818560200151866000015162000b3b640100000000026401000000009004565b8192505050919050565b62000a9262000d8f565b600062000ac1856000015186602001518660000151876020015162000b88640100000000026401000000009004565b9050846020015183602001818152505084602001518103836000018181525050846000015185602001510181141562000b0557600085600001818152505062000b30565b8360000151836000015101856000018181510391508181525050836000015181018560200181815250505b829150509392505050565b60005b60208210151562000b65578251845260208401935060208301925060208203915062000b3e565b6001826020036101000a0390508019835116818551168181178652505050505050565b60008060008060008060008060008b97508c8b11151562000c635760208b11151562000c195760018b60200360080260020a03196001029550858a511694508a8d8d010393508588511692505b8460001916836000191614151562000c1057838810151562000bfc578c8c01985062000c69565b878060010198505085885116925062000bd5565b87985062000c69565b8a8a209150600096505b8a8d038711151562000c62578a8820905080600019168260001916141562000c4e5787985062000c69565b600188019750868060010197505062000c23565b5b8c8c0198505b5050505050505050949350505050565b82805482825590600052602060002090810192821562000cf5579160200282015b8281111562000cf45782518260006101000a81548173ffffffffffffffffffffffffffffffffffffffff021916908373ffffffffffffffffffffffffffffffffffffffff1602179055509160200191906001019062000c9a565b5b50905062000d04919062000da9565b5090565b828054600181600116156101000203166002900490600052602060002090601f016020900481019282601f1062000d4b57805160ff191683800117855562000d7c565b8280016001018555821562000d7c579182015b8281111562000d7b57825182559160200191906001019062000d5e565b5b50905062000d8b919062000def565b5090565b604080519081016040528060008152602001600081525090565b62000dec91905b8082111562000de857600081816101000a81549073ffffffffffffffffffffffffffffffffffffffff02191690555060010162000db0565b5090565b90565b62000e1491905b8082111562000e1057600081600090555060010162000df6565b5090565b90565b6130648062000e276000396000f3006080604052600436106101c2576000357c0100000000000000000000000000000000000000000000000000000000900463ffffffff16806317674544146101d15780631d1438481461023a57806322a151d41461029157806326f4490b146102bc5780632b7ac3f3146102d35780633034d20e1461032a578063331052181461039f5780633318d07c146103fa578063350f348f14610425578063351e8cc91461045457806340150816146104855780634665096d146104f65780634f9c1160146105215780634fb4e8331461059657806355e03373146106405780635ce308a7146106735780635f1a17a91461072257806362dfa1be1461073957806380007e8314610764578063877b9a67146107935780638cd0670b146107ee578063930bced11461081d578063981f549914610848578063a6de5832146108d8578063b2f4bdb014610907578063b319c9e414610932578063bbb82d8914610a14578063bc87eed314610a43578063c1bbc7db14610ad3578063c2797a3114610b58578063c2cf90bf14610bfe578063c63c5bd114610c15578063c88bcd2214610c7e578063d260679314610cad578063daabf2bd14610d5c578063f6e570e614610d8d575b3480156101ce57600080fd5b50005b3480156101dd57600080fd5b50610238600480360381019080803590602001908201803590602001908080601f0160208091040260200160405190810160405280939291908181526020018383808284378201915050505050509192919290505050610dba565b005b34801561024657600080fd5b5061024f610f2b565b604051808273ffffffffffffffffffffffffffffffffffffffff1673ffffffffffffffffffffffffffffffffffffffff16815260200191505060405180910390f35b34801561029d57600080fd5b506102a6610f51565b6040518082815260200191505060405180910390f35b3480156102c857600080fd5b506102d1610f57565b005b3480156102df57600080fd5b506102e861105c565b604051808273ffffffffffffffffffffffffffffffffffffffff1673ffffffffffffffffffffffffffffffffffffffff16815260200191505060405180910390f35b34801561033657600080fd5b5061039d600480360381019080803515159060200190929190803590602001908201803590602001908080601f0160208091040260200160405190810160405280939291908181526020018383808284378201915050505050509192919290505050611082565b005b3480156103ab57600080fd5b506103e0600480360381019080803573ffffffffffffffffffffffffffffffffffffffff16906020019092919050505061131e565b604051808215151515815260200191505060405180910390f35b34801561040657600080fd5b5061040f611378565b6040518082815260200191505060405180910390f35b34801561043157600080fd5b5061043a61137e565b604051808215151515815260200191505060405180910390f35b34801561046057600080fd5b50610469611469565b604051808260ff1660ff16815260200191505060405180910390f35b34801561049157600080fd5b506104c6600480360381019080803573ffffffffffffffffffffffffffffffffffffffff16906020019092919050505061147c565b60405180841515151581526020018315151515815260200182151515158152602001935050505060405180910390f35b34801561050257600080fd5b5061050b6114cd565b6040518082815260200191505060405180910390f35b34801561052d57600080fd5b50610594600480360381019080803515159060200190929190803590602001908201803590602001908080601f01602080910402602001604051908101604052809392919081815260200183838082843782019150505050505091929192905050506114d3565b005b3480156105a257600080fd5b506105c56004803603810190808035600019169060200190929190505050611600565b6040518080602001828103825283818151815260200191508051906020019080838360005b838110156106055780820151818401526020810190506105ea565b50505050905090810190601f1680156106325780820380516001836020036101000a031916815260200191505b509250505060405180910390f35b34801561064c57600080fd5b506106556116b0565b60405180826000191660001916815260200191505060405180910390f35b34801561067f57600080fd5b50610720600480360381019080803590602001908201803590602001908080601f0160208091040260200160405190810160405280939291908181526020018383808284378201915050505050509192919290803590602001908201803590602001908080601f016020809104026020016040519081016040528093929190818152602001838380828437820191505050505050919291929050505061178d565b005b34801561072e57600080fd5b50610737611994565b005b34801561074557600080fd5b5061074e611aa0565b6040518082815260200191505060405180910390f35b34801561077057600080fd5b50610779611aa5565b604051808215151515815260200191505060405180910390f35b34801561079f57600080fd5b506107d4600480360381019080803573ffffffffffffffffffffffffffffffffffffffff169060200190929190505050611abc565b604051808215151515815260200191505060405180910390f35b3480156107fa57600080fd5b50610803611b16565b604051808215151515815260200191505060405180910390f35b34801561082957600080fd5b50610832611bc6565b6040518082815260200191505060405180910390f35b34801561085457600080fd5b5061085d611bcc565b6040518080602001828103825283818151815260200191508051906020019080838360005b8381101561089d578082015181840152602081019050610882565b50505050905090810190601f1680156108ca5780820380516001836020036101000a031916815260200191505b509250505060405180910390f35b3480156108e457600080fd5b506108ed611d9e565b604051808215151515815260200191505060405180910390f35b34801561091357600080fd5b5061091c611db1565b6040518082815260200191505060405180910390f35b34801561093e57600080fd5b50610999600480360381019080803590602001908201803590602001908080601f0160208091040260200160405190810160405280939291908181526020018383808284378201915050505050509192919290505050611db7565b6040518080602001828103825283818151815260200191508051906020019080838360005b838110156109d95780820151818401526020810190506109be565b50505050905090810190601f168015610a065780820380516001836020036101000a031916815260200191505b509250505060405180910390f35b348015610a2057600080fd5b50610a29611e84565b604051808215151515815260200191505060405180910390f35b348015610a4f57600080fd5b50610a58611e97565b6040518080602001828103825283818151815260200191508051906020019080838360005b83811015610a98578082015181840152602081019050610a7d565b50505050905090810190601f168015610ac55780820380516001836020036101000a031916815260200191505b509250505060405180910390f35b348015610adf57600080fd5b50610b3a600480360381019080803590602001908201803590602001908080601f0160208091040260200160405190810160405280939291908181526020018383808284378201915050505050509192919290505050611ff6565b60405180826000191660001916815260200191505060405180910390f35b348015610b6457600080fd5b50610b83600480360381019080803590602001909291905050506120fe565b6040518080602001828103825283818151815260200191508051906020019080838360005b83811015610bc3578082015181840152602081019050610ba8565b50505050905090810190601f168015610bf05780820380516001836020036101000a031916815260200191505b509250505060405180910390f35b348015610c0a57600080fd5b50610c136121b9565b005b348015610c2157600080fd5b50610c7c600480360381019080803590602001908201803590602001908080601f0160208091040260200160405190810160405280939291908181526020018383808284378201915050505050509192919290505050612273565b005b348015610c8a57600080fd5b50610c936125cf565b604051808215151515815260200191505060405180910390f35b348015610cb957600080fd5b50610d5a600480360381019080803590602001908201803590602001908080601f0160208091040260200160405190810160405280939291908181526020018383808284378201915050505050509192919290803590602001908201803590602001908080601f01602080910402602001604051908101604052809392919081815260200183838082843782019150505050505091929192905050506125e2565b005b348015610d6857600080fd5b50610d716127ab565b604051808260ff1660ff16815260200191505060405180910390f35b348015610d9957600080fd5b50610db8600480360381019080803590602001909291905050506127be565b005b60045442101515610dca57600080fd5b600c60009054906101000a900460ff161515610de257fe5b3373ffffffffffffffffffffffffffffffffffffffff16600760009054906101000a900473ffffffffffffffffffffffffffffffffffffffff1673ffffffffffffffffffffffffffffffffffffffff16141515610e3e57600080fd5b600a6000610e53610e4e846128a6565b6128d4565b600019166000191681526020019081526020016000206000610e759190612d31565b3073ffffffffffffffffffffffffffffffffffffffff167f9db365c920fe9181ff90a5267a74a6c0c2954b878ae78f6ab57bed0c2bd5c239826040518080602001828103825283818151815260200191508051906020019080838360005b83811015610eee578082015181840152602081019050610ed3565b50505050905090810190601f168015610f1b5780820380516001836020036101000a031916815260200191505b509250505060405180910390a250565b600760009054906101000a900473ffffffffffffffffffffffffffffffffffffffff1681565b60055481565b60025442111515610f6757600080fd5b3373ffffffffffffffffffffffffffffffffffffffff16600660009054906101000a900473ffffffffffffffffffffffffffffffffffffffff1673ffffffffffffffffffffffffffffffffffffffff16141515610fc357600080fd5b6000600360016101000a81548160ff0219169083151502179055503073ffffffffffffffffffffffffffffffffffffffff16600660009054906101000a900473ffffffffffffffffffffffffffffffffffffffff1673ffffffffffffffffffffffffffffffffffffffff167f6461d55e3edc9ce5c9c80d7bfb1a6fbcb71312efa790a6687225eadf3bdaffaf60405160405180910390a3565b600660009054906101000a900473ffffffffffffffffffffffffffffffffffffffff1681565b60006111918261117f3086604051602001808373ffffffffffffffffffffffffffffffffffffffff1673ffffffffffffffffffffffffffffffffffffffff166c0100000000000000000000000002815260140182151515157f0100000000000000000000000000000000000000000000000000000000000000028152600101925050506040516020818303038152906040526040518082805190602001908083835b6020831015156111495780518252602082019150602081019050602083039250611124565b6001836020036101000a0380198251168184511680821785525050505050509050019150506040518091039020600019166128e5565b600019166129a090919063ffffffff16565b9050600860008273ffffffffffffffffffffffffffffffffffffffff1673ffffffffffffffffffffffffffffffffffffffff16815260200190815260200160002060000160009054906101000a900460ff1615156111eb57fe5b600860008273ffffffffffffffffffffffffffffffffffffffff1673ffffffffffffffffffffffffffffffffffffffff16815260200190815260200160002060000160019054906101000a900460ff16151561124357fe5b82600860008373ffffffffffffffffffffffffffffffffffffffff1673ffffffffffffffffffffffffffffffffffffffff16815260200190815260200160002060000160026101000a81548160ff021916908315150217905550600660009054906101000a900473ffffffffffffffffffffffffffffffffffffffff1673ffffffffffffffffffffffffffffffffffffffff163073ffffffffffffffffffffffffffffffffffffffff167fb9f6e448b49729be08881707bf32b32df91dc5e5fd36f5bfb05816b413591cdb60405160405180910390a3505050565b60008173ffffffffffffffffffffffffffffffffffffffff16600660009054906101000a900473ffffffffffffffffffffffffffffffffffffffff1673ffffffffffffffffffffffffffffffffffffffff16149050919050565b60015481565b6000806000809150600090505b6009805490508160ff16101561144957600115156008600060098460ff168154811015156113b557fe5b9060005260206000200160009054906101000a900473ffffffffffffffffffffffffffffffffffffffff1673ffffffffffffffffffffffffffffffffffffffff1673ffffffffffffffffffffffffffffffffffffffff16815260200190815260200160002060000160029054906101000a900460ff161515141561143c5781806001019250505b808060010191505061138b565b6005548260ff16101561145f5760009250611464565b600192505b505090565b600760149054906101000a900460ff1681565b60086020528060005260406000206000915090508060000160009054906101000a900460ff16908060000160019054906101000a900460ff16908060000160029054906101000a900460ff16905083565b60025481565b3373ffffffffffffffffffffffffffffffffffffffff16600660009054906101000a900473ffffffffffffffffffffffffffffffffffffffff1673ffffffffffffffffffffffffffffffffffffffff1614151561152f57600080fd5b81600c60006101000a81548160ff0219169083151502179055503073ffffffffffffffffffffffffffffffffffffffff167fcd418e9e4619655d848c242ba583f7bcd1f74bb3a658a3bbaf6ac569fc4b9347826040518080602001828103825283818151815260200191508051906020019080838360005b838110156115c25780820151818401526020810190506115a7565b50505050905090810190601f1680156115ef5780820380516001836020036101000a031916815260200191505b509250505060405180910390a25050565b600a6020528060005260406000206000915090508054600181600116156101000203166002900480601f0160208091040260200160405190810160405280929190818152602001828054600181600116156101000203166002900480156116a85780601f1061167d576101008083540402835291602001916116a8565b820191906000526020600020905b81548152906001019060200180831161168b57829003601f168201915b505050505081565b60006116ba611bcc565b6040516020018082805190602001908083835b6020831015156116f257805182526020820191506020810190506020830392506116cd565b6001836020036101000a0380198251168184511680821785525050505050509050019150506040516020818303038152906040526040518082805190602001908083835b60208310151561175b5780518252602082019150602081019050602083039250611736565b6001836020036101000a0380198251168184511680821785525050505050509050019150506040518091039020905090565b600c60009054906101000a900460ff1615156117a557fe5b816000600a60006117bd6117b8856128a6565b6128d4565b600019166000191681526020019081526020016000208054600181600116156101000203166002900490501415156117f157fe5b6004544210151561180157600080fd5b3373ffffffffffffffffffffffffffffffffffffffff16600760009054906101000a900473ffffffffffffffffffffffffffffffffffffffff1673ffffffffffffffffffffffffffffffffffffffff1614151561185d57600080fd5b81600a600061187361186e876128a6565b6128d4565b60001916600019168152602001908152602001600020908051906020019061189c929190612d79565b50600b8390806001815401808255809150509060018203906000526020600020016000909192909190915090805190602001906118da929190612d79565b50503073ffffffffffffffffffffffffffffffffffffffff167f9baebac67931fa0302d3f9793c844ce81f856decfd277712c216329f3df90e0b846040518080602001828103825283818151815260200191508051906020019080838360005b8381101561195557808201518184015260208101905061193a565b50505050905090810190601f1680156119825780820380516001836020036101000a031916815260200191505b509250505060405180910390a2505050565b600360019054906101000a900460ff161515156119ad57fe5b3373ffffffffffffffffffffffffffffffffffffffff16600660009054906101000a900473ffffffffffffffffffffffffffffffffffffffff1673ffffffffffffffffffffffffffffffffffffffff16141515611a0957600080fd5b60045442111515611a1957600080fd5b611a21611b16565b1515611a2957fe5b6001600360016101000a81548160ff0219169083151502179055503073ffffffffffffffffffffffffffffffffffffffff163373ffffffffffffffffffffffffffffffffffffffff167f67dbe849a9c7e4fbbaa3c0610c9348e4b4d0470fab72b7c3d587be9ef3014c4360405160405180910390a3565b600a81565b6000600360019054906101000a900460ff16905090565b60008173ffffffffffffffffffffffffffffffffffffffff16600760009054906101000a900473ffffffffffffffffffffffffffffffffffffffff1673ffffffffffffffffffffffffffffffffffffffff16149050919050565b600060086000600760009054906101000a900473ffffffffffffffffffffffffffffffffffffffff1673ffffffffffffffffffffffffffffffffffffffff1673ffffffffffffffffffffffffffffffffffffffff16815260200190815260200160002060000160019054906101000a900460ff161515611b995760009050611bc3565b600554600760149054906101000a900460ff1660ff161015611bbe5760009050611bc3565b600190505b90565b60045481565b606060006060600091505b600b805490508263ffffffff161015611d9957600a6000611cb6611cb1600b8663ffffffff16815481101515611c0957fe5b906000526020600020018054600181600116156101000203166002900480601f016020809104026020016040519081016040528092919081815260200182805460018160011615610100020316600290048015611ca75780601f10611c7c57610100808354040283529160200191611ca7565b820191906000526020600020905b815481529060010190602001808311611c8a57829003601f168201915b50505050506128a6565b6128d4565b600019166000191681526020019081526020016000208054600181600116156101000203166002900480601f016020809104026020016040519081016040528092919081815260200182805460018160011615610100020316600290048015611d605780601f10611d3557610100808354040283529160200191611d60565b820191906000526020600020905b815481529060010190602001808311611d4357829003601f168201915b50505050509050611d8a611d73826128a6565b611d7c856128a6565b612a9890919063ffffffff16565b92508180600101925050611bd7565b505090565b600360009054906101000a900460ff1681565b60005481565b6060600a6000611dce611dc9856128a6565b6128d4565b600019166000191681526020019081526020016000208054600181600116156101000203166002900480601f016020809104026020016040519081016040528092919081815260200182805460018160011615610100020316600290048015611e785780601f10611e4d57610100808354040283529160200191611e78565b820191906000526020600020905b815481529060010190602001808311611e5b57829003601f168201915b50505050509050919050565b600360019054906101000a900460ff1681565b606060008090505b600b805490508163ffffffff161015611ff257611fe3611ef36040805190810160405280600181526020017f3b000000000000000000000000000000000000000000000000000000000000008152506128a6565b611fd5611fd0611fb9600b8663ffffffff16815481101515611f1157fe5b906000526020600020018054600181600116156101000203166002900480601f016020809104026020016040519081016040528092919081815260200182805460018160011615610100020316600290048015611faf5780601f10611f8457610100808354040283529160200191611faf565b820191906000526020600020905b815481529060010190602001808311611f9257829003601f168201915b50505050506128a6565b611fc2876128a6565b612a9890919063ffffffff16565b6128a6565b612a9890919063ffffffff16565b91508080600101915050611e9f565b5090565b6000600a600061200d612008856128a6565b6128d4565b6000191660001916815260200190815260200160002060405160200180828054600181600116156101000203166002900480156120815780601f1061205f576101008083540402835291820191612081565b820191906000526020600020905b81548152906001019060200180831161206d575b50509150506040516020818303038152906040526040518082805190602001908083835b6020831015156120ca57805182526020820191506020810190506020830392506120a5565b6001836020036101000a03801982511681845116808217855250505050505090500191505060405180910390209050919050565b600b8181548110151561210d57fe5b906000526020600020016000915090508054600181600116156101000203166002900480601f0160208091040260200160405190810160405280929190818152602001828054600181600116156101000203166002900480156121b15780601f10612186576101008083540402835291602001916121b1565b820191906000526020600020905b81548152906001019060200180831161219457829003601f168201915b505050505081565b600254421115156121c957600080fd5b6121d161137e565b15156121dc57600080fd5b33600860008273ffffffffffffffffffffffffffffffffffffffff1673ffffffffffffffffffffffffffffffffffffffff16815260200190815260200160002060000160009054906101000a900460ff16151561223857600080fd5b600760009054906101000a900473ffffffffffffffffffffffffffffffffffffffff1673ffffffffffffffffffffffffffffffffffffffff16ff5b60006004544211151561228557600080fd5b61228e82612b1a565b1515612365577fc18ad75b56934a79fbdc8a290004a37a45fefb023648128bf56aa146e917f46933604051808273ffffffffffffffffffffffffffffffffffffffff1673ffffffffffffffffffffffffffffffffffffffff16815260200191505060405180910390a16040517f08c379a00000000000000000000000000000000000000000000000000000000081526004018080602001828103825260208152602001807f5375626d697474696e67207369676e617475726520697320696e76616c69642181525060200191505060405180910390fd5b6124c0826124ae30600660009054906101000a900473ffffffffffffffffffffffffffffffffffffffff166123986116b0565b604051602001808473ffffffffffffffffffffffffffffffffffffffff1673ffffffffffffffffffffffffffffffffffffffff166c010000000000000000000000000281526014018373ffffffffffffffffffffffffffffffffffffffff1673ffffffffffffffffffffffffffffffffffffffff166c01000000000000000000000000028152601401826000191660001916815260200193505050506040516020818303038152906040526040518082805190602001908083835b6020831015156124785780518252602082019150602081019050602083039250612453565b6001836020036101000a0380198251168184511680821785525050505050509050019150506040518091039020600019166128e5565b600019166129a090919063ffffffff16565b90506001600860008373ffffffffffffffffffffffffffffffffffffffff1673ffffffffffffffffffffffffffffffffffffffff16815260200190815260200160002060000160016101000a81548160ff0219169083151502179055506007601481819054906101000a900460ff168092919060010191906101000a81548160ff021916908360ff16021790555050600660009054906101000a900473ffffffffffffffffffffffffffffffffffffffff1673ffffffffffffffffffffffffffffffffffffffff163073ffffffffffffffffffffffffffffffffffffffff167fc2bf16530f348dc1b17eea7985ab72810b756cc5fb003750246145c6aa940f2060405160405180910390a35050565b600c60009054906101000a900460ff1681565b600c60009054906101000a900460ff1615156125fa57fe5b6004544210151561260a57600080fd5b816000600a600061262261261d856128a6565b6128d4565b600019166000191681526020019081526020016000208054600181600116156101000203166002900490501415151561265757fe5b3373ffffffffffffffffffffffffffffffffffffffff16600760009054906101000a900473ffffffffffffffffffffffffffffffffffffffff1673ffffffffffffffffffffffffffffffffffffffff161415156126b357600080fd5b81600a60006126c96126c4876128a6565b6128d4565b6000191660001916815260200190815260200160002090805190602001906126f2929190612d79565b503073ffffffffffffffffffffffffffffffffffffffff167f9baebac67931fa0302d3f9793c844ce81f856decfd277712c216329f3df90e0b846040518080602001828103825283818151815260200191508051906020019080838360005b8381101561276c578082015181840152602081019050612751565b50505050905090810190601f1680156127995780820380516001836020036101000a031916815260200191505b509250505060405180910390a2505050565b600760159054906101000a900460ff1681565b3373ffffffffffffffffffffffffffffffffffffffff16600660009054906101000a900473ffffffffffffffffffffffffffffffffffffffff1673ffffffffffffffffffffffffffffffffffffffff1614151561281a57600080fd5b6004544210151561282a57600080fd5b600360019054906101000a900460ff1615151561284357fe5b600081118015612857575060098054905081105b151561286257600080fd5b807f75f1bf5e48fe4895f88b4bf88e36054829d7be3dc6ef5a755296e910f631cb8b6005546040518082815260200191505060405180910390a28060058190555050565b6128ae612df9565b600060208301905060408051908101604052808451815260200182815250915050919050565b600081516020830151209050919050565b60008160405160200180807f19457468657265756d205369676e6564204d6573736167653a0a333200000000815250601c0182600019166000191681526020019150506040516020818303038152906040526040518082805190602001908083835b60208310151561296c5780518252602082019150602081019050602083039250612947565b6001836020036101000a03801982511681845116808217855250505050505090500191505060405180910390209050919050565b600080600080604185511415156129ba5760009350612a8f565b6020850151925060408501519150606085015160001a9050601b8160ff1610156129e557601b810190505b601b8160ff16141580156129fd5750601c8160ff1614155b15612a0b5760009350612a8f565b600186828585604051600081526020016040526040518085600019166000191681526020018460ff1660ff1681526020018360001916600019168152602001826000191660001916815260200194505050505060206040516020810390808403906000865af1158015612a82573d6000803e3d6000fd5b5050506020604051035193505b50505092915050565b606080600083600001518560000151016040519080825280601f01601f191660200182016040528015612ada5781602001602082028038833980820191505090505b509150602082019050612af68186602001518760000151612c65565b612b0f8560000151820185602001518660000151612c65565b819250505092915050565b6000612c5e30600660009054906101000a900473ffffffffffffffffffffffffffffffffffffffff16612b4b6116b0565b604051602001808473ffffffffffffffffffffffffffffffffffffffff1673ffffffffffffffffffffffffffffffffffffffff166c010000000000000000000000000281526014018373ffffffffffffffffffffffffffffffffffffffff1673ffffffffffffffffffffffffffffffffffffffff166c01000000000000000000000000028152601401826000191660001916815260200193505050506040516020818303038152906040526040518082805190602001908083835b602083101515612c2b5780518252602082019150602081019050602083039250612c06565b6001836020036101000a038019825116818451168082178552505050505050905001915050604051809103902083612cb0565b9050919050565b60005b602082101515612c8d5782518452602084019350602083019250602082039150612c68565b6001826020036101000a0390508019835116818551168181178652505050505050565b600080612cd683612cc486600019166128e5565b600019166129a090919063ffffffff16565b9050600860008273ffffffffffffffffffffffffffffffffffffffff1673ffffffffffffffffffffffffffffffffffffffff16815260200190815260200160002060000160009054906101000a900460ff1691505092915050565b50805460018160011615610100020316600290046000825580601f10612d575750612d76565b601f016020900490600052602060002090810190612d759190612e13565b5b50565b828054600181600116156101000203166002900490600052602060002090601f016020900481019282601f10612dba57805160ff1916838001178555612de8565b82800160010185558215612de8579182015b82811115612de7578251825591602001919060010190612dcc565b5b509050612df59190612e13565b5090565b604080519081016040528060008152602001600081525090565b612e3591905b80821115612e31576000816000905550600101612e19565b5090565b90565b612e40612df9565b612e4b838383612eb4565b5092915050565b606080600083600001516040519080825280601f01601f191660200182016040528015612e8e5781602001602082028038833980820191505090505b509150602082019050612eaa8185602001518660000151612c65565b8192505050919050565b612ebc612df9565b6000612eda8560000151866020015186600001518760200151612f52565b90508460200151836020018181525050846020015181038360000181815250508460000151856020015101811415612f1c576000856000018181525050612f47565b8360000151836000015101856000018181510391508181525050836000015181018560200181815250505b829150509392505050565b60008060008060008060008060008b97508c8b1115156130225760208b111515612fdc5760018b60200360080260020a03196001029550858a511694508a8d8d010393508588511692505b84600019168360001916141515612fd4578388101515612fc1578c8c019850613028565b8780600101985050858851169250612f9d565b879850613028565b8a8a209150600096505b8a8d0387111515613021578a8820905080600019168260001916141561300e57879850613028565b6001880197508680600101975050612fe6565b5b8c8c0198505b50505050505050509493505050505600a165627a7a723058200e22b19718ad72b26a9e9cf69a9eb310ab8647570a4fffab2cfc383808b376380029a165627a7a723058208c7f80b96fb7c8ba2c8121742633e91eec3aa28d92ff03ac98cfb758db23aec00029",
  "source": "pragma solidity ^0.4.24;\n\nimport './MultiSigDocumentWithStorage.sol';\ncontract MultiSigDocumentRegistry {\n  using strings for *;\n\n  event DocumentIndexed(address indexed issuer, address indexed docAddr);\n  event DocumentCreated(address indexed issuer, address indexed docAddr);\n  event VerifierRegistration(address indexed issuer);\n\n  struct Verifier {\n      bool isVerifier;\n      string Name;\n      string Email;\n  }\n  //Store verifier info.\n  mapping (address => Verifier) public verifierInfo;\n  // Store created and indexed Document by Issuer's address\n  mapping (address => MultiSigDocumentWithStorage[]) public docVault;\n  // Keep track how many documents each Issuer have.\n  /* mapping (address => uint) docCount; */\n\n  modifier onlyVerifier(bool isVerifier) {\n      assert(isVerifier);\n      _;\n  }\n  modifier onlyIssuer(bool isIssuer) {\n      assert(isIssuer);\n      _;\n  }\n  modifier isRegisteredVerifier(address a1) {\n      assert(verifierInfo[a1].isVerifier);\n      _;\n  }\n\n  constructor()\n    public\n  {\n\n  }\n  modifier stringNotEmpty(string memory s1) {\n    assert(bytes(s1).length != 0);\n    _;\n  }\n  function registerVerifier(string memory _name, string memory _email)\n    public\n    stringNotEmpty(_name)\n    stringNotEmpty(_email)\n  {\n    verifierInfo[msg.sender] = Verifier({\n        isVerifier: true,\n        Name: _name,\n        Email: _email\n      });\n    emit VerifierRegistration(msg.sender);\n  }\n\n  function createDocument(\n    address[] signers,\n    address verifier,\n    uint8 required,\n    uint validDays,\n    uint offset,\n    bytes buffer\n  )\n    public\n    isRegisteredVerifier(verifier)\n    returns (address)\n  {\n\n    docVault[msg.sender].push(new MultiSigDocumentWithStorage(signers, verifier, required, validDays, offset, buffer));\n\n    /* docCount[msg.sender] = docCount[msg.sender] + 1; */\n\n    emit DocumentCreated(msg.sender, docVault[msg.sender][docVault[msg.sender].length - 1]);\n    return docVault[msg.sender][docVault[msg.sender].length - 1];\n  }\n\n  function setDocument(MultiSigDocumentWithStorage doc)\n    public\n    onlyIssuer(doc.isIssuer(msg.sender))\n  {\n    /* docVault[msg.sender][docCount[msg.sender]] = Document({docAddr: docAddr}); */\n    /* docVault[msg.sender][docCount[msg.sender]] = doc;\n\n    docCount[msg.sender] = docCount[msg.sender] + 1; */\n    docVault[msg.sender].push (doc);\n\n    emit DocumentIndexed(msg.sender, address(doc));\n  }\n\n  function isVerified(address addr, uint docId)\n    public\n    view\n    returns (bool)\n  {\n    return docVault[addr][docId].isVerified();\n  }\n\n  function getEntry(address issuer, uint docId, string memory key)\n    public\n    view\n    returns (string)\n  {\n    return docVault[issuer][docId].getEntry(key);\n  }\n\n  function getProofHash(address issuer, uint docId)\n    public\n    view\n    returns (bytes32)\n  {\n    return docVault[issuer][docId].getProofHash();\n  }\n\n  function isEnoughSignature(address issuer, uint docId)\n    public\n    view\n    returns (bool)\n  {\n    return docVault[issuer][docId].isEnoughSignature();\n  }\n  function getDocumentCount(address issuer)\n      public\n      view\n      returns (uint)\n    {\n      return docVault[issuer].length;\n    }\n  /* function getDocumentByIssuer(address isPending)\n        private\n        returns (bytes32[] _transactionList)\n  {\n        bytes32[] memory _transactionListTemp = new bytes32[](transactionList.length);\n        uint count = 0;\n        for (uint i=0; i<transactionList.length; i++)\n            if (   isPending && !transactions[transactionList[i]].executed\n                || !isPending && transactions[transactionList[i]].executed)\n            {\n                _transactionListTemp[count] = transactionList[i];\n                count += 1;\n            }\n        _transactionList = new bytes32[](count);\n        for (i=0; i<count; i++)\n            if (_transactionListTemp[i] > 0)\n                _transactionList[i] = _transactionListTemp[i];\n  } */\n}\n",
  "sourcePath": "/Users/henry/ws/digicert/contracts/MultiSigDocumentRegistry.sol",
  "compiler": {
    "name": "solc",
    "version": "0.4.24+commit.e67f0147.Emscripten.clang"
  },
  "schemaVersion": "2.0.1",
  "updatedAt": "2018-07-31T09:24:52.204Z"
}