{
  "contractName": "MultiSigDocumentWithStorage",
  "abi": [
    {
      "constant": true,
      "inputs": [],
      "name": "issuer",
      "outputs": [
        {
          "name": "",
          "type": "address"
        }
      ],
      "payable": false,
      "stateMutability": "view",
      "type": "function"
    },
    {
      "constant": true,
      "inputs": [],
      "name": "numOfRequiredSignature",
      "outputs": [
        {
          "name": "",
          "type": "uint256"
        }
      ],
      "payable": false,
      "stateMutability": "view",
      "type": "function"
    },
    {
      "constant": false,
      "inputs": [],
      "name": "revokeDocument",
      "outputs": [],
      "payable": false,
      "stateMutability": "nonpayable",
      "type": "function"
    },
    {
      "constant": true,
      "inputs": [],
      "name": "verifier",
      "outputs": [
        {
          "name": "",
          "type": "address"
        }
      ],
      "payable": false,
      "stateMutability": "view",
      "type": "function"
    },
    {
      "constant": false,
      "inputs": [
        {
          "name": "confirmedDeleted",
          "type": "bool"
        },
        {
          "name": "sig",
          "type": "bytes"
        }
      ],
      "name": "submitDeleteConfirmation",
      "outputs": [],
      "payable": false,
      "stateMutability": "nonpayable",
      "type": "function"
    },
    {
      "constant": true,
      "inputs": [
        {
          "name": "addr",
          "type": "address"
        }
      ],
      "name": "isVerifier",
      "outputs": [
        {
          "name": "",
          "type": "bool"
        }
      ],
      "payable": false,
      "stateMutability": "view",
      "type": "function"
    },
    {
      "constant": true,
      "inputs": [],
      "name": "validDays",
      "outputs": [
        {
          "name": "",
          "type": "uint256"
        }
      ],
      "payable": false,
      "stateMutability": "view",
      "type": "function"
    },
    {
      "constant": true,
      "inputs": [],
      "name": "checkDeleteConfirmations",
      "outputs": [
        {
          "name": "",
          "type": "bool"
        }
      ],
      "payable": false,
      "stateMutability": "view",
      "type": "function"
    },
    {
      "constant": true,
      "inputs": [],
      "name": "finalizedSigConfirmations",
      "outputs": [
        {
          "name": "",
          "type": "uint8"
        }
      ],
      "payable": false,
      "stateMutability": "view",
      "type": "function"
    },
    {
      "constant": true,
      "inputs": [
        {
          "name": "",
          "type": "address"
        }
      ],
      "name": "signerProperties",
      "outputs": [
        {
          "name": "IsSigner",
          "type": "bool"
        },
        {
          "name": "IsSigned",
          "type": "bool"
        },
        {
          "name": "DeleteConfirmed",
          "type": "bool"
        }
      ],
      "payable": false,
      "stateMutability": "view",
      "type": "function"
    },
    {
      "constant": true,
      "inputs": [],
      "name": "expiration",
      "outputs": [
        {
          "name": "",
          "type": "uint256"
        }
      ],
      "payable": false,
      "stateMutability": "view",
      "type": "function"
    },
    {
      "constant": true,
      "inputs": [
        {
          "name": "",
          "type": "bytes32"
        }
      ],
      "name": "entryStorage",
      "outputs": [
        {
          "name": "",
          "type": "string"
        }
      ],
      "payable": false,
      "stateMutability": "view",
      "type": "function"
    },
    {
      "constant": false,
      "inputs": [],
      "name": "verifyDocument",
      "outputs": [],
      "payable": false,
      "stateMutability": "nonpayable",
      "type": "function"
    },
    {
      "constant": true,
      "inputs": [],
      "name": "MAX_SIGNER_COUNT",
      "outputs": [
        {
          "name": "",
          "type": "uint256"
        }
      ],
      "payable": false,
      "stateMutability": "view",
      "type": "function"
    },
    {
      "constant": true,
      "inputs": [],
      "name": "isVerified",
      "outputs": [
        {
          "name": "",
          "type": "bool"
        }
      ],
      "payable": false,
      "stateMutability": "view",
      "type": "function"
    },
    {
      "constant": true,
      "inputs": [
        {
          "name": "addr",
          "type": "address"
        }
      ],
      "name": "isIssuer",
      "outputs": [
        {
          "name": "",
          "type": "bool"
        }
      ],
      "payable": false,
      "stateMutability": "view",
      "type": "function"
    },
    {
      "constant": true,
      "inputs": [],
      "name": "isEnoughSignature",
      "outputs": [
        {
          "name": "",
          "type": "bool"
        }
      ],
      "payable": false,
      "stateMutability": "view",
      "type": "function"
    },
    {
      "constant": true,
      "inputs": [],
      "name": "allowModificationDeadline",
      "outputs": [
        {
          "name": "",
          "type": "uint256"
        }
      ],
      "payable": false,
      "stateMutability": "view",
      "type": "function"
    },
    {
      "constant": true,
      "inputs": [],
      "name": "autoActivation",
      "outputs": [
        {
          "name": "",
          "type": "bool"
        }
      ],
      "payable": false,
      "stateMutability": "view",
      "type": "function"
    },
    {
      "constant": true,
      "inputs": [],
      "name": "createdTime",
      "outputs": [
        {
          "name": "",
          "type": "uint256"
        }
      ],
      "payable": false,
      "stateMutability": "view",
      "type": "function"
    },
    {
      "constant": true,
      "inputs": [],
      "name": "verified",
      "outputs": [
        {
          "name": "",
          "type": "bool"
        }
      ],
      "payable": false,
      "stateMutability": "view",
      "type": "function"
    },
    {
      "constant": true,
      "inputs": [
        {
          "name": "",
          "type": "uint256"
        }
      ],
      "name": "entryKeys",
      "outputs": [
        {
          "name": "",
          "type": "string"
        }
      ],
      "payable": false,
      "stateMutability": "view",
      "type": "function"
    },
    {
      "constant": false,
      "inputs": [
        {
          "name": "sig",
          "type": "bytes"
        }
      ],
      "name": "signDocument",
      "outputs": [],
      "payable": false,
      "stateMutability": "nonpayable",
      "type": "function"
    },
    {
      "constant": true,
      "inputs": [],
      "name": "writable",
      "outputs": [
        {
          "name": "",
          "type": "bool"
        }
      ],
      "payable": false,
      "stateMutability": "view",
      "type": "function"
    },
    {
      "constant": true,
      "inputs": [],
      "name": "deleteConfirmations",
      "outputs": [
        {
          "name": "",
          "type": "uint8"
        }
      ],
      "payable": false,
      "stateMutability": "view",
      "type": "function"
    },
    {
      "constant": false,
      "inputs": [
        {
          "name": "newRequiredNumber",
          "type": "uint256"
        }
      ],
      "name": "changeNumberOfRquiredSignatures",
      "outputs": [],
      "payable": false,
      "stateMutability": "nonpayable",
      "type": "function"
    },
    {
      "inputs": [
        {
          "name": "signers",
          "type": "address[]"
        },
        {
          "name": "verifier",
          "type": "address"
        },
        {
          "name": "required",
          "type": "uint8"
        },
        {
          "name": "effectiveDurationInDay",
          "type": "uint256"
        },
        {
          "name": "offset",
          "type": "uint256"
        },
        {
          "name": "buffer",
          "type": "bytes"
        }
      ],
      "payable": false,
      "stateMutability": "nonpayable",
      "type": "constructor"
    },
    {
      "anonymous": false,
      "inputs": [
        {
          "indexed": false,
          "name": "l1",
          "type": "uint256"
        },
        {
          "indexed": false,
          "name": "s1",
          "type": "string"
        }
      ],
      "name": "LogString",
      "type": "event"
    },
    {
      "anonymous": false,
      "inputs": [
        {
          "indexed": true,
          "name": "document",
          "type": "address"
        },
        {
          "indexed": false,
          "name": "entryKey",
          "type": "string"
        }
      ],
      "name": "EntrySet",
      "type": "event"
    },
    {
      "anonymous": false,
      "inputs": [
        {
          "indexed": true,
          "name": "document",
          "type": "address"
        },
        {
          "indexed": false,
          "name": "entryKey",
          "type": "string"
        }
      ],
      "name": "EntryDeleted",
      "type": "event"
    },
    {
      "anonymous": false,
      "inputs": [
        {
          "indexed": true,
          "name": "document",
          "type": "address"
        },
        {
          "indexed": false,
          "name": "entryKey",
          "type": "string"
        }
      ],
      "name": "EntryUpdateRequest",
      "type": "event"
    },
    {
      "anonymous": false,
      "inputs": [
        {
          "indexed": true,
          "name": "verifier",
          "type": "address"
        },
        {
          "indexed": true,
          "name": "doc",
          "type": "address"
        }
      ],
      "name": "Verification",
      "type": "event"
    },
    {
      "anonymous": false,
      "inputs": [
        {
          "indexed": true,
          "name": "verifier",
          "type": "address"
        },
        {
          "indexed": true,
          "name": "doc",
          "type": "address"
        }
      ],
      "name": "Revocation",
      "type": "event"
    },
    {
      "anonymous": false,
      "inputs": [
        {
          "indexed": false,
          "name": "submitter",
          "type": "address"
        }
      ],
      "name": "LogInvalidSignatureSubmission",
      "type": "event"
    },
    {
      "anonymous": false,
      "inputs": [
        {
          "indexed": false,
          "name": "oldNum",
          "type": "uint256"
        },
        {
          "indexed": true,
          "name": "newNum",
          "type": "uint256"
        }
      ],
      "name": "LogNumOfRequiredSignatureChanged",
      "type": "event"
    },
    {
      "anonymous": false,
      "inputs": [
        {
          "indexed": true,
          "name": "document",
          "type": "address"
        },
        {
          "indexed": true,
          "name": "verifier",
          "type": "address"
        }
      ],
      "name": "DocumentSigned",
      "type": "event"
    },
    {
      "anonymous": false,
      "inputs": [
        {
          "indexed": true,
          "name": "document",
          "type": "address"
        },
        {
          "indexed": true,
          "name": "verifier",
          "type": "address"
        }
      ],
      "name": "DeleteDocumentConfirmation",
      "type": "event"
    },
    {
      "constant": false,
      "inputs": [
        {
          "name": "offset",
          "type": "uint256"
        },
        {
          "name": "buffer",
          "type": "bytes"
        }
      ],
      "name": "setData",
      "outputs": [],
      "payable": false,
      "stateMutability": "nonpayable",
      "type": "function"
    },
    {
      "constant": true,
      "inputs": [],
      "name": "getAllKeys",
      "outputs": [
        {
          "name": "out1",
          "type": "string"
        }
      ],
      "payable": false,
      "stateMutability": "view",
      "type": "function"
    },
    {
      "constant": true,
      "inputs": [],
      "name": "getAllValues",
      "outputs": [
        {
          "name": "out1",
          "type": "string"
        }
      ],
      "payable": false,
      "stateMutability": "view",
      "type": "function"
    },
    {
      "constant": true,
      "inputs": [],
      "name": "getProofHash",
      "outputs": [
        {
          "name": "",
          "type": "bytes32"
        }
      ],
      "payable": false,
      "stateMutability": "view",
      "type": "function"
    },
    {
      "constant": false,
      "inputs": [
        {
          "name": "key",
          "type": "string"
        },
        {
          "name": "value",
          "type": "string"
        }
      ],
      "name": "addEntry",
      "outputs": [],
      "payable": false,
      "stateMutability": "nonpayable",
      "type": "function"
    },
    {
      "constant": false,
      "inputs": [
        {
          "name": "key",
          "type": "string"
        },
        {
          "name": "value",
          "type": "string"
        }
      ],
      "name": "updateEntry",
      "outputs": [],
      "payable": false,
      "stateMutability": "nonpayable",
      "type": "function"
    },
    {
      "constant": false,
      "inputs": [
        {
          "name": "key",
          "type": "string"
        }
      ],
      "name": "deleteEntry",
      "outputs": [],
      "payable": false,
      "stateMutability": "nonpayable",
      "type": "function"
    },
    {
      "constant": false,
      "inputs": [
        {
          "name": "_writable",
          "type": "bool"
        },
        {
          "name": "key",
          "type": "string"
        }
      ],
      "name": "changeWritePermission",
      "outputs": [],
      "payable": false,
      "stateMutability": "nonpayable",
      "type": "function"
    },
    {
      "constant": true,
      "inputs": [
        {
          "name": "key",
          "type": "string"
        }
      ],
      "name": "getEntry",
      "outputs": [
        {
          "name": "",
          "type": "string"
        }
      ],
      "payable": false,
      "stateMutability": "view",
      "type": "function"
    },
    {
      "constant": true,
      "inputs": [
        {
          "name": "s1",
          "type": "string"
        }
      ],
      "name": "getKKHash",
      "outputs": [
        {
          "name": "",
          "type": "bytes32"
        }
      ],
      "payable": false,
      "stateMutability": "view",
      "type": "function"
    },
    {
      "constant": false,
      "inputs": [],
      "name": "deleteDocument",
      "outputs": [],
      "payable": false,
      "stateMutability": "nonpayable",
      "type": "function"
    }
  ],
  "bytecode": "0x608060405261016d6001557fffffffffffffffffffffffffffffffffffffffffffffffffffffffffffffffff6002556000600360006101000a81548160ff0219169083151502179055506000600360016101000a81548160ff02191690831515021790555060006004556000600760146101000a81548160ff021916908360ff1602179055506000600760156101000a81548160ff021916908360ff160217905550600a604051908082528060200260200182016040528015620000d25781602001602082028038833980820191505090505b5060099080519060200190620000ea92919062000641565b506000600c60006101000a81548160ff0219169083151502179055503480156200011357600080fd5b50604051620036343803806200363483398101806040528101908080518201929190602001805190602001909291908051906020019092919080519060200190929190805190602001909291908051820192919050505085858560ff1685601e600085518484846000841180156200018c5750600a8411155b15156200019857600080fd5b600083118015620001a95750600a83105b1515620001b557600080fd5b600082118015620001c557508181105b1515620001d157600080fd5b600094505b89518510156200038257600073ffffffffffffffffffffffffffffffffffffffff168a868151811015156200020757fe5b9060200190602002015173ffffffffffffffffffffffffffffffffffffffff16141580156200027a57503373ffffffffffffffffffffffffffffffffffffffff168a868151811015156200025757fe5b9060200190602002015173ffffffffffffffffffffffffffffffffffffffff1614155b15156200028357fe5b6001600860008c888151811015156200029857fe5b9060200190602002015173ffffffffffffffffffffffffffffffffffffffff1673ffffffffffffffffffffffffffffffffffffffff16815260200190815260200160002060000160006101000a81548160ff02191690831515021790555060098a868151811015156200030757fe5b9060200190602002015190806001815401808255809150509060018203906000526020600020016000909192909190916101000a81548173ffffffffffffffffffffffffffffffffffffffff021916908373ffffffffffffffffffffffffffffffffffffffff160217905550508480600101955050620001d6565b33600760006101000a81548173ffffffffffffffffffffffffffffffffffffffff021916908373ffffffffffffffffffffffffffffffffffffffff160217905550600160086000600760009054906101000a900473ffffffffffffffffffffffffffffffffffffffff1673ffffffffffffffffffffffffffffffffffffffff1673ffffffffffffffffffffffffffffffffffffffff16815260200190815260200160002060000160006101000a81548160ff0219169083151502179055506009600760009054906101000a900473ffffffffffffffffffffffffffffffffffffffff1690806001815401808255809150509060018203906000526020600020016000909192909190916101000a81548173ffffffffffffffffffffffffffffffffffffffff021916908373ffffffffffffffffffffffffffffffffffffffff1602179055505088600660006101000a81548173ffffffffffffffffffffffffffffffffffffffff021916908373ffffffffffffffffffffffffffffffffffffffff160217905550426000819055506000871462000520578662000523565b60005b60018190555060008714620005445762015180600154026000540162000548565b6002545b6002819055506001880160058190555062015180860260005401600481905550505050505050505050506200058d828262000599640100000000026401000000009004565b50505050505062000716565b600060605b60008411156200063b578383015191508163ffffffff166040519080825280601f01601f191660200182016040528015620005e85781602001602082028038833980820191505090505b509050600060016020840401905060006020840611156200060a576001810190505b60005b81811015620006335785850151602082028401526020860395506020810190506200060d565b50506200059e565b50505050565b828054828255906000526020600020908101928215620006bd579160200282015b82811115620006bc5782518260006101000a81548173ffffffffffffffffffffffffffffffffffffffff021916908373ffffffffffffffffffffffffffffffffffffffff1602179055509160200191906001019062000662565b5b509050620006cc9190620006d0565b5090565b6200071391905b808211156200070f57600081816101000a81549073ffffffffffffffffffffffffffffffffffffffff021916905550600101620006d7565b5090565b90565b612f0e80620007266000396000f3006080604052600436106101cd576000357c0100000000000000000000000000000000000000000000000000000000900463ffffffff16806317674544146101d25780631d1438481461023b57806322a151d41461029257806326f4490b146102bd5780632b7ac3f3146102d45780633034d20e1461032b57806333105218146103a05780633318d07c146103fb578063350f348f14610426578063351e8cc91461045557806340150816146104865780634665096d146104f75780634f9c1160146105225780634fb4e8331461059757806355e03373146106415780635ce308a7146106745780635f1a17a91461072357806362dfa1be1461073a57806380007e8314610765578063877b9a67146107945780638cd0670b146107ef578063930bced11461081e578063981f549914610849578063a6de5832146108d9578063b2f4bdb014610908578063b319c9e414610933578063b9f4be1e14610a15578063bbb82d8914610a88578063bc87eed314610ab7578063c1bbc7db14610b47578063c2797a3114610bcc578063c2cf90bf14610c72578063c63c5bd114610c89578063c88bcd2214610cf2578063d260679314610d21578063daabf2bd14610dd0578063f6e570e614610e01575b600080fd5b3480156101de57600080fd5b50610239600480360381019080803590602001908201803590602001908080601f0160208091040260200160405190810160405280939291908181526020018383808284378201915050505050509192919290505050610e2e565b005b34801561024757600080fd5b50610250610f9f565b604051808273ffffffffffffffffffffffffffffffffffffffff1673ffffffffffffffffffffffffffffffffffffffff16815260200191505060405180910390f35b34801561029e57600080fd5b506102a7610fc5565b6040518082815260200191505060405180910390f35b3480156102c957600080fd5b506102d2610fcb565b005b3480156102e057600080fd5b506102e96110d0565b604051808273ffffffffffffffffffffffffffffffffffffffff1673ffffffffffffffffffffffffffffffffffffffff16815260200191505060405180910390f35b34801561033757600080fd5b5061039e600480360381019080803515159060200190929190803590602001908201803590602001908080601f01602080910402602001604051908101604052809392919081815260200183838082843782019150505050505091929192905050506110f6565b005b3480156103ac57600080fd5b506103e1600480360381019080803573ffffffffffffffffffffffffffffffffffffffff169060200190929190505050611392565b604051808215151515815260200191505060405180910390f35b34801561040757600080fd5b506104106113ec565b6040518082815260200191505060405180910390f35b34801561043257600080fd5b5061043b6113f2565b604051808215151515815260200191505060405180910390f35b34801561046157600080fd5b5061046a6114dd565b604051808260ff1660ff16815260200191505060405180910390f35b34801561049257600080fd5b506104c7600480360381019080803573ffffffffffffffffffffffffffffffffffffffff1690602001909291905050506114f0565b60405180841515151581526020018315151515815260200182151515158152602001935050505060405180910390f35b34801561050357600080fd5b5061050c611541565b6040518082815260200191505060405180910390f35b34801561052e57600080fd5b50610595600480360381019080803515159060200190929190803590602001908201803590602001908080601f0160208091040260200160405190810160405280939291908181526020018383808284378201915050505050509192919290505050611547565b005b3480156105a357600080fd5b506105c66004803603810190808035600019169060200190929190505050611674565b6040518080602001828103825283818151815260200191508051906020019080838360005b838110156106065780820151818401526020810190506105eb565b50505050905090810190601f1680156106335780820380516001836020036101000a031916815260200191505b509250505060405180910390f35b34801561064d57600080fd5b50610656611724565b60405180826000191660001916815260200191505060405180910390f35b34801561068057600080fd5b50610721600480360381019080803590602001908201803590602001908080601f0160208091040260200160405190810160405280939291908181526020018383808284378201915050505050509192919290803590602001908201803590602001908080601f0160208091040260200160405190810160405280939291908181526020018383808284378201915050505050509192919290505050611801565b005b34801561072f57600080fd5b50610738611a08565b005b34801561074657600080fd5b5061074f611b14565b6040518082815260200191505060405180910390f35b34801561077157600080fd5b5061077a611b19565b604051808215151515815260200191505060405180910390f35b3480156107a057600080fd5b506107d5600480360381019080803573ffffffffffffffffffffffffffffffffffffffff169060200190929190505050611b30565b604051808215151515815260200191505060405180910390f35b3480156107fb57600080fd5b50610804611b8a565b604051808215151515815260200191505060405180910390f35b34801561082a57600080fd5b50610833611c3a565b6040518082815260200191505060405180910390f35b34801561085557600080fd5b5061085e611c40565b6040518080602001828103825283818151815260200191508051906020019080838360005b8381101561089e578082015181840152602081019050610883565b50505050905090810190601f1680156108cb5780820380516001836020036101000a031916815260200191505b509250505060405180910390f35b3480156108e557600080fd5b506108ee611e12565b604051808215151515815260200191505060405180910390f35b34801561091457600080fd5b5061091d611e25565b6040518082815260200191505060405180910390f35b34801561093f57600080fd5b5061099a600480360381019080803590602001908201803590602001908080601f0160208091040260200160405190810160405280939291908181526020018383808284378201915050505050509192919290505050611e2b565b6040518080602001828103825283818151815260200191508051906020019080838360005b838110156109da5780820151818401526020810190506109bf565b50505050905090810190601f168015610a075780820380516001836020036101000a031916815260200191505b509250505060405180910390f35b348015610a2157600080fd5b50610a8660048036038101908080359060200190929190803590602001908201803590602001908080601f0160208091040260200160405190810160405280939291908181526020018383808284378201915050505050509192919290505050611ef8565b005b348015610a9457600080fd5b50610a9d611f9a565b604051808215151515815260200191505060405180910390f35b348015610ac357600080fd5b50610acc611fad565b6040518080602001828103825283818151815260200191508051906020019080838360005b83811015610b0c578082015181840152602081019050610af1565b50505050905090810190601f168015610b395780820380516001836020036101000a031916815260200191505b509250505060405180910390f35b348015610b5357600080fd5b50610bae600480360381019080803590602001908201803590602001908080601f016020809104026020016040519081016040528093929190818152602001838380828437820191505050505050919291929050505061210c565b60405180826000191660001916815260200191505060405180910390f35b348015610bd857600080fd5b50610bf760048036038101908080359060200190929190505050612214565b6040518080602001828103825283818151815260200191508051906020019080838360005b83811015610c37578082015181840152602081019050610c1c565b50505050905090810190601f168015610c645780820380516001836020036101000a031916815260200191505b509250505060405180910390f35b348015610c7e57600080fd5b50610c876122cf565b005b348015610c9557600080fd5b50610cf0600480360381019080803590602001908201803590602001908080601f0160208091040260200160405190810160405280939291908181526020018383808284378201915050505050509192919290505050612389565b005b348015610cfe57600080fd5b50610d076126e5565b604051808215151515815260200191505060405180910390f35b348015610d2d57600080fd5b50610dce600480360381019080803590602001908201803590602001908080601f0160208091040260200160405190810160405280939291908181526020018383808284378201915050505050509192919290803590602001908201803590602001908080601f01602080910402602001604051908101604052809392919081815260200183838082843782019150505050505091929192905050506126f8565b005b348015610ddc57600080fd5b50610de56128c1565b604051808260ff1660ff16815260200191505060405180910390f35b348015610e0d57600080fd5b50610e2c600480360381019080803590602001909291905050506128d4565b005b60045442101515610e3e57600080fd5b600c60009054906101000a900460ff161515610e5657fe5b3373ffffffffffffffffffffffffffffffffffffffff16600760009054906101000a900473ffffffffffffffffffffffffffffffffffffffff1673ffffffffffffffffffffffffffffffffffffffff16141515610eb257600080fd5b600a6000610ec7610ec2846129bc565b6129ea565b600019166000191681526020019081526020016000206000610ee99190612ddb565b3073ffffffffffffffffffffffffffffffffffffffff167f9db365c920fe9181ff90a5267a74a6c0c2954b878ae78f6ab57bed0c2bd5c239826040518080602001828103825283818151815260200191508051906020019080838360005b83811015610f62578082015181840152602081019050610f47565b50505050905090810190601f168015610f8f5780820380516001836020036101000a031916815260200191505b509250505060405180910390a250565b600760009054906101000a900473ffffffffffffffffffffffffffffffffffffffff1681565b60055481565b60025442111515610fdb57600080fd5b3373ffffffffffffffffffffffffffffffffffffffff16600660009054906101000a900473ffffffffffffffffffffffffffffffffffffffff1673ffffffffffffffffffffffffffffffffffffffff1614151561103757600080fd5b6000600360016101000a81548160ff0219169083151502179055503073ffffffffffffffffffffffffffffffffffffffff16600660009054906101000a900473ffffffffffffffffffffffffffffffffffffffff1673ffffffffffffffffffffffffffffffffffffffff167f6461d55e3edc9ce5c9c80d7bfb1a6fbcb71312efa790a6687225eadf3bdaffaf60405160405180910390a3565b600660009054906101000a900473ffffffffffffffffffffffffffffffffffffffff1681565b6000611205826111f33086604051602001808373ffffffffffffffffffffffffffffffffffffffff1673ffffffffffffffffffffffffffffffffffffffff166c0100000000000000000000000002815260140182151515157f0100000000000000000000000000000000000000000000000000000000000000028152600101925050506040516020818303038152906040526040518082805190602001908083835b6020831015156111bd5780518252602082019150602081019050602083039250611198565b6001836020036101000a0380198251168184511680821785525050505050509050019150506040518091039020600019166129fb565b60001916612a4a90919063ffffffff16565b9050600860008273ffffffffffffffffffffffffffffffffffffffff1673ffffffffffffffffffffffffffffffffffffffff16815260200190815260200160002060000160009054906101000a900460ff16151561125f57fe5b600860008273ffffffffffffffffffffffffffffffffffffffff1673ffffffffffffffffffffffffffffffffffffffff16815260200190815260200160002060000160019054906101000a900460ff1615156112b757fe5b82600860008373ffffffffffffffffffffffffffffffffffffffff1673ffffffffffffffffffffffffffffffffffffffff16815260200190815260200160002060000160026101000a81548160ff021916908315150217905550600660009054906101000a900473ffffffffffffffffffffffffffffffffffffffff1673ffffffffffffffffffffffffffffffffffffffff163073ffffffffffffffffffffffffffffffffffffffff167fb9f6e448b49729be08881707bf32b32df91dc5e5fd36f5bfb05816b413591cdb60405160405180910390a3505050565b60008173ffffffffffffffffffffffffffffffffffffffff16600660009054906101000a900473ffffffffffffffffffffffffffffffffffffffff1673ffffffffffffffffffffffffffffffffffffffff16149050919050565b60015481565b6000806000809150600090505b6009805490508160ff1610156114bd57600115156008600060098460ff1681548110151561142957fe5b9060005260206000200160009054906101000a900473ffffffffffffffffffffffffffffffffffffffff1673ffffffffffffffffffffffffffffffffffffffff1673ffffffffffffffffffffffffffffffffffffffff16815260200190815260200160002060000160029054906101000a900460ff16151514156114b05781806001019250505b80806001019150506113ff565b6005548260ff1610156114d357600092506114d8565b600192505b505090565b600760149054906101000a900460ff1681565b60086020528060005260406000206000915090508060000160009054906101000a900460ff16908060000160019054906101000a900460ff16908060000160029054906101000a900460ff16905083565b60025481565b3373ffffffffffffffffffffffffffffffffffffffff16600660009054906101000a900473ffffffffffffffffffffffffffffffffffffffff1673ffffffffffffffffffffffffffffffffffffffff161415156115a357600080fd5b81600c60006101000a81548160ff0219169083151502179055503073ffffffffffffffffffffffffffffffffffffffff167fcd418e9e4619655d848c242ba583f7bcd1f74bb3a658a3bbaf6ac569fc4b9347826040518080602001828103825283818151815260200191508051906020019080838360005b8381101561163657808201518184015260208101905061161b565b50505050905090810190601f1680156116635780820380516001836020036101000a031916815260200191505b509250505060405180910390a25050565b600a6020528060005260406000206000915090508054600181600116156101000203166002900480601f01602080910402602001604051908101604052809291908181526020018280546001816001161561010002031660029004801561171c5780601f106116f15761010080835404028352916020019161171c565b820191906000526020600020905b8154815290600101906020018083116116ff57829003601f168201915b505050505081565b600061172e611c40565b6040516020018082805190602001908083835b6020831015156117665780518252602082019150602081019050602083039250611741565b6001836020036101000a0380198251168184511680821785525050505050509050019150506040516020818303038152906040526040518082805190602001908083835b6020831015156117cf57805182526020820191506020810190506020830392506117aa565b6001836020036101000a0380198251168184511680821785525050505050509050019150506040518091039020905090565b600c60009054906101000a900460ff16151561181957fe5b816000600a600061183161182c856129bc565b6129ea565b6000191660001916815260200190815260200160002080546001816001161561010002031660029004905014151561186557fe5b6004544210151561187557600080fd5b3373ffffffffffffffffffffffffffffffffffffffff16600760009054906101000a900473ffffffffffffffffffffffffffffffffffffffff1673ffffffffffffffffffffffffffffffffffffffff161415156118d157600080fd5b81600a60006118e76118e2876129bc565b6129ea565b600019166000191681526020019081526020016000209080519060200190611910929190612e23565b50600b83908060018154018082558091505090600182039060005260206000200160009091929091909150908051906020019061194e929190612e23565b50503073ffffffffffffffffffffffffffffffffffffffff167f9baebac67931fa0302d3f9793c844ce81f856decfd277712c216329f3df90e0b846040518080602001828103825283818151815260200191508051906020019080838360005b838110156119c95780820151818401526020810190506119ae565b50505050905090810190601f1680156119f65780820380516001836020036101000a031916815260200191505b509250505060405180910390a2505050565b600360019054906101000a900460ff16151515611a2157fe5b3373ffffffffffffffffffffffffffffffffffffffff16600660009054906101000a900473ffffffffffffffffffffffffffffffffffffffff1673ffffffffffffffffffffffffffffffffffffffff16141515611a7d57600080fd5b60045442111515611a8d57600080fd5b611a95611b8a565b1515611a9d57fe5b6001600360016101000a81548160ff0219169083151502179055503073ffffffffffffffffffffffffffffffffffffffff163373ffffffffffffffffffffffffffffffffffffffff167f67dbe849a9c7e4fbbaa3c0610c9348e4b4d0470fab72b7c3d587be9ef3014c4360405160405180910390a3565b600a81565b6000600360019054906101000a900460ff16905090565b60008173ffffffffffffffffffffffffffffffffffffffff16600760009054906101000a900473ffffffffffffffffffffffffffffffffffffffff1673ffffffffffffffffffffffffffffffffffffffff16149050919050565b600060086000600760009054906101000a900473ffffffffffffffffffffffffffffffffffffffff1673ffffffffffffffffffffffffffffffffffffffff1673ffffffffffffffffffffffffffffffffffffffff16815260200190815260200160002060000160019054906101000a900460ff161515611c0d5760009050611c37565b600554600760149054906101000a900460ff1660ff161015611c325760009050611c37565b600190505b90565b60045481565b606060006060600091505b600b805490508263ffffffff161015611e0d57600a6000611d2a611d25600b8663ffffffff16815481101515611c7d57fe5b906000526020600020018054600181600116156101000203166002900480601f016020809104026020016040519081016040528092919081815260200182805460018160011615610100020316600290048015611d1b5780601f10611cf057610100808354040283529160200191611d1b565b820191906000526020600020905b815481529060010190602001808311611cfe57829003601f168201915b50505050506129bc565b6129ea565b600019166000191681526020019081526020016000208054600181600116156101000203166002900480601f016020809104026020016040519081016040528092919081815260200182805460018160011615610100020316600290048015611dd45780601f10611da957610100808354040283529160200191611dd4565b820191906000526020600020905b815481529060010190602001808311611db757829003601f168201915b50505050509050611dfe611de7826129bc565b611df0856129bc565b612b4290919063ffffffff16565b92508180600101925050611c4b565b505090565b600360009054906101000a900460ff1681565b60005481565b6060600a6000611e42611e3d856129bc565b6129ea565b600019166000191681526020019081526020016000208054600181600116156101000203166002900480601f016020809104026020016040519081016040528092919081815260200182805460018160011615610100020316600290048015611eec5780601f10611ec157610100808354040283529160200191611eec565b820191906000526020600020905b815481529060010190602001808311611ecf57829003601f168201915b50505050509050919050565b600060605b6000841115611f94578383015191508163ffffffff166040519080825280601f01601f191660200182016040528015611f455781602001602082028038833980820191505090505b50905060006001602084040190506000602084061115611f66576001810190505b60005b81811015611f8d578585015160208202840152602086039550602081019050611f69565b5050611efd565b50505050565b600360019054906101000a900460ff1681565b606060008090505b600b805490508163ffffffff161015612108576120f96120096040805190810160405280600181526020017f3b000000000000000000000000000000000000000000000000000000000000008152506129bc565b6120eb6120e66120cf600b8663ffffffff1681548110151561202757fe5b906000526020600020018054600181600116156101000203166002900480601f0160208091040260200160405190810160405280929190818152602001828054600181600116156101000203166002900480156120c55780601f1061209a576101008083540402835291602001916120c5565b820191906000526020600020905b8154815290600101906020018083116120a857829003601f168201915b50505050506129bc565b6120d8876129bc565b612b4290919063ffffffff16565b6129bc565b612b4290919063ffffffff16565b91508080600101915050611fb5565b5090565b6000600a600061212361211e856129bc565b6129ea565b6000191660001916815260200190815260200160002060405160200180828054600181600116156101000203166002900480156121975780601f10612175576101008083540402835291820191612197565b820191906000526020600020905b815481529060010190602001808311612183575b50509150506040516020818303038152906040526040518082805190602001908083835b6020831015156121e057805182526020820191506020810190506020830392506121bb565b6001836020036101000a03801982511681845116808217855250505050505090500191505060405180910390209050919050565b600b8181548110151561222357fe5b906000526020600020016000915090508054600181600116156101000203166002900480601f0160208091040260200160405190810160405280929190818152602001828054600181600116156101000203166002900480156122c75780601f1061229c576101008083540402835291602001916122c7565b820191906000526020600020905b8154815290600101906020018083116122aa57829003601f168201915b505050505081565b600254421115156122df57600080fd5b6122e76113f2565b15156122f257600080fd5b33600860008273ffffffffffffffffffffffffffffffffffffffff1673ffffffffffffffffffffffffffffffffffffffff16815260200190815260200160002060000160009054906101000a900460ff16151561234e57600080fd5b600760009054906101000a900473ffffffffffffffffffffffffffffffffffffffff1673ffffffffffffffffffffffffffffffffffffffff16ff5b60006004544211151561239b57600080fd5b6123a482612bc4565b151561247b577fc18ad75b56934a79fbdc8a290004a37a45fefb023648128bf56aa146e917f46933604051808273ffffffffffffffffffffffffffffffffffffffff1673ffffffffffffffffffffffffffffffffffffffff16815260200191505060405180910390a16040517f08c379a00000000000000000000000000000000000000000000000000000000081526004018080602001828103825260208152602001807f5375626d697474696e67207369676e617475726520697320696e76616c69642181525060200191505060405180910390fd5b6125d6826125c430600660009054906101000a900473ffffffffffffffffffffffffffffffffffffffff166124ae611724565b604051602001808473ffffffffffffffffffffffffffffffffffffffff1673ffffffffffffffffffffffffffffffffffffffff166c010000000000000000000000000281526014018373ffffffffffffffffffffffffffffffffffffffff1673ffffffffffffffffffffffffffffffffffffffff166c01000000000000000000000000028152601401826000191660001916815260200193505050506040516020818303038152906040526040518082805190602001908083835b60208310151561258e5780518252602082019150602081019050602083039250612569565b6001836020036101000a0380198251168184511680821785525050505050509050019150506040518091039020600019166129fb565b60001916612a4a90919063ffffffff16565b90506001600860008373ffffffffffffffffffffffffffffffffffffffff1673ffffffffffffffffffffffffffffffffffffffff16815260200190815260200160002060000160016101000a81548160ff0219169083151502179055506007601481819054906101000a900460ff168092919060010191906101000a81548160ff021916908360ff16021790555050600660009054906101000a900473ffffffffffffffffffffffffffffffffffffffff1673ffffffffffffffffffffffffffffffffffffffff163073ffffffffffffffffffffffffffffffffffffffff167fc2bf16530f348dc1b17eea7985ab72810b756cc5fb003750246145c6aa940f2060405160405180910390a35050565b600c60009054906101000a900460ff1681565b600c60009054906101000a900460ff16151561271057fe5b6004544210151561272057600080fd5b816000600a6000612738612733856129bc565b6129ea565b600019166000191681526020019081526020016000208054600181600116156101000203166002900490501415151561276d57fe5b3373ffffffffffffffffffffffffffffffffffffffff16600760009054906101000a900473ffffffffffffffffffffffffffffffffffffffff1673ffffffffffffffffffffffffffffffffffffffff161415156127c957600080fd5b81600a60006127df6127da876129bc565b6129ea565b600019166000191681526020019081526020016000209080519060200190612808929190612e23565b503073ffffffffffffffffffffffffffffffffffffffff167f9baebac67931fa0302d3f9793c844ce81f856decfd277712c216329f3df90e0b846040518080602001828103825283818151815260200191508051906020019080838360005b83811015612882578082015181840152602081019050612867565b50505050905090810190601f1680156128af5780820380516001836020036101000a031916815260200191505b509250505060405180910390a2505050565b600760159054906101000a900460ff1681565b3373ffffffffffffffffffffffffffffffffffffffff16600660009054906101000a900473ffffffffffffffffffffffffffffffffffffffff1673ffffffffffffffffffffffffffffffffffffffff1614151561293057600080fd5b6004544210151561294057600080fd5b600360019054906101000a900460ff1615151561295957fe5b60008111801561296d575060098054905081105b151561297857600080fd5b807f75f1bf5e48fe4895f88b4bf88e36054829d7be3dc6ef5a755296e910f631cb8b6005546040518082815260200191505060405180910390a28060058190555050565b6129c4612ea3565b600060208301905060408051908101604052808451815260200182815250915050919050565b600081516020830151209050919050565b60008160405180807f19457468657265756d205369676e6564204d6573736167653a0a333200000000815250601c01826000191660001916815260200191505060405180910390209050919050565b60008060008060418551141515612a645760009350612b39565b6020850151925060408501519150606085015160001a9050601b8160ff161015612a8f57601b810190505b601b8160ff1614158015612aa75750601c8160ff1614155b15612ab55760009350612b39565b600186828585604051600081526020016040526040518085600019166000191681526020018460ff1660ff1681526020018360001916600019168152602001826000191660001916815260200194505050505060206040516020810390808403906000865af1158015612b2c573d6000803e3d6000fd5b5050506020604051035193505b50505092915050565b606080600083600001518560000151016040519080825280601f01601f191660200182016040528015612b845781602001602082028038833980820191505090505b509150602082019050612ba08186602001518760000151612d0f565b612bb98560000151820185602001518660000151612d0f565b819250505092915050565b6000612d0830600660009054906101000a900473ffffffffffffffffffffffffffffffffffffffff16612bf5611724565b604051602001808473ffffffffffffffffffffffffffffffffffffffff1673ffffffffffffffffffffffffffffffffffffffff166c010000000000000000000000000281526014018373ffffffffffffffffffffffffffffffffffffffff1673ffffffffffffffffffffffffffffffffffffffff166c01000000000000000000000000028152601401826000191660001916815260200193505050506040516020818303038152906040526040518082805190602001908083835b602083101515612cd55780518252602082019150602081019050602083039250612cb0565b6001836020036101000a038019825116818451168082178552505050505050905001915050604051809103902083612d5a565b9050919050565b60005b602082101515612d375782518452602084019350602083019250602082039150612d12565b6001826020036101000a0390508019835116818551168181178652505050505050565b600080612d8083612d6e86600019166129fb565b60001916612a4a90919063ffffffff16565b9050600860008273ffffffffffffffffffffffffffffffffffffffff1673ffffffffffffffffffffffffffffffffffffffff16815260200190815260200160002060000160009054906101000a900460ff1691505092915050565b50805460018160011615610100020316600290046000825580601f10612e015750612e20565b601f016020900490600052602060002090810190612e1f9190612ebd565b5b50565b828054600181600116156101000203166002900490600052602060002090601f016020900481019282601f10612e6457805160ff1916838001178555612e92565b82800160010185558215612e92579182015b82811115612e91578251825591602001919060010190612e76565b5b509050612e9f9190612ebd565b5090565b604080519081016040528060008152602001600081525090565b612edf91905b80821115612edb576000816000905550600101612ec3565b5090565b905600a165627a7a723058206047280552bdceee13b4cafe78600f9850be4086f70732f17c913496bf9598190029",
  "source": "pragma solidity ^0.4.24;\n\nimport \"./MultiSigDocument.sol\";\nimport \"./lib/BytesToTypes.sol\";\nimport \"./lib/SizeOf.sol\";\nimport \"./lib/strings.sol\";\n\n\ncontract MultiSigDocumentWithStorage is MultiSigDocument, ILockableStorage, BytesToTypes, SizeOf {\n  using strings for *;\n  string constant NULL_CHAR = '\\u0000';\n  //Data\n  mapping (bytes32 => string) public entryStorage;\n  // A long string contains all of the key allKeysInString\n  /* string public allKeysInString; */\n\n  string[] public entryKeys;\n  bool public writable = false;\n\n  constructor(\n    address[] signers,\n    address verifier,\n    uint8 required,\n    uint effectiveDurationInDay,\n    uint offset,\n    bytes buffer\n    )\n  MultiSigDocument(signers, verifier, required, effectiveDurationInDay, 30)\n  /* validEntriesLength(entryKeys.length, entryValues.length) */\n  public\n  {\n    /* allKeysInString = _enntryStr; */\n    setData(offset, buffer);\n  }\n\n  modifier entryNotExisted(string memory entryKey) {\n    assert(bytes(entryStorage[entryKey.toSlice().keccak()]).length == 0);\n    _;\n  }\n\n  modifier entryExisted(string memory entryKey) {\n    assert(bytes(entryStorage[entryKey.toSlice().keccak()]).length != 0);\n    _;\n  }\n  modifier isWritable() {\n    assert(writable);\n    _;\n  }\n  event LogString(uint l1, string  s1);\n  function setData(uint offset, bytes memory buffer)\n    public\n  {\n    // Support only  value string with more than 32 chars\n    while(offset > 0) {\n      uint32 size;\n\n      assembly {\n         // Get the length of string in first 32-byte word from the end of buffer\n         size := mload(add(buffer, offset))\n\n      }\n      string memory strVal = new string(size);\n\n      assembly {\n        let word_count\n\n        word_count := add(div(size,0x20), 1)\n          // If string length > 32, then it needs more then 1 word to store\n        if gt(mod(size, 0x20), 0) {\n          word_count := add(word_count,1)\n        }\n        for { let i := 0 } lt(i, word_count) { i := add(i, 0x20) } {\n            /* x := add(x, mload(i)) */\n          mstore(add(strVal,mul(i, 0x20)),mload(add(buffer,offset)))\n          offset:= sub(offset, 0x20)\n            /* _offst := sub(_offst,32)  */\n        }\n      }\n      /* string memory valueStr = new string(getStringSize(offset, buffer));\n      bytesToString(offset, buffer, bytes(valueStr));\n      offset -= sizeOfString(valueStr);\n      emit LogString(sizeOfString(valueStr),valueStr);\n\n      string memory keyStr = new string(getStringSize(offset, buffer));\n      bytesToString(offset, buffer, bytes(keyStr));\n      offset -= sizeOfString(keyStr);\n\n\n      string memory strippedVal = valueStr.toSlice().split(NULL_CHAR.toSlice()).toString();\n\n      entryStorage[keyStr.toSlice().keccak()] = strippedVal;\n      entryKeys.push(keyStr); */\n    }\n  }\n\n\n  function getAllKeys()\n    public\n    view\n    returns (string memory out1)\n  {\n    for(uint32 i = 0 ; i < entryKeys.length; i++)\n    {\n      out1 = out1.toSlice().concat(entryKeys[i].toSlice()).toSlice().concat(\";\".toSlice());\n    }\n  }\n\n  function getAllValues()\n    public\n    view\n    returns (string memory out1)\n  {\n    for(uint32 i = 0 ; i < entryKeys.length; i++)\n    {\n      string memory s = entryStorage[entryKeys[i].toSlice().keccak()];\n      out1 = out1.toSlice().concat(s.toSlice());\n    }\n  }\n\n  function getProofHash()\n    public\n    view\n    returns (bytes32)\n  {\n    return keccak256(abi.encodePacked(getAllValues()));\n  }\n\n  function addEntry(string memory key, string value)\n    public\n    isWritable()\n    entryNotExisted(key)\n    beforeModificationDeadline()\n    onlyIssuer()\n  {\n    entryStorage[key.toSlice().keccak()] = value;\n    /* string memory tmp = allKeysInString.toSlice().concat(\",\".toSlice());//.toSlice().concat(key.toSlice()); */\n    entryKeys.push(key);\n    emit EntrySet(address(this), key);\n  }\n\n  function updateEntry(string memory key, string value)\n    public\n    isWritable()\n    beforeModificationDeadline()\n    entryExisted(key)\n    onlyIssuer()\n  {\n    entryStorage[key.toSlice().keccak()] = value;\n    emit EntrySet(address(this), key);\n  }\n\n  function deleteEntry(string memory key)\n    public\n    beforeModificationDeadline()\n    isWritable()\n    onlyIssuer()\n  {\n    delete entryStorage[key.toSlice().keccak()]; //set entry to Default value of its type\n    emit EntryDeleted(address(this), key);\n  }\n\n  function changeWritePermission(bool _writable, string memory key)\n    public\n    /* beforeModificationDeadline() */\n    onlyVerifier()\n  {\n    writable = _writable;\n    emit EntryUpdateRequest(address(this), key);\n  }\n\n  function getEntry(string memory key)\n    public\n    view\n    returns (string)\n  {\n    return entryStorage[key.toSlice().keccak()];\n  }\n  function getKKHash(string memory s1)\n    public\n    view\n    returns (bytes32)\n  {\n    return keccak256(abi.encodePacked(entryStorage[s1.toSlice().keccak()]));\n  }\n\n  function deleteDocument()\n      public\n      isExpired()\n      allowDelete()\n      signerExists(msg.sender)\n  {\n      // Refund all Ethers back to issuer\n      selfdestruct(issuer);\n  }\n  // GDPR\n  function deleteData()\n      internal\n  {\n\n  }\n\n}\n",
  "sourcePath": "/Users/henry/ws/digicert/contracts/MultiSigDocumentWithStorage.sol",
  "compiler": {
    "name": "solc",
    "version": "0.4.24+commit.e67f0147.Emscripten.clang"
  },
  "schemaVersion": "2.0.1",
  "updatedAt": "2018-07-19T10:56:34.862Z"
}