{
  "contractName": "MultiSigDocumentRegistry",
  "abi": [
    {
      "constant": true,
      "inputs": [
        {
          "name": "",
          "type": "address"
        }
      ],
      "name": "verifierInfo",
      "outputs": [
        {
          "name": "isVerifier",
          "type": "bool"
        },
        {
          "name": "Name",
          "type": "string"
        },
        {
          "name": "Email",
          "type": "string"
        }
      ],
      "payable": false,
      "stateMutability": "view",
      "type": "function"
    },
    {
      "constant": true,
      "inputs": [
        {
          "name": "",
          "type": "address"
        },
        {
          "name": "",
          "type": "uint256"
        }
      ],
      "name": "docVault",
      "outputs": [
        {
          "name": "",
          "type": "address"
        }
      ],
      "payable": false,
      "stateMutability": "view",
      "type": "function"
    },
    {
      "inputs": [],
      "payable": false,
      "stateMutability": "nonpayable",
      "type": "constructor"
    },
    {
      "anonymous": false,
      "inputs": [
        {
          "indexed": true,
          "name": "issuer",
          "type": "address"
        },
        {
          "indexed": true,
          "name": "docAddr",
          "type": "address"
        }
      ],
      "name": "DocumentIndexed",
      "type": "event"
    },
    {
      "anonymous": false,
      "inputs": [
        {
          "indexed": true,
          "name": "issuer",
          "type": "address"
        },
        {
          "indexed": true,
          "name": "docAddr",
          "type": "address"
        }
      ],
      "name": "DocumentCreated",
      "type": "event"
    },
    {
      "anonymous": false,
      "inputs": [
        {
          "indexed": true,
          "name": "issuer",
          "type": "address"
        }
      ],
      "name": "VerifierRegistration",
      "type": "event"
    },
    {
      "constant": false,
      "inputs": [
        {
          "name": "_name",
          "type": "string"
        },
        {
          "name": "_email",
          "type": "string"
        }
      ],
      "name": "registerVerifier",
      "outputs": [],
      "payable": false,
      "stateMutability": "nonpayable",
      "type": "function"
    },
    {
      "constant": false,
      "inputs": [
        {
          "name": "signers",
          "type": "address[]"
        },
        {
          "name": "verifier",
          "type": "address"
        },
        {
          "name": "required",
          "type": "uint8"
        },
        {
          "name": "validDays",
          "type": "uint256"
        },
        {
          "name": "offset",
          "type": "uint256"
        },
        {
          "name": "buffer",
          "type": "bytes"
        }
      ],
      "name": "createDocument",
      "outputs": [
        {
          "name": "",
          "type": "address"
        }
      ],
      "payable": false,
      "stateMutability": "nonpayable",
      "type": "function"
    },
    {
      "constant": false,
      "inputs": [
        {
          "name": "doc",
          "type": "address"
        }
      ],
      "name": "setDocument",
      "outputs": [],
      "payable": false,
      "stateMutability": "nonpayable",
      "type": "function"
    },
    {
      "constant": true,
      "inputs": [
        {
          "name": "addr",
          "type": "address"
        },
        {
          "name": "docId",
          "type": "uint256"
        }
      ],
      "name": "isVerified",
      "outputs": [
        {
          "name": "",
          "type": "bool"
        }
      ],
      "payable": false,
      "stateMutability": "view",
      "type": "function"
    },
    {
      "constant": true,
      "inputs": [
        {
          "name": "issuer",
          "type": "address"
        },
        {
          "name": "docId",
          "type": "uint256"
        },
        {
          "name": "key",
          "type": "string"
        }
      ],
      "name": "getEntry",
      "outputs": [
        {
          "name": "",
          "type": "string"
        }
      ],
      "payable": false,
      "stateMutability": "view",
      "type": "function"
    },
    {
      "constant": true,
      "inputs": [
        {
          "name": "issuer",
          "type": "address"
        },
        {
          "name": "docId",
          "type": "uint256"
        }
      ],
      "name": "getProofHash",
      "outputs": [
        {
          "name": "",
          "type": "bytes32"
        }
      ],
      "payable": false,
      "stateMutability": "view",
      "type": "function"
    }
  ],
  "bytecode": "0x608060405234801561001057600080fd5b50614bd0806100206000396000f30060806040526004361062000097576000357c0100000000000000000000000000000000000000000000000000000000900463ffffffff168063019dab67146200009c578063197fbfe414620001cc5780631a2097761462000308578063385034f8146200037057806353183870146200048257806372e3170c14620004ee578063889d5b91146200057e578063b1fe911a1462000630575b600080fd5b348015620000a957600080fd5b506200018a60048036038101908080359060200190820180359060200190808060200260200160405190810160405280939291908181526020018383602002808284378201915050505050509192919290803573ffffffffffffffffffffffffffffffffffffffff169060200190929190803560ff1690602001909291908035906020019092919080359060200190929190803590602001908201803590602001908080601f016020809104026020016040519081016040528093929190818152602001838380828437820191505050505050919291929050505062000676565b604051808273ffffffffffffffffffffffffffffffffffffffff1673ffffffffffffffffffffffffffffffffffffffff16815260200191505060405180910390f35b348015620001d957600080fd5b5062000210600480360381019080803573ffffffffffffffffffffffffffffffffffffffff16906020019092919050505062000b22565b60405180841515151581526020018060200180602001838103835285818151815260200191508051906020019080838360005b838110156200026057808201518184015260208101905062000243565b50505050905090810190601f1680156200028e5780820380516001836020036101000a031916815260200191505b50838103825284818151815260200191508051906020019080838360005b83811015620002c9578082015181840152602081019050620002ac565b50505050905090810190601f168015620002f75780820380516001836020036101000a031916815260200191505b509550505050505060405180910390f35b3480156200031557600080fd5b5062000356600480360381019080803573ffffffffffffffffffffffffffffffffffffffff1690602001909291908035906020019092919050505062000c91565b604051808215151515815260200191505060405180910390f35b3480156200037d57600080fd5b5062000404600480360381019080803573ffffffffffffffffffffffffffffffffffffffff16906020019092919080359060200190929190803590602001908201803590602001908080601f016020809104026020016040519081016040528093929190818152602001838380828437820191505050505050919291929050505062000dad565b6040518080602001828103825283818151815260200191508051906020019080838360005b838110156200044657808201518184015260208101905062000429565b50505050905090810190601f168015620004745780820380516001836020036101000a031916815260200191505b509250505060405180910390f35b3480156200048f57600080fd5b50620004d0600480360381019080803573ffffffffffffffffffffffffffffffffffffffff1690602001909291908035906020019092919050505062000f96565b60405180826000191660001916815260200191505060405180910390f35b348015620004fb57600080fd5b506200053c600480360381019080803573ffffffffffffffffffffffffffffffffffffffff16906020019092919080359060200190929190505050620010b2565b604051808273ffffffffffffffffffffffffffffffffffffffff1673ffffffffffffffffffffffffffffffffffffffff16815260200191505060405180910390f35b3480156200058b57600080fd5b506200062e600480360381019080803590602001908201803590602001908080601f0160208091040260200160405190810160405280939291908181526020018383808284378201915050505050509192919290803590602001908201803590602001908080601f0160208091040260200160405190810160405280939291908181526020018383808284378201915050505050509192919290505050620010f4565b005b3480156200063d57600080fd5b5062000674600480360381019080803573ffffffffffffffffffffffffffffffffffffffff1690602001909291905050506200121b565b005b6000856000808273ffffffffffffffffffffffffffffffffffffffff1673ffffffffffffffffffffffffffffffffffffffff16815260200190815260200160002060000160009054906101000a900460ff161515620006d157fe5b878787878787620006e1620014b0565b80806020018773ffffffffffffffffffffffffffffffffffffffff1673ffffffffffffffffffffffffffffffffffffffff1681526020018660ff1660ff16815260200185815260200184815260200180602001838103835289818151815260200191508051906020019060200280838360005b838110156200077157808201518184015260208101905062000754565b50505050905001838103825284818151815260200191508051906020019080838360005b83811015620007b257808201518184015260208101905062000795565b50505050905090810190601f168015620007e05780820380516001836020036101000a031916815260200191505b5098505050505050505050604051809103906000f08015801562000808573d6000803e3d6000fd5b50600160003373ffffffffffffffffffffffffffffffffffffffff1673ffffffffffffffffffffffffffffffffffffffff1681526020019081526020016000206000600260003373ffffffffffffffffffffffffffffffffffffffff1673ffffffffffffffffffffffffffffffffffffffff16815260200190815260200160002054815260200190815260200160002060006101000a81548173ffffffffffffffffffffffffffffffffffffffff021916908373ffffffffffffffffffffffffffffffffffffffff1602179055506001600260003373ffffffffffffffffffffffffffffffffffffffff1673ffffffffffffffffffffffffffffffffffffffff1681526020019081526020016000205401600260003373ffffffffffffffffffffffffffffffffffffffff1673ffffffffffffffffffffffffffffffffffffffff16815260200190815260200160002081905550600160003373ffffffffffffffffffffffffffffffffffffffff1673ffffffffffffffffffffffffffffffffffffffff1681526020019081526020016000206000600260003373ffffffffffffffffffffffffffffffffffffffff1673ffffffffffffffffffffffffffffffffffffffff16815260200190815260200160002054815260200190815260200160002060009054906101000a900473ffffffffffffffffffffffffffffffffffffffff1673ffffffffffffffffffffffffffffffffffffffff163373ffffffffffffffffffffffffffffffffffffffff167fb55d3b0b0e05c540eee42d7d68168252801651e9067981ca77d56c784414a32760405160405180910390a3600160003373ffffffffffffffffffffffffffffffffffffffff1673ffffffffffffffffffffffffffffffffffffffff1681526020019081526020016000206000600260003373ffffffffffffffffffffffffffffffffffffffff1673ffffffffffffffffffffffffffffffffffffffff16815260200190815260200160002054815260200190815260200160002060009054906101000a900473ffffffffffffffffffffffffffffffffffffffff169150509695505050505050565b60006020528060005260406000206000915090508060000160009054906101000a900460ff1690806001018054600181600116156101000203166002900480601f01602080910402602001604051908101604052809291908181526020018280546001816001161561010002031660029004801562000be55780601f1062000bb95761010080835404028352916020019162000be5565b820191906000526020600020905b81548152906001019060200180831162000bc757829003601f168201915b505050505090806002018054600181600116156101000203166002900480601f01602080910402602001604051908101604052809291908181526020018280546001816001161561010002031660029004801562000c875780601f1062000c5b5761010080835404028352916020019162000c87565b820191906000526020600020905b81548152906001019060200180831162000c6957829003601f168201915b5050505050905083565b6000600160008473ffffffffffffffffffffffffffffffffffffffff1673ffffffffffffffffffffffffffffffffffffffff168152602001908152602001600020600083815260200190815260200160002060009054906101000a900473ffffffffffffffffffffffffffffffffffffffff1673ffffffffffffffffffffffffffffffffffffffff166380007e836040518163ffffffff167c0100000000000000000000000000000000000000000000000000000000028152600401602060405180830381600087803b15801562000d6857600080fd5b505af115801562000d7d573d6000803e3d6000fd5b505050506040513d602081101562000d9457600080fd5b8101908080519060200190929190505050905092915050565b6060600160008573ffffffffffffffffffffffffffffffffffffffff1673ffffffffffffffffffffffffffffffffffffffff168152602001908152602001600020600084815260200190815260200160002060009054906101000a900473ffffffffffffffffffffffffffffffffffffffff1673ffffffffffffffffffffffffffffffffffffffff1663b319c9e4836040518263ffffffff167c01000000000000000000000000000000000000000000000000000000000281526004018080602001828103825283818151815260200191508051906020019080838360005b8381101562000ea957808201518184015260208101905062000e8c565b50505050905090810190601f16801562000ed75780820380516001836020036101000a031916815260200191505b5092505050600060405180830381600087803b15801562000ef757600080fd5b505af115801562000f0c573d6000803e3d6000fd5b505050506040513d6000823e3d601f19601f82011682018060405250602081101562000f3757600080fd5b81019080805164010000000081111562000f5057600080fd5b8281019050602081018481111562000f6757600080fd5b815185600182028301116401000000008211171562000f8557600080fd5b505092919050505090509392505050565b6000600160008473ffffffffffffffffffffffffffffffffffffffff1673ffffffffffffffffffffffffffffffffffffffff168152602001908152602001600020600083815260200190815260200160002060009054906101000a900473ffffffffffffffffffffffffffffffffffffffff1673ffffffffffffffffffffffffffffffffffffffff166355e033736040518163ffffffff167c0100000000000000000000000000000000000000000000000000000000028152600401602060405180830381600087803b1580156200106d57600080fd5b505af115801562001082573d6000803e3d6000fd5b505050506040513d60208110156200109957600080fd5b8101908080519060200190929190505050905092915050565b60016020528160005260406000206020528060005260406000206000915091509054906101000a900473ffffffffffffffffffffffffffffffffffffffff1681565b8160008151141515156200110457fe5b8160008151141515156200111457fe5b606060405190810160405280600115158152602001858152602001848152506000803373ffffffffffffffffffffffffffffffffffffffff1673ffffffffffffffffffffffffffffffffffffffff16815260200190815260200160002060008201518160000160006101000a81548160ff0219169083151502179055506020820151816001019080519060200190620011af929190620014c1565b506040820151816002019080519060200190620011ce929190620014c1565b509050503373ffffffffffffffffffffffffffffffffffffffff167ffcd1e1d3b6626e7a8ef5bd6998bb1b9418f3ccab842073142e2a5a3a0d50c9ac60405160405180910390a250505050565b8073ffffffffffffffffffffffffffffffffffffffff1663877b9a67336040518263ffffffff167c0100000000000000000000000000000000000000000000000000000000028152600401808273ffffffffffffffffffffffffffffffffffffffff1673ffffffffffffffffffffffffffffffffffffffff168152602001915050602060405180830381600087803b158015620012b757600080fd5b505af1158015620012cc573d6000803e3d6000fd5b505050506040513d6020811015620012e357600080fd5b8101908080519060200190929190505050801515620012fe57fe5b81600160003373ffffffffffffffffffffffffffffffffffffffff1673ffffffffffffffffffffffffffffffffffffffff1681526020019081526020016000206000600260003373ffffffffffffffffffffffffffffffffffffffff1673ffffffffffffffffffffffffffffffffffffffff16815260200190815260200160002054815260200190815260200160002060006101000a81548173ffffffffffffffffffffffffffffffffffffffff021916908373ffffffffffffffffffffffffffffffffffffffff1602179055506001600260003373ffffffffffffffffffffffffffffffffffffffff1673ffffffffffffffffffffffffffffffffffffffff1681526020019081526020016000205401600260003373ffffffffffffffffffffffffffffffffffffffff1673ffffffffffffffffffffffffffffffffffffffff168152602001908152602001600020819055508173ffffffffffffffffffffffffffffffffffffffff163373ffffffffffffffffffffffffffffffffffffffff167f77525f1f4dcbb48f088f291683e1f35f64ce1040d83dfdba5c37ea901b0866ea60405160405180910390a35050565b604051613634806200157183390190565b828054600181600116156101000203166002900490600052602060002090601f016020900481019282601f106200150457805160ff191683800117855562001535565b8280016001018555821562001535579182015b828111156200153457825182559160200191906001019062001517565b5b50905062001544919062001548565b5090565b6200156d91905b80821115620015695760008160009055506001016200154f565b5090565b905600608060405261016d6001557fffffffffffffffffffffffffffffffffffffffffffffffffffffffffffffffff6002556000600360006101000a81548160ff0219169083151502179055506000600360016101000a81548160ff02191690831515021790555060006004556000600760146101000a81548160ff021916908360ff1602179055506000600760156101000a81548160ff021916908360ff160217905550600a604051908082528060200260200182016040528015620000d25781602001602082028038833980820191505090505b5060099080519060200190620000ea92919062000641565b506000600c60006101000a81548160ff0219169083151502179055503480156200011357600080fd5b50604051620036343803806200363483398101806040528101908080518201929190602001805190602001909291908051906020019092919080519060200190929190805190602001909291908051820192919050505085858560ff1685601e600085518484846000841180156200018c5750600a8411155b15156200019857600080fd5b600083118015620001a95750600a83105b1515620001b557600080fd5b600082118015620001c557508181105b1515620001d157600080fd5b600094505b89518510156200038257600073ffffffffffffffffffffffffffffffffffffffff168a868151811015156200020757fe5b9060200190602002015173ffffffffffffffffffffffffffffffffffffffff16141580156200027a57503373ffffffffffffffffffffffffffffffffffffffff168a868151811015156200025757fe5b9060200190602002015173ffffffffffffffffffffffffffffffffffffffff1614155b15156200028357fe5b6001600860008c888151811015156200029857fe5b9060200190602002015173ffffffffffffffffffffffffffffffffffffffff1673ffffffffffffffffffffffffffffffffffffffff16815260200190815260200160002060000160006101000a81548160ff02191690831515021790555060098a868151811015156200030757fe5b9060200190602002015190806001815401808255809150509060018203906000526020600020016000909192909190916101000a81548173ffffffffffffffffffffffffffffffffffffffff021916908373ffffffffffffffffffffffffffffffffffffffff160217905550508480600101955050620001d6565b33600760006101000a81548173ffffffffffffffffffffffffffffffffffffffff021916908373ffffffffffffffffffffffffffffffffffffffff160217905550600160086000600760009054906101000a900473ffffffffffffffffffffffffffffffffffffffff1673ffffffffffffffffffffffffffffffffffffffff1673ffffffffffffffffffffffffffffffffffffffff16815260200190815260200160002060000160006101000a81548160ff0219169083151502179055506009600760009054906101000a900473ffffffffffffffffffffffffffffffffffffffff1690806001815401808255809150509060018203906000526020600020016000909192909190916101000a81548173ffffffffffffffffffffffffffffffffffffffff021916908373ffffffffffffffffffffffffffffffffffffffff1602179055505088600660006101000a81548173ffffffffffffffffffffffffffffffffffffffff021916908373ffffffffffffffffffffffffffffffffffffffff160217905550426000819055506000871462000520578662000523565b60005b60018190555060008714620005445762015180600154026000540162000548565b6002545b6002819055506001880160058190555062015180860260005401600481905550505050505050505050506200058d828262000599640100000000026401000000009004565b50505050505062000716565b600060605b60008411156200063b578383015191508163ffffffff166040519080825280601f01601f191660200182016040528015620005e85781602001602082028038833980820191505090505b509050600060016020840401905060006020840611156200060a576001810190505b60005b81811015620006335785850151602082028401526020860395506020810190506200060d565b50506200059e565b50505050565b828054828255906000526020600020908101928215620006bd579160200282015b82811115620006bc5782518260006101000a81548173ffffffffffffffffffffffffffffffffffffffff021916908373ffffffffffffffffffffffffffffffffffffffff1602179055509160200191906001019062000662565b5b509050620006cc9190620006d0565b5090565b6200071391905b808211156200070f57600081816101000a81549073ffffffffffffffffffffffffffffffffffffffff021916905550600101620006d7565b5090565b90565b612f0e80620007266000396000f3006080604052600436106101cd576000357c0100000000000000000000000000000000000000000000000000000000900463ffffffff16806317674544146101d25780631d1438481461023b57806322a151d41461029257806326f4490b146102bd5780632b7ac3f3146102d45780633034d20e1461032b57806333105218146103a05780633318d07c146103fb578063350f348f14610426578063351e8cc91461045557806340150816146104865780634665096d146104f75780634f9c1160146105225780634fb4e8331461059757806355e03373146106415780635ce308a7146106745780635f1a17a91461072357806362dfa1be1461073a57806380007e8314610765578063877b9a67146107945780638cd0670b146107ef578063930bced11461081e578063981f549914610849578063a6de5832146108d9578063b2f4bdb014610908578063b319c9e414610933578063b9f4be1e14610a15578063bbb82d8914610a88578063bc87eed314610ab7578063c1bbc7db14610b47578063c2797a3114610bcc578063c2cf90bf14610c72578063c63c5bd114610c89578063c88bcd2214610cf2578063d260679314610d21578063daabf2bd14610dd0578063f6e570e614610e01575b600080fd5b3480156101de57600080fd5b50610239600480360381019080803590602001908201803590602001908080601f0160208091040260200160405190810160405280939291908181526020018383808284378201915050505050509192919290505050610e2e565b005b34801561024757600080fd5b50610250610f9f565b604051808273ffffffffffffffffffffffffffffffffffffffff1673ffffffffffffffffffffffffffffffffffffffff16815260200191505060405180910390f35b34801561029e57600080fd5b506102a7610fc5565b6040518082815260200191505060405180910390f35b3480156102c957600080fd5b506102d2610fcb565b005b3480156102e057600080fd5b506102e96110d0565b604051808273ffffffffffffffffffffffffffffffffffffffff1673ffffffffffffffffffffffffffffffffffffffff16815260200191505060405180910390f35b34801561033757600080fd5b5061039e600480360381019080803515159060200190929190803590602001908201803590602001908080601f01602080910402602001604051908101604052809392919081815260200183838082843782019150505050505091929192905050506110f6565b005b3480156103ac57600080fd5b506103e1600480360381019080803573ffffffffffffffffffffffffffffffffffffffff169060200190929190505050611392565b604051808215151515815260200191505060405180910390f35b34801561040757600080fd5b506104106113ec565b6040518082815260200191505060405180910390f35b34801561043257600080fd5b5061043b6113f2565b604051808215151515815260200191505060405180910390f35b34801561046157600080fd5b5061046a6114dd565b604051808260ff1660ff16815260200191505060405180910390f35b34801561049257600080fd5b506104c7600480360381019080803573ffffffffffffffffffffffffffffffffffffffff1690602001909291905050506114f0565b60405180841515151581526020018315151515815260200182151515158152602001935050505060405180910390f35b34801561050357600080fd5b5061050c611541565b6040518082815260200191505060405180910390f35b34801561052e57600080fd5b50610595600480360381019080803515159060200190929190803590602001908201803590602001908080601f0160208091040260200160405190810160405280939291908181526020018383808284378201915050505050509192919290505050611547565b005b3480156105a357600080fd5b506105c66004803603810190808035600019169060200190929190505050611674565b6040518080602001828103825283818151815260200191508051906020019080838360005b838110156106065780820151818401526020810190506105eb565b50505050905090810190601f1680156106335780820380516001836020036101000a031916815260200191505b509250505060405180910390f35b34801561064d57600080fd5b50610656611724565b60405180826000191660001916815260200191505060405180910390f35b34801561068057600080fd5b50610721600480360381019080803590602001908201803590602001908080601f0160208091040260200160405190810160405280939291908181526020018383808284378201915050505050509192919290803590602001908201803590602001908080601f0160208091040260200160405190810160405280939291908181526020018383808284378201915050505050509192919290505050611801565b005b34801561072f57600080fd5b50610738611a08565b005b34801561074657600080fd5b5061074f611b14565b6040518082815260200191505060405180910390f35b34801561077157600080fd5b5061077a611b19565b604051808215151515815260200191505060405180910390f35b3480156107a057600080fd5b506107d5600480360381019080803573ffffffffffffffffffffffffffffffffffffffff169060200190929190505050611b30565b604051808215151515815260200191505060405180910390f35b3480156107fb57600080fd5b50610804611b8a565b604051808215151515815260200191505060405180910390f35b34801561082a57600080fd5b50610833611c3a565b6040518082815260200191505060405180910390f35b34801561085557600080fd5b5061085e611c40565b6040518080602001828103825283818151815260200191508051906020019080838360005b8381101561089e578082015181840152602081019050610883565b50505050905090810190601f1680156108cb5780820380516001836020036101000a031916815260200191505b509250505060405180910390f35b3480156108e557600080fd5b506108ee611e12565b604051808215151515815260200191505060405180910390f35b34801561091457600080fd5b5061091d611e25565b6040518082815260200191505060405180910390f35b34801561093f57600080fd5b5061099a600480360381019080803590602001908201803590602001908080601f0160208091040260200160405190810160405280939291908181526020018383808284378201915050505050509192919290505050611e2b565b6040518080602001828103825283818151815260200191508051906020019080838360005b838110156109da5780820151818401526020810190506109bf565b50505050905090810190601f168015610a075780820380516001836020036101000a031916815260200191505b509250505060405180910390f35b348015610a2157600080fd5b50610a8660048036038101908080359060200190929190803590602001908201803590602001908080601f0160208091040260200160405190810160405280939291908181526020018383808284378201915050505050509192919290505050611ef8565b005b348015610a9457600080fd5b50610a9d611f9a565b604051808215151515815260200191505060405180910390f35b348015610ac357600080fd5b50610acc611fad565b6040518080602001828103825283818151815260200191508051906020019080838360005b83811015610b0c578082015181840152602081019050610af1565b50505050905090810190601f168015610b395780820380516001836020036101000a031916815260200191505b509250505060405180910390f35b348015610b5357600080fd5b50610bae600480360381019080803590602001908201803590602001908080601f016020809104026020016040519081016040528093929190818152602001838380828437820191505050505050919291929050505061210c565b60405180826000191660001916815260200191505060405180910390f35b348015610bd857600080fd5b50610bf760048036038101908080359060200190929190505050612214565b6040518080602001828103825283818151815260200191508051906020019080838360005b83811015610c37578082015181840152602081019050610c1c565b50505050905090810190601f168015610c645780820380516001836020036101000a031916815260200191505b509250505060405180910390f35b348015610c7e57600080fd5b50610c876122cf565b005b348015610c9557600080fd5b50610cf0600480360381019080803590602001908201803590602001908080601f0160208091040260200160405190810160405280939291908181526020018383808284378201915050505050509192919290505050612389565b005b348015610cfe57600080fd5b50610d076126e5565b604051808215151515815260200191505060405180910390f35b348015610d2d57600080fd5b50610dce600480360381019080803590602001908201803590602001908080601f0160208091040260200160405190810160405280939291908181526020018383808284378201915050505050509192919290803590602001908201803590602001908080601f01602080910402602001604051908101604052809392919081815260200183838082843782019150505050505091929192905050506126f8565b005b348015610ddc57600080fd5b50610de56128c1565b604051808260ff1660ff16815260200191505060405180910390f35b348015610e0d57600080fd5b50610e2c600480360381019080803590602001909291905050506128d4565b005b60045442101515610e3e57600080fd5b600c60009054906101000a900460ff161515610e5657fe5b3373ffffffffffffffffffffffffffffffffffffffff16600760009054906101000a900473ffffffffffffffffffffffffffffffffffffffff1673ffffffffffffffffffffffffffffffffffffffff16141515610eb257600080fd5b600a6000610ec7610ec2846129bc565b6129ea565b600019166000191681526020019081526020016000206000610ee99190612ddb565b3073ffffffffffffffffffffffffffffffffffffffff167f9db365c920fe9181ff90a5267a74a6c0c2954b878ae78f6ab57bed0c2bd5c239826040518080602001828103825283818151815260200191508051906020019080838360005b83811015610f62578082015181840152602081019050610f47565b50505050905090810190601f168015610f8f5780820380516001836020036101000a031916815260200191505b509250505060405180910390a250565b600760009054906101000a900473ffffffffffffffffffffffffffffffffffffffff1681565b60055481565b60025442111515610fdb57600080fd5b3373ffffffffffffffffffffffffffffffffffffffff16600660009054906101000a900473ffffffffffffffffffffffffffffffffffffffff1673ffffffffffffffffffffffffffffffffffffffff1614151561103757600080fd5b6000600360016101000a81548160ff0219169083151502179055503073ffffffffffffffffffffffffffffffffffffffff16600660009054906101000a900473ffffffffffffffffffffffffffffffffffffffff1673ffffffffffffffffffffffffffffffffffffffff167f6461d55e3edc9ce5c9c80d7bfb1a6fbcb71312efa790a6687225eadf3bdaffaf60405160405180910390a3565b600660009054906101000a900473ffffffffffffffffffffffffffffffffffffffff1681565b6000611205826111f33086604051602001808373ffffffffffffffffffffffffffffffffffffffff1673ffffffffffffffffffffffffffffffffffffffff166c0100000000000000000000000002815260140182151515157f0100000000000000000000000000000000000000000000000000000000000000028152600101925050506040516020818303038152906040526040518082805190602001908083835b6020831015156111bd5780518252602082019150602081019050602083039250611198565b6001836020036101000a0380198251168184511680821785525050505050509050019150506040518091039020600019166129fb565b60001916612a4a90919063ffffffff16565b9050600860008273ffffffffffffffffffffffffffffffffffffffff1673ffffffffffffffffffffffffffffffffffffffff16815260200190815260200160002060000160009054906101000a900460ff16151561125f57fe5b600860008273ffffffffffffffffffffffffffffffffffffffff1673ffffffffffffffffffffffffffffffffffffffff16815260200190815260200160002060000160019054906101000a900460ff1615156112b757fe5b82600860008373ffffffffffffffffffffffffffffffffffffffff1673ffffffffffffffffffffffffffffffffffffffff16815260200190815260200160002060000160026101000a81548160ff021916908315150217905550600660009054906101000a900473ffffffffffffffffffffffffffffffffffffffff1673ffffffffffffffffffffffffffffffffffffffff163073ffffffffffffffffffffffffffffffffffffffff167fb9f6e448b49729be08881707bf32b32df91dc5e5fd36f5bfb05816b413591cdb60405160405180910390a3505050565b60008173ffffffffffffffffffffffffffffffffffffffff16600660009054906101000a900473ffffffffffffffffffffffffffffffffffffffff1673ffffffffffffffffffffffffffffffffffffffff16149050919050565b60015481565b6000806000809150600090505b6009805490508160ff1610156114bd57600115156008600060098460ff1681548110151561142957fe5b9060005260206000200160009054906101000a900473ffffffffffffffffffffffffffffffffffffffff1673ffffffffffffffffffffffffffffffffffffffff1673ffffffffffffffffffffffffffffffffffffffff16815260200190815260200160002060000160029054906101000a900460ff16151514156114b05781806001019250505b80806001019150506113ff565b6005548260ff1610156114d357600092506114d8565b600192505b505090565b600760149054906101000a900460ff1681565b60086020528060005260406000206000915090508060000160009054906101000a900460ff16908060000160019054906101000a900460ff16908060000160029054906101000a900460ff16905083565b60025481565b3373ffffffffffffffffffffffffffffffffffffffff16600660009054906101000a900473ffffffffffffffffffffffffffffffffffffffff1673ffffffffffffffffffffffffffffffffffffffff161415156115a357600080fd5b81600c60006101000a81548160ff0219169083151502179055503073ffffffffffffffffffffffffffffffffffffffff167fcd418e9e4619655d848c242ba583f7bcd1f74bb3a658a3bbaf6ac569fc4b9347826040518080602001828103825283818151815260200191508051906020019080838360005b8381101561163657808201518184015260208101905061161b565b50505050905090810190601f1680156116635780820380516001836020036101000a031916815260200191505b509250505060405180910390a25050565b600a6020528060005260406000206000915090508054600181600116156101000203166002900480601f01602080910402602001604051908101604052809291908181526020018280546001816001161561010002031660029004801561171c5780601f106116f15761010080835404028352916020019161171c565b820191906000526020600020905b8154815290600101906020018083116116ff57829003601f168201915b505050505081565b600061172e611c40565b6040516020018082805190602001908083835b6020831015156117665780518252602082019150602081019050602083039250611741565b6001836020036101000a0380198251168184511680821785525050505050509050019150506040516020818303038152906040526040518082805190602001908083835b6020831015156117cf57805182526020820191506020810190506020830392506117aa565b6001836020036101000a0380198251168184511680821785525050505050509050019150506040518091039020905090565b600c60009054906101000a900460ff16151561181957fe5b816000600a600061183161182c856129bc565b6129ea565b6000191660001916815260200190815260200160002080546001816001161561010002031660029004905014151561186557fe5b6004544210151561187557600080fd5b3373ffffffffffffffffffffffffffffffffffffffff16600760009054906101000a900473ffffffffffffffffffffffffffffffffffffffff1673ffffffffffffffffffffffffffffffffffffffff161415156118d157600080fd5b81600a60006118e76118e2876129bc565b6129ea565b600019166000191681526020019081526020016000209080519060200190611910929190612e23565b50600b83908060018154018082558091505090600182039060005260206000200160009091929091909150908051906020019061194e929190612e23565b50503073ffffffffffffffffffffffffffffffffffffffff167f9baebac67931fa0302d3f9793c844ce81f856decfd277712c216329f3df90e0b846040518080602001828103825283818151815260200191508051906020019080838360005b838110156119c95780820151818401526020810190506119ae565b50505050905090810190601f1680156119f65780820380516001836020036101000a031916815260200191505b509250505060405180910390a2505050565b600360019054906101000a900460ff16151515611a2157fe5b3373ffffffffffffffffffffffffffffffffffffffff16600660009054906101000a900473ffffffffffffffffffffffffffffffffffffffff1673ffffffffffffffffffffffffffffffffffffffff16141515611a7d57600080fd5b60045442111515611a8d57600080fd5b611a95611b8a565b1515611a9d57fe5b6001600360016101000a81548160ff0219169083151502179055503073ffffffffffffffffffffffffffffffffffffffff163373ffffffffffffffffffffffffffffffffffffffff167f67dbe849a9c7e4fbbaa3c0610c9348e4b4d0470fab72b7c3d587be9ef3014c4360405160405180910390a3565b600a81565b6000600360019054906101000a900460ff16905090565b60008173ffffffffffffffffffffffffffffffffffffffff16600760009054906101000a900473ffffffffffffffffffffffffffffffffffffffff1673ffffffffffffffffffffffffffffffffffffffff16149050919050565b600060086000600760009054906101000a900473ffffffffffffffffffffffffffffffffffffffff1673ffffffffffffffffffffffffffffffffffffffff1673ffffffffffffffffffffffffffffffffffffffff16815260200190815260200160002060000160019054906101000a900460ff161515611c0d5760009050611c37565b600554600760149054906101000a900460ff1660ff161015611c325760009050611c37565b600190505b90565b60045481565b606060006060600091505b600b805490508263ffffffff161015611e0d57600a6000611d2a611d25600b8663ffffffff16815481101515611c7d57fe5b906000526020600020018054600181600116156101000203166002900480601f016020809104026020016040519081016040528092919081815260200182805460018160011615610100020316600290048015611d1b5780601f10611cf057610100808354040283529160200191611d1b565b820191906000526020600020905b815481529060010190602001808311611cfe57829003601f168201915b50505050506129bc565b6129ea565b600019166000191681526020019081526020016000208054600181600116156101000203166002900480601f016020809104026020016040519081016040528092919081815260200182805460018160011615610100020316600290048015611dd45780601f10611da957610100808354040283529160200191611dd4565b820191906000526020600020905b815481529060010190602001808311611db757829003601f168201915b50505050509050611dfe611de7826129bc565b611df0856129bc565b612b4290919063ffffffff16565b92508180600101925050611c4b565b505090565b600360009054906101000a900460ff1681565b60005481565b6060600a6000611e42611e3d856129bc565b6129ea565b600019166000191681526020019081526020016000208054600181600116156101000203166002900480601f016020809104026020016040519081016040528092919081815260200182805460018160011615610100020316600290048015611eec5780601f10611ec157610100808354040283529160200191611eec565b820191906000526020600020905b815481529060010190602001808311611ecf57829003601f168201915b50505050509050919050565b600060605b6000841115611f94578383015191508163ffffffff166040519080825280601f01601f191660200182016040528015611f455781602001602082028038833980820191505090505b50905060006001602084040190506000602084061115611f66576001810190505b60005b81811015611f8d578585015160208202840152602086039550602081019050611f69565b5050611efd565b50505050565b600360019054906101000a900460ff1681565b606060008090505b600b805490508163ffffffff161015612108576120f96120096040805190810160405280600181526020017f3b000000000000000000000000000000000000000000000000000000000000008152506129bc565b6120eb6120e66120cf600b8663ffffffff1681548110151561202757fe5b906000526020600020018054600181600116156101000203166002900480601f0160208091040260200160405190810160405280929190818152602001828054600181600116156101000203166002900480156120c55780601f1061209a576101008083540402835291602001916120c5565b820191906000526020600020905b8154815290600101906020018083116120a857829003601f168201915b50505050506129bc565b6120d8876129bc565b612b4290919063ffffffff16565b6129bc565b612b4290919063ffffffff16565b91508080600101915050611fb5565b5090565b6000600a600061212361211e856129bc565b6129ea565b6000191660001916815260200190815260200160002060405160200180828054600181600116156101000203166002900480156121975780601f10612175576101008083540402835291820191612197565b820191906000526020600020905b815481529060010190602001808311612183575b50509150506040516020818303038152906040526040518082805190602001908083835b6020831015156121e057805182526020820191506020810190506020830392506121bb565b6001836020036101000a03801982511681845116808217855250505050505090500191505060405180910390209050919050565b600b8181548110151561222357fe5b906000526020600020016000915090508054600181600116156101000203166002900480601f0160208091040260200160405190810160405280929190818152602001828054600181600116156101000203166002900480156122c75780601f1061229c576101008083540402835291602001916122c7565b820191906000526020600020905b8154815290600101906020018083116122aa57829003601f168201915b505050505081565b600254421115156122df57600080fd5b6122e76113f2565b15156122f257600080fd5b33600860008273ffffffffffffffffffffffffffffffffffffffff1673ffffffffffffffffffffffffffffffffffffffff16815260200190815260200160002060000160009054906101000a900460ff16151561234e57600080fd5b600760009054906101000a900473ffffffffffffffffffffffffffffffffffffffff1673ffffffffffffffffffffffffffffffffffffffff16ff5b60006004544211151561239b57600080fd5b6123a482612bc4565b151561247b577fc18ad75b56934a79fbdc8a290004a37a45fefb023648128bf56aa146e917f46933604051808273ffffffffffffffffffffffffffffffffffffffff1673ffffffffffffffffffffffffffffffffffffffff16815260200191505060405180910390a16040517f08c379a00000000000000000000000000000000000000000000000000000000081526004018080602001828103825260208152602001807f5375626d697474696e67207369676e617475726520697320696e76616c69642181525060200191505060405180910390fd5b6125d6826125c430600660009054906101000a900473ffffffffffffffffffffffffffffffffffffffff166124ae611724565b604051602001808473ffffffffffffffffffffffffffffffffffffffff1673ffffffffffffffffffffffffffffffffffffffff166c010000000000000000000000000281526014018373ffffffffffffffffffffffffffffffffffffffff1673ffffffffffffffffffffffffffffffffffffffff166c01000000000000000000000000028152601401826000191660001916815260200193505050506040516020818303038152906040526040518082805190602001908083835b60208310151561258e5780518252602082019150602081019050602083039250612569565b6001836020036101000a0380198251168184511680821785525050505050509050019150506040518091039020600019166129fb565b60001916612a4a90919063ffffffff16565b90506001600860008373ffffffffffffffffffffffffffffffffffffffff1673ffffffffffffffffffffffffffffffffffffffff16815260200190815260200160002060000160016101000a81548160ff0219169083151502179055506007601481819054906101000a900460ff168092919060010191906101000a81548160ff021916908360ff16021790555050600660009054906101000a900473ffffffffffffffffffffffffffffffffffffffff1673ffffffffffffffffffffffffffffffffffffffff163073ffffffffffffffffffffffffffffffffffffffff167fc2bf16530f348dc1b17eea7985ab72810b756cc5fb003750246145c6aa940f2060405160405180910390a35050565b600c60009054906101000a900460ff1681565b600c60009054906101000a900460ff16151561271057fe5b6004544210151561272057600080fd5b816000600a6000612738612733856129bc565b6129ea565b600019166000191681526020019081526020016000208054600181600116156101000203166002900490501415151561276d57fe5b3373ffffffffffffffffffffffffffffffffffffffff16600760009054906101000a900473ffffffffffffffffffffffffffffffffffffffff1673ffffffffffffffffffffffffffffffffffffffff161415156127c957600080fd5b81600a60006127df6127da876129bc565b6129ea565b600019166000191681526020019081526020016000209080519060200190612808929190612e23565b503073ffffffffffffffffffffffffffffffffffffffff167f9baebac67931fa0302d3f9793c844ce81f856decfd277712c216329f3df90e0b846040518080602001828103825283818151815260200191508051906020019080838360005b83811015612882578082015181840152602081019050612867565b50505050905090810190601f1680156128af5780820380516001836020036101000a031916815260200191505b509250505060405180910390a2505050565b600760159054906101000a900460ff1681565b3373ffffffffffffffffffffffffffffffffffffffff16600660009054906101000a900473ffffffffffffffffffffffffffffffffffffffff1673ffffffffffffffffffffffffffffffffffffffff1614151561293057600080fd5b6004544210151561294057600080fd5b600360019054906101000a900460ff1615151561295957fe5b60008111801561296d575060098054905081105b151561297857600080fd5b807f75f1bf5e48fe4895f88b4bf88e36054829d7be3dc6ef5a755296e910f631cb8b6005546040518082815260200191505060405180910390a28060058190555050565b6129c4612ea3565b600060208301905060408051908101604052808451815260200182815250915050919050565b600081516020830151209050919050565b60008160405180807f19457468657265756d205369676e6564204d6573736167653a0a333200000000815250601c01826000191660001916815260200191505060405180910390209050919050565b60008060008060418551141515612a645760009350612b39565b6020850151925060408501519150606085015160001a9050601b8160ff161015612a8f57601b810190505b601b8160ff1614158015612aa75750601c8160ff1614155b15612ab55760009350612b39565b600186828585604051600081526020016040526040518085600019166000191681526020018460ff1660ff1681526020018360001916600019168152602001826000191660001916815260200194505050505060206040516020810390808403906000865af1158015612b2c573d6000803e3d6000fd5b5050506020604051035193505b50505092915050565b606080600083600001518560000151016040519080825280601f01601f191660200182016040528015612b845781602001602082028038833980820191505090505b509150602082019050612ba08186602001518760000151612d0f565b612bb98560000151820185602001518660000151612d0f565b819250505092915050565b6000612d0830600660009054906101000a900473ffffffffffffffffffffffffffffffffffffffff16612bf5611724565b604051602001808473ffffffffffffffffffffffffffffffffffffffff1673ffffffffffffffffffffffffffffffffffffffff166c010000000000000000000000000281526014018373ffffffffffffffffffffffffffffffffffffffff1673ffffffffffffffffffffffffffffffffffffffff166c01000000000000000000000000028152601401826000191660001916815260200193505050506040516020818303038152906040526040518082805190602001908083835b602083101515612cd55780518252602082019150602081019050602083039250612cb0565b6001836020036101000a038019825116818451168082178552505050505050905001915050604051809103902083612d5a565b9050919050565b60005b602082101515612d375782518452602084019350602083019250602082039150612d12565b6001826020036101000a0390508019835116818551168181178652505050505050565b600080612d8083612d6e86600019166129fb565b60001916612a4a90919063ffffffff16565b9050600860008273ffffffffffffffffffffffffffffffffffffffff1673ffffffffffffffffffffffffffffffffffffffff16815260200190815260200160002060000160009054906101000a900460ff1691505092915050565b50805460018160011615610100020316600290046000825580601f10612e015750612e20565b601f016020900490600052602060002090810190612e1f9190612ebd565b5b50565b828054600181600116156101000203166002900490600052602060002090601f016020900481019282601f10612e6457805160ff1916838001178555612e92565b82800160010185558215612e92579182015b82811115612e91578251825591602001919060010190612e76565b5b509050612e9f9190612ebd565b5090565b604080519081016040528060008152602001600081525090565b612edf91905b80821115612edb576000816000905550600101612ec3565b5090565b905600a165627a7a723058206047280552bdceee13b4cafe78600f9850be4086f70732f17c913496bf9598190029a165627a7a72305820cc1e1ad3d940f583fe5520a1729b344c4951259928a0997f39559ad8fc20738f0029",
  "source": "pragma solidity ^0.4.24;\n\nimport './MultiSigDocumentWithStorage.sol';\ncontract MultiSigDocumentRegistry {\n  using strings for *;\n\n  event DocumentIndexed(address indexed issuer, address indexed docAddr);\n  event DocumentCreated(address indexed issuer, address indexed docAddr);\n  event VerifierRegistration(address indexed issuer);\n\n  struct Verifier {\n      bool isVerifier;\n      string Name;\n      string Email;\n  }\n  //Store verifier info.\n  mapping (address => Verifier) public verifierInfo;\n  // Store created and indexed Document by Issuer's address\n  mapping (address => mapping(uint => MultiSigDocumentWithStorage)) public docVault;\n  // Keep track how many documents each Issuer have.\n  mapping (address => uint) docCount;\n\n  modifier onlyVerifier(bool isVerifier) {\n      assert(isVerifier);\n      _;\n  }\n  modifier onlyIssuer(bool isIssuer) {\n      assert(isIssuer);\n      _;\n  }\n  modifier isRegisteredVerifier(address a1) {\n      assert(verifierInfo[a1].isVerifier);\n      _;\n  }\n\n  constructor()\n    public\n  {\n\n  }\n  modifier stringNotEmpty(string memory s1) {\n    assert(bytes(s1).length != 0);\n    _;\n  }\n  function registerVerifier(string memory _name, string memory _email)\n    public\n    stringNotEmpty(_name)\n    stringNotEmpty(_email)\n  {\n    verifierInfo[msg.sender] = Verifier({\n        isVerifier: true,\n        Name: _name,\n        Email: _email\n      });\n    emit VerifierRegistration(msg.sender);\n  }\n\n  function createDocument(\n    address[] signers,\n    address verifier,\n    uint8 required,\n    uint validDays,\n    uint offset,\n    bytes buffer\n  )\n    public\n    isRegisteredVerifier(verifier)\n    returns (address)\n  {\n    docVault[msg.sender][docCount[msg.sender]] =\n      new MultiSigDocumentWithStorage(signers, verifier, required, validDays, offset, buffer);\n\n    docCount[msg.sender] = docCount[msg.sender] + 1;\n\n    emit DocumentCreated(msg.sender, address(docVault[msg.sender][docCount[msg.sender]]));\n    return docVault[msg.sender][docCount[msg.sender]];\n  }\n\n  function setDocument(MultiSigDocumentWithStorage doc)\n    public\n    onlyIssuer(doc.isIssuer(msg.sender))\n  {\n    /* docVault[msg.sender][docCount[msg.sender]] = Document({docAddr: docAddr}); */\n    docVault[msg.sender][docCount[msg.sender]] = doc;\n\n    docCount[msg.sender] = docCount[msg.sender] + 1;\n\n    emit DocumentIndexed(msg.sender, address(doc));\n  }\n\n  function isVerified(address addr, uint docId)\n    public\n    view\n    returns (bool)\n  {\n    return docVault[addr][docId].isVerified();\n  }\n\n  function getEntry(address issuer, uint docId, string memory key)\n    public\n    view\n    returns (string)\n  {\n    return docVault[issuer][docId].getEntry(key);\n  }\n\n  function getProofHash(address issuer, uint docId)\n    public\n    view\n    returns (bytes32)\n  {\n    return docVault[issuer][docId].getProofHash();\n  }\n\n\n\n\n}\n",
  "sourcePath": "/Users/henry/ws/digicert/contracts/MultiSigDocumentRegistry.sol",
  "compiler": {
    "name": "solc",
    "version": "0.4.24+commit.e67f0147.Emscripten.clang"
  },
  "schemaVersion": "2.0.1",
  "updatedAt": "2018-07-19T10:56:34.854Z"
}