{
  "contractName": "MultiSigDocumentWithStorage",
  "abi": [
    {
      "constant": true,
      "inputs": [],
      "name": "issuer",
      "outputs": [
        {
          "name": "",
          "type": "address"
        }
      ],
      "payable": false,
      "stateMutability": "view",
      "type": "function"
    },
    {
      "constant": true,
      "inputs": [],
      "name": "numOfRequiredSignature",
      "outputs": [
        {
          "name": "",
          "type": "uint256"
        }
      ],
      "payable": false,
      "stateMutability": "view",
      "type": "function"
    },
    {
      "constant": false,
      "inputs": [],
      "name": "revokeDocument",
      "outputs": [],
      "payable": false,
      "stateMutability": "nonpayable",
      "type": "function"
    },
    {
      "constant": true,
      "inputs": [],
      "name": "verifier",
      "outputs": [
        {
          "name": "",
          "type": "address"
        }
      ],
      "payable": false,
      "stateMutability": "view",
      "type": "function"
    },
    {
      "constant": false,
      "inputs": [
        {
          "name": "confirmedDeleted",
          "type": "bool"
        },
        {
          "name": "sig",
          "type": "bytes"
        }
      ],
      "name": "submitDeleteConfirmation",
      "outputs": [],
      "payable": false,
      "stateMutability": "nonpayable",
      "type": "function"
    },
    {
      "constant": true,
      "inputs": [
        {
          "name": "addr",
          "type": "address"
        }
      ],
      "name": "isVerifier",
      "outputs": [
        {
          "name": "",
          "type": "bool"
        }
      ],
      "payable": false,
      "stateMutability": "view",
      "type": "function"
    },
    {
      "constant": true,
      "inputs": [],
      "name": "validDays",
      "outputs": [
        {
          "name": "",
          "type": "uint256"
        }
      ],
      "payable": false,
      "stateMutability": "view",
      "type": "function"
    },
    {
      "constant": true,
      "inputs": [],
      "name": "checkDeleteConfirmations",
      "outputs": [
        {
          "name": "",
          "type": "bool"
        }
      ],
      "payable": false,
      "stateMutability": "view",
      "type": "function"
    },
    {
      "constant": true,
      "inputs": [],
      "name": "finalizedSigConfirmations",
      "outputs": [
        {
          "name": "",
          "type": "uint8"
        }
      ],
      "payable": false,
      "stateMutability": "view",
      "type": "function"
    },
    {
      "constant": true,
      "inputs": [
        {
          "name": "",
          "type": "address"
        }
      ],
      "name": "signerProperties",
      "outputs": [
        {
          "name": "IsSigner",
          "type": "bool"
        },
        {
          "name": "IsSigned",
          "type": "bool"
        },
        {
          "name": "DeleteConfirmed",
          "type": "bool"
        }
      ],
      "payable": false,
      "stateMutability": "view",
      "type": "function"
    },
    {
      "constant": true,
      "inputs": [],
      "name": "expiration",
      "outputs": [
        {
          "name": "",
          "type": "uint256"
        }
      ],
      "payable": false,
      "stateMutability": "view",
      "type": "function"
    },
    {
      "constant": true,
      "inputs": [
        {
          "name": "",
          "type": "bytes32"
        }
      ],
      "name": "entryStorage",
      "outputs": [
        {
          "name": "",
          "type": "string"
        }
      ],
      "payable": false,
      "stateMutability": "view",
      "type": "function"
    },
    {
      "constant": false,
      "inputs": [],
      "name": "verifyDocument",
      "outputs": [],
      "payable": false,
      "stateMutability": "nonpayable",
      "type": "function"
    },
    {
      "constant": true,
      "inputs": [],
      "name": "MAX_SIGNER_COUNT",
      "outputs": [
        {
          "name": "",
          "type": "uint256"
        }
      ],
      "payable": false,
      "stateMutability": "view",
      "type": "function"
    },
    {
      "constant": true,
      "inputs": [],
      "name": "isVerified",
      "outputs": [
        {
          "name": "",
          "type": "bool"
        }
      ],
      "payable": false,
      "stateMutability": "view",
      "type": "function"
    },
    {
      "constant": true,
      "inputs": [
        {
          "name": "addr",
          "type": "address"
        }
      ],
      "name": "isIssuer",
      "outputs": [
        {
          "name": "",
          "type": "bool"
        }
      ],
      "payable": false,
      "stateMutability": "view",
      "type": "function"
    },
    {
      "constant": true,
      "inputs": [],
      "name": "isEnoughSignature",
      "outputs": [
        {
          "name": "",
          "type": "bool"
        }
      ],
      "payable": false,
      "stateMutability": "view",
      "type": "function"
    },
    {
      "constant": true,
      "inputs": [],
      "name": "allowModificationDeadline",
      "outputs": [
        {
          "name": "",
          "type": "uint256"
        }
      ],
      "payable": false,
      "stateMutability": "view",
      "type": "function"
    },
    {
      "constant": true,
      "inputs": [],
      "name": "autoActivation",
      "outputs": [
        {
          "name": "",
          "type": "bool"
        }
      ],
      "payable": false,
      "stateMutability": "view",
      "type": "function"
    },
    {
      "constant": true,
      "inputs": [],
      "name": "createdTime",
      "outputs": [
        {
          "name": "",
          "type": "uint256"
        }
      ],
      "payable": false,
      "stateMutability": "view",
      "type": "function"
    },
    {
      "constant": true,
      "inputs": [],
      "name": "verified",
      "outputs": [
        {
          "name": "",
          "type": "bool"
        }
      ],
      "payable": false,
      "stateMutability": "view",
      "type": "function"
    },
    {
      "constant": true,
      "inputs": [
        {
          "name": "",
          "type": "uint256"
        }
      ],
      "name": "entryKeys",
      "outputs": [
        {
          "name": "",
          "type": "string"
        }
      ],
      "payable": false,
      "stateMutability": "view",
      "type": "function"
    },
    {
      "constant": false,
      "inputs": [
        {
          "name": "sig",
          "type": "bytes"
        }
      ],
      "name": "signDocument",
      "outputs": [],
      "payable": false,
      "stateMutability": "nonpayable",
      "type": "function"
    },
    {
      "constant": true,
      "inputs": [],
      "name": "writable",
      "outputs": [
        {
          "name": "",
          "type": "bool"
        }
      ],
      "payable": false,
      "stateMutability": "view",
      "type": "function"
    },
    {
      "constant": true,
      "inputs": [],
      "name": "deleteConfirmations",
      "outputs": [
        {
          "name": "",
          "type": "uint8"
        }
      ],
      "payable": false,
      "stateMutability": "view",
      "type": "function"
    },
    {
      "constant": false,
      "inputs": [
        {
          "name": "newRequiredNumber",
          "type": "uint256"
        }
      ],
      "name": "changeNumberOfRquiredSignatures",
      "outputs": [],
      "payable": false,
      "stateMutability": "nonpayable",
      "type": "function"
    },
    {
      "inputs": [
        {
          "name": "signers",
          "type": "address[]"
        },
        {
          "name": "verifier",
          "type": "address"
        },
        {
          "name": "required",
          "type": "uint8"
        },
        {
          "name": "effectiveDurationInDay",
          "type": "uint256"
        },
        {
          "name": "offset",
          "type": "uint256"
        },
        {
          "name": "buffer",
          "type": "bytes"
        }
      ],
      "payable": false,
      "stateMutability": "nonpayable",
      "type": "constructor"
    },
    {
      "payable": false,
      "stateMutability": "nonpayable",
      "type": "fallback"
    },
    {
      "anonymous": false,
      "inputs": [
        {
          "indexed": false,
          "name": "l1",
          "type": "uint256"
        },
        {
          "indexed": false,
          "name": "s1",
          "type": "string"
        },
        {
          "indexed": false,
          "name": "s2",
          "type": "string"
        }
      ],
      "name": "LogString",
      "type": "event"
    },
    {
      "anonymous": false,
      "inputs": [
        {
          "indexed": true,
          "name": "document",
          "type": "address"
        },
        {
          "indexed": false,
          "name": "entryKey",
          "type": "string"
        }
      ],
      "name": "EntrySet",
      "type": "event"
    },
    {
      "anonymous": false,
      "inputs": [
        {
          "indexed": true,
          "name": "document",
          "type": "address"
        },
        {
          "indexed": false,
          "name": "entryKey",
          "type": "string"
        }
      ],
      "name": "EntryDeleted",
      "type": "event"
    },
    {
      "anonymous": false,
      "inputs": [
        {
          "indexed": true,
          "name": "document",
          "type": "address"
        },
        {
          "indexed": false,
          "name": "entryKey",
          "type": "string"
        }
      ],
      "name": "EntryUpdateRequest",
      "type": "event"
    },
    {
      "anonymous": false,
      "inputs": [
        {
          "indexed": true,
          "name": "verifier",
          "type": "address"
        },
        {
          "indexed": true,
          "name": "doc",
          "type": "address"
        }
      ],
      "name": "Verification",
      "type": "event"
    },
    {
      "anonymous": false,
      "inputs": [
        {
          "indexed": true,
          "name": "verifier",
          "type": "address"
        },
        {
          "indexed": true,
          "name": "doc",
          "type": "address"
        }
      ],
      "name": "Revocation",
      "type": "event"
    },
    {
      "anonymous": false,
      "inputs": [
        {
          "indexed": false,
          "name": "submitter",
          "type": "address"
        }
      ],
      "name": "LogInvalidSignatureSubmission",
      "type": "event"
    },
    {
      "anonymous": false,
      "inputs": [
        {
          "indexed": false,
          "name": "oldNum",
          "type": "uint256"
        },
        {
          "indexed": true,
          "name": "newNum",
          "type": "uint256"
        }
      ],
      "name": "LogNumOfRequiredSignatureChanged",
      "type": "event"
    },
    {
      "anonymous": false,
      "inputs": [
        {
          "indexed": true,
          "name": "document",
          "type": "address"
        },
        {
          "indexed": true,
          "name": "verifier",
          "type": "address"
        }
      ],
      "name": "DocumentSigned",
      "type": "event"
    },
    {
      "anonymous": false,
      "inputs": [
        {
          "indexed": true,
          "name": "document",
          "type": "address"
        },
        {
          "indexed": true,
          "name": "verifier",
          "type": "address"
        }
      ],
      "name": "DeleteDocumentConfirmation",
      "type": "event"
    },
    {
      "constant": true,
      "inputs": [],
      "name": "getAllKeys",
      "outputs": [
        {
          "name": "out1",
          "type": "string"
        }
      ],
      "payable": false,
      "stateMutability": "view",
      "type": "function"
    },
    {
      "constant": true,
      "inputs": [],
      "name": "getAllValues",
      "outputs": [
        {
          "name": "out1",
          "type": "string"
        }
      ],
      "payable": false,
      "stateMutability": "view",
      "type": "function"
    },
    {
      "constant": true,
      "inputs": [],
      "name": "getProofHash",
      "outputs": [
        {
          "name": "",
          "type": "bytes32"
        }
      ],
      "payable": false,
      "stateMutability": "view",
      "type": "function"
    },
    {
      "constant": false,
      "inputs": [
        {
          "name": "key",
          "type": "string"
        },
        {
          "name": "value",
          "type": "string"
        }
      ],
      "name": "addEntry",
      "outputs": [],
      "payable": false,
      "stateMutability": "nonpayable",
      "type": "function"
    },
    {
      "constant": false,
      "inputs": [
        {
          "name": "key",
          "type": "string"
        },
        {
          "name": "value",
          "type": "string"
        }
      ],
      "name": "updateEntry",
      "outputs": [],
      "payable": false,
      "stateMutability": "nonpayable",
      "type": "function"
    },
    {
      "constant": false,
      "inputs": [
        {
          "name": "key",
          "type": "string"
        }
      ],
      "name": "deleteEntry",
      "outputs": [],
      "payable": false,
      "stateMutability": "nonpayable",
      "type": "function"
    },
    {
      "constant": false,
      "inputs": [
        {
          "name": "_writable",
          "type": "bool"
        },
        {
          "name": "key",
          "type": "string"
        }
      ],
      "name": "changeWritePermission",
      "outputs": [],
      "payable": false,
      "stateMutability": "nonpayable",
      "type": "function"
    },
    {
      "constant": true,
      "inputs": [
        {
          "name": "key",
          "type": "string"
        }
      ],
      "name": "getEntry",
      "outputs": [
        {
          "name": "",
          "type": "string"
        }
      ],
      "payable": false,
      "stateMutability": "view",
      "type": "function"
    },
    {
      "constant": true,
      "inputs": [
        {
          "name": "s1",
          "type": "string"
        }
      ],
      "name": "getKKHash",
      "outputs": [
        {
          "name": "",
          "type": "bytes32"
        }
      ],
      "payable": false,
      "stateMutability": "view",
      "type": "function"
    },
    {
      "constant": false,
      "inputs": [],
      "name": "deleteDocument",
      "outputs": [],
      "payable": false,
      "stateMutability": "nonpayable",
      "type": "function"
    }
  ],
  "bytecode": "0x608060405261016d6001557fffffffffffffffffffffffffffffffffffffffffffffffffffffffffffffffff6002556000600360006101000a81548160ff0219169083151502179055506000600360016101000a81548160ff02191690831515021790555060006004556000600760146101000a81548160ff021916908360ff1602179055506000600760156101000a81548160ff021916908360ff160217905550600a604051908082528060200260200182016040528015620000d25781602001602082028038833980820191505090505b5060099080519060200190620000ea92919062000c7b565b506000600c60006101000a81548160ff0219169083151502179055503480156200011357600080fd5b5060405162003e8d38038062003e8d83398101806040528101908080518201929190602001805190602001909291908051906020019092919080519060200190929190805190602001909291908051820192919050505085858560ff1685601e60008551848484600084101580156200018d5750600a8411155b15156200019957600080fd5b60008310158015620001ab5750600a83105b1515620001b757600080fd5b600082118015620001c757508181105b1515620001d357600080fd5b600094505b89518510156200038457600073ffffffffffffffffffffffffffffffffffffffff168a868151811015156200020957fe5b9060200190602002015173ffffffffffffffffffffffffffffffffffffffff16141580156200027c57503373ffffffffffffffffffffffffffffffffffffffff168a868151811015156200025957fe5b9060200190602002015173ffffffffffffffffffffffffffffffffffffffff1614155b15156200028557fe5b6001600860008c888151811015156200029a57fe5b9060200190602002015173ffffffffffffffffffffffffffffffffffffffff1673ffffffffffffffffffffffffffffffffffffffff16815260200190815260200160002060000160006101000a81548160ff02191690831515021790555060098a868151811015156200030957fe5b9060200190602002015190806001815401808255809150509060018203906000526020600020016000909192909190916101000a81548173ffffffffffffffffffffffffffffffffffffffff021916908373ffffffffffffffffffffffffffffffffffffffff160217905550508480600101955050620001d8565b33600760006101000a81548173ffffffffffffffffffffffffffffffffffffffff021916908373ffffffffffffffffffffffffffffffffffffffff160217905550600160086000600760009054906101000a900473ffffffffffffffffffffffffffffffffffffffff1673ffffffffffffffffffffffffffffffffffffffff1673ffffffffffffffffffffffffffffffffffffffff16815260200190815260200160002060000160006101000a81548160ff0219169083151502179055506009600760009054906101000a900473ffffffffffffffffffffffffffffffffffffffff1690806001815401808255809150509060018203906000526020600020016000909192909190916101000a81548173ffffffffffffffffffffffffffffffffffffffff021916908373ffffffffffffffffffffffffffffffffffffffff1602179055505088600660006101000a81548173ffffffffffffffffffffffffffffffffffffffff021916908373ffffffffffffffffffffffffffffffffffffffff160217905550426000819055506000871462000522578662000525565b60005b6001819055506000871462000546576201518060015402600054016200054a565b6002545b6002819055506001880160058190555062015180860260005401600481905550505050505050505050506200058f82826200059b640100000000026401000000009004565b50505050505062000e19565b600060608060605b60008611156200090d57858501519350836040519080825280601f01601f191660200182016040528015620005e75781602001602082028038833980820191505090505b5092506200060686868562000915640100000000026401000000009004565b620006208362000971640100000000026401000000009004565b86039550858501519350836040519080825280601f01601f1916602001820160405280156200065e5781602001602082028038833980820191505090505b5091506200067d86868462000915640100000000026401000000009004565b620006978262000971640100000000026401000000009004565b860395506200072e62000714620006d86040805190810160405280600181526020016000815250620009b964010000000002620028a6176401000000009004565b620006f785620009b964010000000002620028a6176401000000009004565b620009e96401000000000262002e38179091906401000000009004565b62000a166401000000000262002e52176401000000009004565b905080600a6000856040516020018082805190602001908083835b60208310151562000770578051825260208201915060208101905060208303925062000749565b6001836020036101000a0380198251168184511680821785525050505050509050019150506040516020818303038152906040526040518082805190602001908083835b602083101515620007db5780518252602082019150602081019050602083039250620007b4565b6001836020036101000a03801982511681845116808217855250505050505090500191505060405180910390206000191660001916815260200190815260200160002090805190602001906200083392919062000d0a565b50600b620008c9620008af620008736040805190810160405280600181526020016000815250620009b964010000000002620028a6176401000000009004565b6200089287620009b964010000000002620028a6176401000000009004565b620009e96401000000000262002e38179091906401000000009004565b62000a166401000000000262002e52176401000000009004565b90806001815401808255809150509060018203906000526020600020016000909192909190915090805190602001906200090592919062000d0a565b5050620005a3565b505050505050565b6000602090506000848401519150600160208304019050600060208306111562000940576001810190505b60005b818110156200096957858501516020820285015260208603955060018101905062000943565b505050505050565b6000602082518115156200098157fe5b0490506000602083518115156200099457fe5b06141515620009a65780806001019150505b8080600101915050602081029050919050565b620009c362000d91565b600060208301905060408051908101604052808451815260200182815250915050919050565b620009f362000d91565b62000a0f83838362000a8a640100000000026401000000009004565b5092915050565b606080600083600001516040519080825280601f01601f19166020018201604052801562000a535781602001602082028038833980820191505090505b50915060208201905062000a80818560200151866000015162000b3d640100000000026401000000009004565b8192505050919050565b62000a9462000d91565b600062000ac3856000015186602001518660000151876020015162000b8a640100000000026401000000009004565b9050846020015183602001818152505084602001518103836000018181525050846000015185602001510181141562000b0757600085600001818152505062000b32565b8360000151836000015101856000018181510391508181525050836000015181018560200181815250505b829150509392505050565b60005b60208210151562000b67578251845260208401935060208301925060208203915062000b40565b6001826020036101000a0390508019835116818551168181178652505050505050565b60008060008060008060008060008b97508c8b11151562000c655760208b11151562000c1b5760018b60200360080260020a03196001029550858a511694508a8d8d010393508588511692505b8460001916836000191614151562000c1257838810151562000bfe578c8c01985062000c6b565b878060010198505085885116925062000bd7565b87985062000c6b565b8a8a209150600096505b8a8d038711151562000c64578a8820905080600019168260001916141562000c505787985062000c6b565b600188019750868060010197505062000c25565b5b8c8c0198505b5050505050505050949350505050565b82805482825590600052602060002090810192821562000cf7579160200282015b8281111562000cf65782518260006101000a81548173ffffffffffffffffffffffffffffffffffffffff021916908373ffffffffffffffffffffffffffffffffffffffff1602179055509160200191906001019062000c9c565b5b50905062000d06919062000dab565b5090565b828054600181600116156101000203166002900490600052602060002090601f016020900481019282601f1062000d4d57805160ff191683800117855562000d7e565b8280016001018555821562000d7e579182015b8281111562000d7d57825182559160200191906001019062000d60565b5b50905062000d8d919062000df1565b5090565b604080519081016040528060008152602001600081525090565b62000dee91905b8082111562000dea57600081816101000a81549073ffffffffffffffffffffffffffffffffffffffff02191690555060010162000db2565b5090565b90565b62000e1691905b8082111562000e1257600081600090555060010162000df8565b5090565b90565b6130648062000e296000396000f3006080604052600436106101c2576000357c0100000000000000000000000000000000000000000000000000000000900463ffffffff16806317674544146101d15780631d1438481461023a57806322a151d41461029157806326f4490b146102bc5780632b7ac3f3146102d35780633034d20e1461032a578063331052181461039f5780633318d07c146103fa578063350f348f14610425578063351e8cc91461045457806340150816146104855780634665096d146104f65780634f9c1160146105215780634fb4e8331461059657806355e03373146106405780635ce308a7146106735780635f1a17a91461072257806362dfa1be1461073957806380007e8314610764578063877b9a67146107935780638cd0670b146107ee578063930bced11461081d578063981f549914610848578063a6de5832146108d8578063b2f4bdb014610907578063b319c9e414610932578063bbb82d8914610a14578063bc87eed314610a43578063c1bbc7db14610ad3578063c2797a3114610b58578063c2cf90bf14610bfe578063c63c5bd114610c15578063c88bcd2214610c7e578063d260679314610cad578063daabf2bd14610d5c578063f6e570e614610d8d575b3480156101ce57600080fd5b50005b3480156101dd57600080fd5b50610238600480360381019080803590602001908201803590602001908080601f0160208091040260200160405190810160405280939291908181526020018383808284378201915050505050509192919290505050610dba565b005b34801561024657600080fd5b5061024f610f2b565b604051808273ffffffffffffffffffffffffffffffffffffffff1673ffffffffffffffffffffffffffffffffffffffff16815260200191505060405180910390f35b34801561029d57600080fd5b506102a6610f51565b6040518082815260200191505060405180910390f35b3480156102c857600080fd5b506102d1610f57565b005b3480156102df57600080fd5b506102e861105c565b604051808273ffffffffffffffffffffffffffffffffffffffff1673ffffffffffffffffffffffffffffffffffffffff16815260200191505060405180910390f35b34801561033657600080fd5b5061039d600480360381019080803515159060200190929190803590602001908201803590602001908080601f0160208091040260200160405190810160405280939291908181526020018383808284378201915050505050509192919290505050611082565b005b3480156103ab57600080fd5b506103e0600480360381019080803573ffffffffffffffffffffffffffffffffffffffff16906020019092919050505061131e565b604051808215151515815260200191505060405180910390f35b34801561040657600080fd5b5061040f611378565b6040518082815260200191505060405180910390f35b34801561043157600080fd5b5061043a61137e565b604051808215151515815260200191505060405180910390f35b34801561046057600080fd5b50610469611469565b604051808260ff1660ff16815260200191505060405180910390f35b34801561049157600080fd5b506104c6600480360381019080803573ffffffffffffffffffffffffffffffffffffffff16906020019092919050505061147c565b60405180841515151581526020018315151515815260200182151515158152602001935050505060405180910390f35b34801561050257600080fd5b5061050b6114cd565b6040518082815260200191505060405180910390f35b34801561052d57600080fd5b50610594600480360381019080803515159060200190929190803590602001908201803590602001908080601f01602080910402602001604051908101604052809392919081815260200183838082843782019150505050505091929192905050506114d3565b005b3480156105a257600080fd5b506105c56004803603810190808035600019169060200190929190505050611600565b6040518080602001828103825283818151815260200191508051906020019080838360005b838110156106055780820151818401526020810190506105ea565b50505050905090810190601f1680156106325780820380516001836020036101000a031916815260200191505b509250505060405180910390f35b34801561064c57600080fd5b506106556116b0565b60405180826000191660001916815260200191505060405180910390f35b34801561067f57600080fd5b50610720600480360381019080803590602001908201803590602001908080601f0160208091040260200160405190810160405280939291908181526020018383808284378201915050505050509192919290803590602001908201803590602001908080601f016020809104026020016040519081016040528093929190818152602001838380828437820191505050505050919291929050505061178d565b005b34801561072e57600080fd5b50610737611994565b005b34801561074557600080fd5b5061074e611aa0565b6040518082815260200191505060405180910390f35b34801561077057600080fd5b50610779611aa5565b604051808215151515815260200191505060405180910390f35b34801561079f57600080fd5b506107d4600480360381019080803573ffffffffffffffffffffffffffffffffffffffff169060200190929190505050611abc565b604051808215151515815260200191505060405180910390f35b3480156107fa57600080fd5b50610803611b16565b604051808215151515815260200191505060405180910390f35b34801561082957600080fd5b50610832611bc6565b6040518082815260200191505060405180910390f35b34801561085457600080fd5b5061085d611bcc565b6040518080602001828103825283818151815260200191508051906020019080838360005b8381101561089d578082015181840152602081019050610882565b50505050905090810190601f1680156108ca5780820380516001836020036101000a031916815260200191505b509250505060405180910390f35b3480156108e457600080fd5b506108ed611d9e565b604051808215151515815260200191505060405180910390f35b34801561091357600080fd5b5061091c611db1565b6040518082815260200191505060405180910390f35b34801561093e57600080fd5b50610999600480360381019080803590602001908201803590602001908080601f0160208091040260200160405190810160405280939291908181526020018383808284378201915050505050509192919290505050611db7565b6040518080602001828103825283818151815260200191508051906020019080838360005b838110156109d95780820151818401526020810190506109be565b50505050905090810190601f168015610a065780820380516001836020036101000a031916815260200191505b509250505060405180910390f35b348015610a2057600080fd5b50610a29611e84565b604051808215151515815260200191505060405180910390f35b348015610a4f57600080fd5b50610a58611e97565b6040518080602001828103825283818151815260200191508051906020019080838360005b83811015610a98578082015181840152602081019050610a7d565b50505050905090810190601f168015610ac55780820380516001836020036101000a031916815260200191505b509250505060405180910390f35b348015610adf57600080fd5b50610b3a600480360381019080803590602001908201803590602001908080601f0160208091040260200160405190810160405280939291908181526020018383808284378201915050505050509192919290505050611ff6565b60405180826000191660001916815260200191505060405180910390f35b348015610b6457600080fd5b50610b83600480360381019080803590602001909291905050506120fe565b6040518080602001828103825283818151815260200191508051906020019080838360005b83811015610bc3578082015181840152602081019050610ba8565b50505050905090810190601f168015610bf05780820380516001836020036101000a031916815260200191505b509250505060405180910390f35b348015610c0a57600080fd5b50610c136121b9565b005b348015610c2157600080fd5b50610c7c600480360381019080803590602001908201803590602001908080601f0160208091040260200160405190810160405280939291908181526020018383808284378201915050505050509192919290505050612273565b005b348015610c8a57600080fd5b50610c936125cf565b604051808215151515815260200191505060405180910390f35b348015610cb957600080fd5b50610d5a600480360381019080803590602001908201803590602001908080601f0160208091040260200160405190810160405280939291908181526020018383808284378201915050505050509192919290803590602001908201803590602001908080601f01602080910402602001604051908101604052809392919081815260200183838082843782019150505050505091929192905050506125e2565b005b348015610d6857600080fd5b50610d716127ab565b604051808260ff1660ff16815260200191505060405180910390f35b348015610d9957600080fd5b50610db8600480360381019080803590602001909291905050506127be565b005b60045442101515610dca57600080fd5b600c60009054906101000a900460ff161515610de257fe5b3373ffffffffffffffffffffffffffffffffffffffff16600760009054906101000a900473ffffffffffffffffffffffffffffffffffffffff1673ffffffffffffffffffffffffffffffffffffffff16141515610e3e57600080fd5b600a6000610e53610e4e846128a6565b6128d4565b600019166000191681526020019081526020016000206000610e759190612d31565b3073ffffffffffffffffffffffffffffffffffffffff167f9db365c920fe9181ff90a5267a74a6c0c2954b878ae78f6ab57bed0c2bd5c239826040518080602001828103825283818151815260200191508051906020019080838360005b83811015610eee578082015181840152602081019050610ed3565b50505050905090810190601f168015610f1b5780820380516001836020036101000a031916815260200191505b509250505060405180910390a250565b600760009054906101000a900473ffffffffffffffffffffffffffffffffffffffff1681565b60055481565b60025442111515610f6757600080fd5b3373ffffffffffffffffffffffffffffffffffffffff16600660009054906101000a900473ffffffffffffffffffffffffffffffffffffffff1673ffffffffffffffffffffffffffffffffffffffff16141515610fc357600080fd5b6000600360016101000a81548160ff0219169083151502179055503073ffffffffffffffffffffffffffffffffffffffff16600660009054906101000a900473ffffffffffffffffffffffffffffffffffffffff1673ffffffffffffffffffffffffffffffffffffffff167f6461d55e3edc9ce5c9c80d7bfb1a6fbcb71312efa790a6687225eadf3bdaffaf60405160405180910390a3565b600660009054906101000a900473ffffffffffffffffffffffffffffffffffffffff1681565b60006111918261117f3086604051602001808373ffffffffffffffffffffffffffffffffffffffff1673ffffffffffffffffffffffffffffffffffffffff166c0100000000000000000000000002815260140182151515157f0100000000000000000000000000000000000000000000000000000000000000028152600101925050506040516020818303038152906040526040518082805190602001908083835b6020831015156111495780518252602082019150602081019050602083039250611124565b6001836020036101000a0380198251168184511680821785525050505050509050019150506040518091039020600019166128e5565b600019166129a090919063ffffffff16565b9050600860008273ffffffffffffffffffffffffffffffffffffffff1673ffffffffffffffffffffffffffffffffffffffff16815260200190815260200160002060000160009054906101000a900460ff1615156111eb57fe5b600860008273ffffffffffffffffffffffffffffffffffffffff1673ffffffffffffffffffffffffffffffffffffffff16815260200190815260200160002060000160019054906101000a900460ff16151561124357fe5b82600860008373ffffffffffffffffffffffffffffffffffffffff1673ffffffffffffffffffffffffffffffffffffffff16815260200190815260200160002060000160026101000a81548160ff021916908315150217905550600660009054906101000a900473ffffffffffffffffffffffffffffffffffffffff1673ffffffffffffffffffffffffffffffffffffffff163073ffffffffffffffffffffffffffffffffffffffff167fb9f6e448b49729be08881707bf32b32df91dc5e5fd36f5bfb05816b413591cdb60405160405180910390a3505050565b60008173ffffffffffffffffffffffffffffffffffffffff16600660009054906101000a900473ffffffffffffffffffffffffffffffffffffffff1673ffffffffffffffffffffffffffffffffffffffff16149050919050565b60015481565b6000806000809150600090505b6009805490508160ff16101561144957600115156008600060098460ff168154811015156113b557fe5b9060005260206000200160009054906101000a900473ffffffffffffffffffffffffffffffffffffffff1673ffffffffffffffffffffffffffffffffffffffff1673ffffffffffffffffffffffffffffffffffffffff16815260200190815260200160002060000160029054906101000a900460ff161515141561143c5781806001019250505b808060010191505061138b565b6005548260ff16101561145f5760009250611464565b600192505b505090565b600760149054906101000a900460ff1681565b60086020528060005260406000206000915090508060000160009054906101000a900460ff16908060000160019054906101000a900460ff16908060000160029054906101000a900460ff16905083565b60025481565b3373ffffffffffffffffffffffffffffffffffffffff16600660009054906101000a900473ffffffffffffffffffffffffffffffffffffffff1673ffffffffffffffffffffffffffffffffffffffff1614151561152f57600080fd5b81600c60006101000a81548160ff0219169083151502179055503073ffffffffffffffffffffffffffffffffffffffff167fcd418e9e4619655d848c242ba583f7bcd1f74bb3a658a3bbaf6ac569fc4b9347826040518080602001828103825283818151815260200191508051906020019080838360005b838110156115c25780820151818401526020810190506115a7565b50505050905090810190601f1680156115ef5780820380516001836020036101000a031916815260200191505b509250505060405180910390a25050565b600a6020528060005260406000206000915090508054600181600116156101000203166002900480601f0160208091040260200160405190810160405280929190818152602001828054600181600116156101000203166002900480156116a85780601f1061167d576101008083540402835291602001916116a8565b820191906000526020600020905b81548152906001019060200180831161168b57829003601f168201915b505050505081565b60006116ba611bcc565b6040516020018082805190602001908083835b6020831015156116f257805182526020820191506020810190506020830392506116cd565b6001836020036101000a0380198251168184511680821785525050505050509050019150506040516020818303038152906040526040518082805190602001908083835b60208310151561175b5780518252602082019150602081019050602083039250611736565b6001836020036101000a0380198251168184511680821785525050505050509050019150506040518091039020905090565b600c60009054906101000a900460ff1615156117a557fe5b816000600a60006117bd6117b8856128a6565b6128d4565b600019166000191681526020019081526020016000208054600181600116156101000203166002900490501415156117f157fe5b6004544210151561180157600080fd5b3373ffffffffffffffffffffffffffffffffffffffff16600760009054906101000a900473ffffffffffffffffffffffffffffffffffffffff1673ffffffffffffffffffffffffffffffffffffffff1614151561185d57600080fd5b81600a600061187361186e876128a6565b6128d4565b60001916600019168152602001908152602001600020908051906020019061189c929190612d79565b50600b8390806001815401808255809150509060018203906000526020600020016000909192909190915090805190602001906118da929190612d79565b50503073ffffffffffffffffffffffffffffffffffffffff167f9baebac67931fa0302d3f9793c844ce81f856decfd277712c216329f3df90e0b846040518080602001828103825283818151815260200191508051906020019080838360005b8381101561195557808201518184015260208101905061193a565b50505050905090810190601f1680156119825780820380516001836020036101000a031916815260200191505b509250505060405180910390a2505050565b600360019054906101000a900460ff161515156119ad57fe5b3373ffffffffffffffffffffffffffffffffffffffff16600660009054906101000a900473ffffffffffffffffffffffffffffffffffffffff1673ffffffffffffffffffffffffffffffffffffffff16141515611a0957600080fd5b60045442111515611a1957600080fd5b611a21611b16565b1515611a2957fe5b6001600360016101000a81548160ff0219169083151502179055503073ffffffffffffffffffffffffffffffffffffffff163373ffffffffffffffffffffffffffffffffffffffff167f67dbe849a9c7e4fbbaa3c0610c9348e4b4d0470fab72b7c3d587be9ef3014c4360405160405180910390a3565b600a81565b6000600360019054906101000a900460ff16905090565b60008173ffffffffffffffffffffffffffffffffffffffff16600760009054906101000a900473ffffffffffffffffffffffffffffffffffffffff1673ffffffffffffffffffffffffffffffffffffffff16149050919050565b600060086000600760009054906101000a900473ffffffffffffffffffffffffffffffffffffffff1673ffffffffffffffffffffffffffffffffffffffff1673ffffffffffffffffffffffffffffffffffffffff16815260200190815260200160002060000160019054906101000a900460ff161515611b995760009050611bc3565b600554600760149054906101000a900460ff1660ff161015611bbe5760009050611bc3565b600190505b90565b60045481565b606060006060600091505b600b805490508263ffffffff161015611d9957600a6000611cb6611cb1600b8663ffffffff16815481101515611c0957fe5b906000526020600020018054600181600116156101000203166002900480601f016020809104026020016040519081016040528092919081815260200182805460018160011615610100020316600290048015611ca75780601f10611c7c57610100808354040283529160200191611ca7565b820191906000526020600020905b815481529060010190602001808311611c8a57829003601f168201915b50505050506128a6565b6128d4565b600019166000191681526020019081526020016000208054600181600116156101000203166002900480601f016020809104026020016040519081016040528092919081815260200182805460018160011615610100020316600290048015611d605780601f10611d3557610100808354040283529160200191611d60565b820191906000526020600020905b815481529060010190602001808311611d4357829003601f168201915b50505050509050611d8a611d73826128a6565b611d7c856128a6565b612a9890919063ffffffff16565b92508180600101925050611bd7565b505090565b600360009054906101000a900460ff1681565b60005481565b6060600a6000611dce611dc9856128a6565b6128d4565b600019166000191681526020019081526020016000208054600181600116156101000203166002900480601f016020809104026020016040519081016040528092919081815260200182805460018160011615610100020316600290048015611e785780601f10611e4d57610100808354040283529160200191611e78565b820191906000526020600020905b815481529060010190602001808311611e5b57829003601f168201915b50505050509050919050565b600360019054906101000a900460ff1681565b606060008090505b600b805490508163ffffffff161015611ff257611fe3611ef36040805190810160405280600181526020017f3b000000000000000000000000000000000000000000000000000000000000008152506128a6565b611fd5611fd0611fb9600b8663ffffffff16815481101515611f1157fe5b906000526020600020018054600181600116156101000203166002900480601f016020809104026020016040519081016040528092919081815260200182805460018160011615610100020316600290048015611faf5780601f10611f8457610100808354040283529160200191611faf565b820191906000526020600020905b815481529060010190602001808311611f9257829003601f168201915b50505050506128a6565b611fc2876128a6565b612a9890919063ffffffff16565b6128a6565b612a9890919063ffffffff16565b91508080600101915050611e9f565b5090565b6000600a600061200d612008856128a6565b6128d4565b6000191660001916815260200190815260200160002060405160200180828054600181600116156101000203166002900480156120815780601f1061205f576101008083540402835291820191612081565b820191906000526020600020905b81548152906001019060200180831161206d575b50509150506040516020818303038152906040526040518082805190602001908083835b6020831015156120ca57805182526020820191506020810190506020830392506120a5565b6001836020036101000a03801982511681845116808217855250505050505090500191505060405180910390209050919050565b600b8181548110151561210d57fe5b906000526020600020016000915090508054600181600116156101000203166002900480601f0160208091040260200160405190810160405280929190818152602001828054600181600116156101000203166002900480156121b15780601f10612186576101008083540402835291602001916121b1565b820191906000526020600020905b81548152906001019060200180831161219457829003601f168201915b505050505081565b600254421115156121c957600080fd5b6121d161137e565b15156121dc57600080fd5b33600860008273ffffffffffffffffffffffffffffffffffffffff1673ffffffffffffffffffffffffffffffffffffffff16815260200190815260200160002060000160009054906101000a900460ff16151561223857600080fd5b600760009054906101000a900473ffffffffffffffffffffffffffffffffffffffff1673ffffffffffffffffffffffffffffffffffffffff16ff5b60006004544211151561228557600080fd5b61228e82612b1a565b1515612365577fc18ad75b56934a79fbdc8a290004a37a45fefb023648128bf56aa146e917f46933604051808273ffffffffffffffffffffffffffffffffffffffff1673ffffffffffffffffffffffffffffffffffffffff16815260200191505060405180910390a16040517f08c379a00000000000000000000000000000000000000000000000000000000081526004018080602001828103825260208152602001807f5375626d697474696e67207369676e617475726520697320696e76616c69642181525060200191505060405180910390fd5b6124c0826124ae30600660009054906101000a900473ffffffffffffffffffffffffffffffffffffffff166123986116b0565b604051602001808473ffffffffffffffffffffffffffffffffffffffff1673ffffffffffffffffffffffffffffffffffffffff166c010000000000000000000000000281526014018373ffffffffffffffffffffffffffffffffffffffff1673ffffffffffffffffffffffffffffffffffffffff166c01000000000000000000000000028152601401826000191660001916815260200193505050506040516020818303038152906040526040518082805190602001908083835b6020831015156124785780518252602082019150602081019050602083039250612453565b6001836020036101000a0380198251168184511680821785525050505050509050019150506040518091039020600019166128e5565b600019166129a090919063ffffffff16565b90506001600860008373ffffffffffffffffffffffffffffffffffffffff1673ffffffffffffffffffffffffffffffffffffffff16815260200190815260200160002060000160016101000a81548160ff0219169083151502179055506007601481819054906101000a900460ff168092919060010191906101000a81548160ff021916908360ff16021790555050600660009054906101000a900473ffffffffffffffffffffffffffffffffffffffff1673ffffffffffffffffffffffffffffffffffffffff163073ffffffffffffffffffffffffffffffffffffffff167fc2bf16530f348dc1b17eea7985ab72810b756cc5fb003750246145c6aa940f2060405160405180910390a35050565b600c60009054906101000a900460ff1681565b600c60009054906101000a900460ff1615156125fa57fe5b6004544210151561260a57600080fd5b816000600a600061262261261d856128a6565b6128d4565b600019166000191681526020019081526020016000208054600181600116156101000203166002900490501415151561265757fe5b3373ffffffffffffffffffffffffffffffffffffffff16600760009054906101000a900473ffffffffffffffffffffffffffffffffffffffff1673ffffffffffffffffffffffffffffffffffffffff161415156126b357600080fd5b81600a60006126c96126c4876128a6565b6128d4565b6000191660001916815260200190815260200160002090805190602001906126f2929190612d79565b503073ffffffffffffffffffffffffffffffffffffffff167f9baebac67931fa0302d3f9793c844ce81f856decfd277712c216329f3df90e0b846040518080602001828103825283818151815260200191508051906020019080838360005b8381101561276c578082015181840152602081019050612751565b50505050905090810190601f1680156127995780820380516001836020036101000a031916815260200191505b509250505060405180910390a2505050565b600760159054906101000a900460ff1681565b3373ffffffffffffffffffffffffffffffffffffffff16600660009054906101000a900473ffffffffffffffffffffffffffffffffffffffff1673ffffffffffffffffffffffffffffffffffffffff1614151561281a57600080fd5b6004544210151561282a57600080fd5b600360019054906101000a900460ff1615151561284357fe5b600081118015612857575060098054905081105b151561286257600080fd5b807f75f1bf5e48fe4895f88b4bf88e36054829d7be3dc6ef5a755296e910f631cb8b6005546040518082815260200191505060405180910390a28060058190555050565b6128ae612df9565b600060208301905060408051908101604052808451815260200182815250915050919050565b600081516020830151209050919050565b60008160405160200180807f19457468657265756d205369676e6564204d6573736167653a0a333200000000815250601c0182600019166000191681526020019150506040516020818303038152906040526040518082805190602001908083835b60208310151561296c5780518252602082019150602081019050602083039250612947565b6001836020036101000a03801982511681845116808217855250505050505090500191505060405180910390209050919050565b600080600080604185511415156129ba5760009350612a8f565b6020850151925060408501519150606085015160001a9050601b8160ff1610156129e557601b810190505b601b8160ff16141580156129fd5750601c8160ff1614155b15612a0b5760009350612a8f565b600186828585604051600081526020016040526040518085600019166000191681526020018460ff1660ff1681526020018360001916600019168152602001826000191660001916815260200194505050505060206040516020810390808403906000865af1158015612a82573d6000803e3d6000fd5b5050506020604051035193505b50505092915050565b606080600083600001518560000151016040519080825280601f01601f191660200182016040528015612ada5781602001602082028038833980820191505090505b509150602082019050612af68186602001518760000151612c65565b612b0f8560000151820185602001518660000151612c65565b819250505092915050565b6000612c5e30600660009054906101000a900473ffffffffffffffffffffffffffffffffffffffff16612b4b6116b0565b604051602001808473ffffffffffffffffffffffffffffffffffffffff1673ffffffffffffffffffffffffffffffffffffffff166c010000000000000000000000000281526014018373ffffffffffffffffffffffffffffffffffffffff1673ffffffffffffffffffffffffffffffffffffffff166c01000000000000000000000000028152601401826000191660001916815260200193505050506040516020818303038152906040526040518082805190602001908083835b602083101515612c2b5780518252602082019150602081019050602083039250612c06565b6001836020036101000a038019825116818451168082178552505050505050905001915050604051809103902083612cb0565b9050919050565b60005b602082101515612c8d5782518452602084019350602083019250602082039150612c68565b6001826020036101000a0390508019835116818551168181178652505050505050565b600080612cd683612cc486600019166128e5565b600019166129a090919063ffffffff16565b9050600860008273ffffffffffffffffffffffffffffffffffffffff1673ffffffffffffffffffffffffffffffffffffffff16815260200190815260200160002060000160009054906101000a900460ff1691505092915050565b50805460018160011615610100020316600290046000825580601f10612d575750612d76565b601f016020900490600052602060002090810190612d759190612e13565b5b50565b828054600181600116156101000203166002900490600052602060002090601f016020900481019282601f10612dba57805160ff1916838001178555612de8565b82800160010185558215612de8579182015b82811115612de7578251825591602001919060010190612dcc565b5b509050612df59190612e13565b5090565b604080519081016040528060008152602001600081525090565b612e3591905b80821115612e31576000816000905550600101612e19565b5090565b90565b612e40612df9565b612e4b838383612eb4565b5092915050565b606080600083600001516040519080825280601f01601f191660200182016040528015612e8e5781602001602082028038833980820191505090505b509150602082019050612eaa8185602001518660000151612c65565b8192505050919050565b612ebc612df9565b6000612eda8560000151866020015186600001518760200151612f52565b90508460200151836020018181525050846020015181038360000181815250508460000151856020015101811415612f1c576000856000018181525050612f47565b8360000151836000015101856000018181510391508181525050836000015181018560200181815250505b829150509392505050565b60008060008060008060008060008b97508c8b1115156130225760208b111515612fdc5760018b60200360080260020a03196001029550858a511694508a8d8d010393508588511692505b84600019168360001916141515612fd4578388101515612fc1578c8c019850613028565b8780600101985050858851169250612f9d565b879850613028565b8a8a209150600096505b8a8d0387111515613021578a8820905080600019168260001916141561300e57879850613028565b6001880197508680600101975050612fe6565b5b8c8c0198505b50505050505050509493505050505600a165627a7a72305820cda2f98f507eece58b62c30a99e4a4c73343c643506c9e59e7c8568ca7528aca0029",
  "source": "pragma solidity ^0.4.24;\n\n// File: contracts/lib/ECRecovery.sol\n\n/**\n * @title Eliptic curve signature operations\n *\n * @dev Based on https://gist.github.com/axic/5b33912c6f61ae6fd96d6c4a47afde6d\n *\n * TODO Remove this library once solidity supports passing a signature to ecrecover.\n * See https://github.com/ethereum/solidity/issues/864\n *\n */\n\nlibrary ECRecovery {\n\n  /**\n   * @dev Recover signer address from a message by using their signature\n   * @param hash bytes32 message, the hash is the signed message. What is recovered is the signer address.\n   * @param sig bytes signature, the signature is generated using web3.eth.sign()\n   */\n  function recover(bytes32 hash, bytes sig)\n    internal\n    pure\n    returns (address)\n  {\n    bytes32 r;\n    bytes32 s;\n    uint8 v;\n\n    // Check the signature length\n    if (sig.length != 65) {\n      return (address(0));\n    }\n\n    // Divide the signature in r, s and v variables\n    // ecrecover takes the signature parameters, and the only way to get them\n    // currently is to use assembly.\n    // solium-disable-next-line security/no-inline-assembly\n    assembly {\n      r := mload(add(sig, 32))\n      s := mload(add(sig, 64))\n      v := byte(0, mload(add(sig, 96)))\n    }\n\n    // Version of signature should be 27 or 28, but 0 and 1 are also possible versions\n    if (v < 27) {\n      v += 27;\n    }\n\n    // If the version is correct return the signer address\n    if (v != 27 && v != 28) {\n      return (address(0));\n    } else {\n      // solium-disable-next-line arg-overflow\n      return ecrecover(hash, v, r, s);\n    }\n  }\n\n  /**\n   * toEthSignedMessageHash\n   * @dev prefix a bytes32 value with \"\\x19Ethereum Signed Message:\"\n   * @dev and hash the result\n   */\n  function toEthSignedMessageHash(bytes32 hash)\n    internal\n    pure\n    returns (bytes32)\n  {\n    // 32 is the length in bytes of hash,\n    // enforced by the type signature above\n    return keccak256(abi.encodePacked(\n      \"\\x19Ethereum Signed Message:\\n32\",\n      hash\n    ));\n  }\n}\n\n// File: contracts/MultiSigDocument.sol\n\ncontract IMultipleSignatory {\n    function isEnoughSignature() public view returns (bool);\n    function changeNumberOfRquiredSignatures(uint newRequiredNumber) public;\n    function isVerifier(address addr) public view returns (bool);\n    function isIssuer(address addr) public view returns (bool);\n\n    function signDocument(bytes memory sig) public;\n    function verifyDocument() public;\n    function revokeDocument() public;\n    function deleteDocument() public;\n    function submitDeleteConfirmation(bool deleted, bytes memory sig) public;\n    function getProofHash() public view returns (bytes32);\n    function isValidDataHash(bytes32 hash, bytes _sig) internal view returns(bool);\n    function isVerified() public view returns (bool);\n\n    event Verification(address indexed verifier, address indexed doc);\n    event Revocation(address indexed verifier, address indexed doc);\n\n    event LogInvalidSignatureSubmission(address submitter);\n    event LogNumOfRequiredSignatureChanged(uint oldNum, uint indexed newNum);\n    event DocumentSigned(address indexed document, address indexed verifier);\n    event DeleteDocumentConfirmation(address indexed document, address indexed verifier);\n}\n\ncontract MultiSigDocument is IMultipleSignatory {\n  using ECRecovery for bytes32;\n  uint public constant MAX_SIGNER_COUNT = 10;\n  uint public createdTime; //Timestamp\n  uint public validDays = 365; //days\n  uint public expiration = 2**256-1; // Default to infinite time - Timestamp\n  bool public autoActivation = false;\n  bool public verified = false;\n  uint public allowModificationDeadline = 0; //Timestamp\n  uint public numOfRequiredSignature;\n\n  address public verifier;\n  address public issuer;\n  // Keep track of signers\n  // uint32 public signerCount = 0; // include issuer\n  uint8 public finalizedSigConfirmations = 0;\n\n  uint8 public deleteConfirmations = 0;\n\n  mapping (address => SignerProperty) public signerProperties;\n\n  address[] signers = new address[](MAX_SIGNER_COUNT);\n\n  struct SignerProperty {\n    bool IsSigner;\n    bool IsSigned;\n    bool DeleteConfirmed;\n  }\n\n  modifier validRequirement(uint _signerCount,\n                            uint _numOfRequiredSignature,\n                            uint _validDays,\n                            uint _allowRevocationPeriodInDays)\n  {\n      require(_signerCount >= 0 && _signerCount <= MAX_SIGNER_COUNT);\n      require(_numOfRequiredSignature >= 0  && _numOfRequiredSignature < MAX_SIGNER_COUNT);\n      require(_validDays > 0 && _allowRevocationPeriodInDays < _validDays);\n      _;\n  }\n  modifier signerDoesNotExist(address addr) {\n      require(!signerProperties[addr].IsSigner);\n      _;\n  }\n  // GDPR\n  modifier allowDelete() {\n      require(checkDeleteConfirmations());\n      _;\n  }\n\n  modifier beforeModificationDeadline() {\n      require(now < allowModificationDeadline);\n      _;\n  }\n\n  modifier afterModificationDeadline() {\n      require(now > allowModificationDeadline);\n      _;\n  }\n\n  modifier signerExists(address addr) {\n      require(signerProperties[addr].IsSigner);\n      _;\n  }\n\n  modifier onlyVerifier() {\n      require(verifier == msg.sender);\n      _;\n  }\n\n  modifier isExpired() {\n      require(now > expiration);\n      _;\n  }\n\n  modifier onlyIssuer() {\n      require(issuer == msg.sender);\n      _;\n  }\n  modifier notVerified() {\n      assert(!verified);\n      _;\n  }\n\n  constructor(address[] _signer,\n              address _verifier,\n              uint _numOfRequiredSignature,\n              uint _validDays,\n              uint _allowRevocationPeriodInDays)\n      public\n      validRequirement(\n        _signer.length,\n        _numOfRequiredSignature,\n        _validDays,\n        _allowRevocationPeriodInDays)\n  {\n      for (uint i=0; i<_signer.length; i++) {\n          assert(_signer[i] != address(0) && _signer[i] != msg.sender);\n          signerProperties[_signer[i]].IsSigner = true;\n          signers.push(_signer[i]);\n      }\n      issuer = msg.sender;\n      signerProperties[issuer].IsSigner = true;\n\n      signers.push(issuer);\n      verifier = _verifier;\n\n      createdTime = now;\n      validDays = _validDays == 0 ? 0 : _validDays;\n      expiration = _validDays == 0 ? expiration : (createdTime + (validDays * 1 days));\n      numOfRequiredSignature = _numOfRequiredSignature + 1;\n      allowModificationDeadline = createdTime + (_allowRevocationPeriodInDays * 1 days);\n  }\n\n  function isVerifier(address addr)\n    public\n    view\n    returns (bool)\n  {\n    return (verifier == addr);\n  }\n  function isIssuer(address addr)\n    public\n    view\n    returns (bool)\n  {\n    return (issuer == addr);\n  }\n  function submitDeleteConfirmation(bool confirmedDeleted, bytes memory sig)\n      public\n  {\n      address recoveredAddr = keccak256(abi.encodePacked(address(this), confirmedDeleted))\n        .toEthSignedMessageHash()\n        .recover(sig);\n      assert(signerProperties[recoveredAddr].IsSigner);\n      assert(signerProperties[recoveredAddr].IsSigned);\n\n      signerProperties[recoveredAddr].DeleteConfirmed = confirmedDeleted;\n      emit DeleteDocumentConfirmation(address(this), verifier);\n  }\n\n\n\n  function changeNumberOfRquiredSignatures(uint newRequiredNumber)\n      public\n      onlyVerifier()\n      beforeModificationDeadline()\n      notVerified()\n  {\n      require(newRequiredNumber > 0  && newRequiredNumber < signers.length);\n      emit LogNumOfRequiredSignatureChanged(numOfRequiredSignature, newRequiredNumber);\n      numOfRequiredSignature = newRequiredNumber;\n  }\n\n\n  function signDocument(bytes  memory sig)\n      public\n      afterModificationDeadline()\n  {\n      if(!isValidSignature(sig)) {\n        emit LogInvalidSignatureSubmission(msg.sender);\n        revert('Submitting signature is invalid!');\n      }\n      address recoveredAddr = keccak256(\n        abi.encodePacked(address(this), verifier, getProofHash()))\n        .toEthSignedMessageHash()\n        .recover(sig);\n      signerProperties[recoveredAddr].IsSigned = true;\n      finalizedSigConfirmations++;\n\n      emit DocumentSigned(address(this), verifier);\n  }\n\n  /**\n   * TODO: Overide this function\n   */\n  function getProofHash()\n    public\n    view\n    returns (bytes32)\n  {\n    return keccak256(abi.encodePacked(\"\"));\n  }\n  /**\n   * @dev is the signature of `this + verifier + documentProofHash` from a signer?\n   * @return bool\n   */\n  function isValidSignature(bytes _sig)\n    internal\n    view\n    returns (bool)\n  {\n    return isValidDataHash(\n      keccak256(abi.encodePacked(address(this), verifier, getProofHash())),\n      _sig\n    );\n  }\n  /**\n   * @dev internal function to convert a hash to an eth signed message\n   * and then recover the signature and check it against the bouncer role\n   * @return bool\n   */\n  function isValidDataHash(bytes32 hash, bytes _sig)\n    internal\n    view\n    returns (bool)\n  {\n    address recoveredAddr = hash\n      .toEthSignedMessageHash()\n      .recover(_sig);\n    return signerProperties[recoveredAddr].IsSigner;\n  }\n\n  function isEnoughSignature()\n      public\n      view\n      returns (bool)\n  {\n\n      if(!signerProperties[issuer].IsSigned) return false;\n      if(finalizedSigConfirmations < numOfRequiredSignature) return false;\n      return true;\n  }\n\n  function checkDeleteConfirmations()\n      public\n      view\n      returns (bool)\n  {\n      uint8 _tmpCount = 0;\n      for (uint8 i=0; i < signers.length; i++) {\n          if (signerProperties[signers[i]].DeleteConfirmed == true)\n            _tmpCount++;\n      }\n      if(_tmpCount < numOfRequiredSignature) {\n          return false;\n\n      }\n      return true;\n  }\n\n  function verifyDocument()\n      public\n      notVerified()\n      onlyVerifier()\n      afterModificationDeadline()\n  {\n      /*\n       * TODO: Please extend this function by adding validation of signature\n       */\n      assert(isEnoughSignature());\n      verified = true;\n      emit Verification(msg.sender, address(this));\n  }\n\n  function deleteDocument()\n      public\n      isExpired()\n      allowDelete()\n      signerExists(msg.sender)\n  {\n      /*\n       * TODO: Please extend this function\n       */\n      selfdestruct(issuer);\n  }\n  function isVerified()\n      public\n      view\n      returns (bool)\n  {\n      return verified;\n  }\n\n  function revokeDocument()\n      public\n      isExpired()\n      onlyVerifier()\n  {\n      verified = false;\n      emit Revocation(verifier, address(this));\n  }\n  function () public {\n    //fallback\n  }\n}\n\n// File: contracts/lib/strings.sol\n\n/*\n * @title String & slice utility library for Solidity contracts.\n * @author Nick Johnson <arachnid@notdot.net>\n *\n * @dev Functionality in this library is largely implemented using an\n *      abstraction called a 'slice'. A slice represents a part of a string -\n *      anything from the entire string to a single character, or even no\n *      characters at all (a 0-length slice). Since a slice only has to specify\n *      an offset and a length, copying and manipulating slices is a lot less\n *      expensive than copying and manipulating the strings they reference.\n *\n *      To further reduce gas costs, most functions on slice that need to return\n *      a slice modify the original one instead of allocating a new one; for\n *      instance, `s.split(\".\")` will return the text up to the first '.',\n *      modifying s to only contain the remainder of the string after the '.'.\n *      In situations where you do not want to modify the original slice, you\n *      can make a copy first with `.copy()`, for example:\n *      `s.copy().split(\".\")`. Try and avoid using this idiom in loops; since\n *      Solidity has no memory management, it will result in allocating many\n *      short-lived slices that are later discarded.\n *\n *      Functions that return two slices come in two versions: a non-allocating\n *      version that takes the second slice as an argument, modifying it in\n *      place, and an allocating version that allocates and returns the second\n *      slice; see `nextRune` for example.\n *\n *      Functions that have to copy string data will return strings rather than\n *      slices; these can be cast back to slices for further processing if\n *      required.\n *\n *      For convenience, some functions are provided with non-modifying\n *      variants that create a new slice and return both; for instance,\n *      `s.splitNew('.')` leaves s unmodified, and returns two values\n *      corresponding to the left and right parts of the string.\n */\n\npragma solidity ^0.4.14;\n\nlibrary strings {\n    struct slice {\n        uint _len;\n        uint _ptr;\n    }\n\n    function memcpy(uint dest, uint src, uint len) private pure {\n        // Copy word-length chunks while possible\n        for(; len >= 32; len -= 32) {\n            assembly {\n                mstore(dest, mload(src))\n            }\n            dest += 32;\n            src += 32;\n        }\n\n        // Copy remaining bytes\n        uint mask = 256 ** (32 - len) - 1;\n        assembly {\n            let srcpart := and(mload(src), not(mask))\n            let destpart := and(mload(dest), mask)\n            mstore(dest, or(destpart, srcpart))\n        }\n    }\n\n    /*\n     * @dev Returns a slice containing the entire string.\n     * @param self The string to make a slice from.\n     * @return A newly allocated slice containing the entire string.\n     */\n    function toSlice(string self) internal pure returns (slice) {\n        uint ptr;\n        assembly {\n            ptr := add(self, 0x20)\n        }\n        return slice(bytes(self).length, ptr);\n    }\n\n    /*\n     * @dev Returns the length of a null-terminated bytes32 string.\n     * @param self The value to find the length of.\n     * @return The length of the string, from 0 to 32.\n     */\n    function len(bytes32 self) internal pure returns (uint) {\n        uint ret;\n        if (self == 0)\n            return 0;\n        if (self & 0xffffffffffffffffffffffffffffffff == 0) {\n            ret += 16;\n            self = bytes32(uint(self) / 0x100000000000000000000000000000000);\n        }\n        if (self & 0xffffffffffffffff == 0) {\n            ret += 8;\n            self = bytes32(uint(self) / 0x10000000000000000);\n        }\n        if (self & 0xffffffff == 0) {\n            ret += 4;\n            self = bytes32(uint(self) / 0x100000000);\n        }\n        if (self & 0xffff == 0) {\n            ret += 2;\n            self = bytes32(uint(self) / 0x10000);\n        }\n        if (self & 0xff == 0) {\n            ret += 1;\n        }\n        return 32 - ret;\n    }\n\n    /*\n     * @dev Returns a slice containing the entire bytes32, interpreted as a\n     *      null-terminated utf-8 string.\n     * @param self The bytes32 value to convert to a slice.\n     * @return A new slice containing the value of the input argument up to the\n     *         first null.\n     */\n    function toSliceB32(bytes32 self) internal pure returns (slice ret) {\n        // Allocate space for `self` in memory, copy it there, and point ret at it\n        assembly {\n            let ptr := mload(0x40)\n            mstore(0x40, add(ptr, 0x20))\n            mstore(ptr, self)\n            mstore(add(ret, 0x20), ptr)\n        }\n        ret._len = len(self);\n    }\n\n    /*\n     * @dev Returns a new slice containing the same data as the current slice.\n     * @param self The slice to copy.\n     * @return A new slice containing the same data as `self`.\n     */\n    function copy(slice self) internal pure returns (slice) {\n        return slice(self._len, self._ptr);\n    }\n\n    /*\n     * @dev Copies a slice to a new string.\n     * @param self The slice to copy.\n     * @return A newly allocated string containing the slice's text.\n     */\n    function toString(slice self) internal pure returns (string) {\n        string memory ret = new string(self._len);\n        uint retptr;\n        assembly { retptr := add(ret, 32) }\n\n        memcpy(retptr, self._ptr, self._len);\n        return ret;\n    }\n\n    /*\n     * @dev Returns the length in runes of the slice. Note that this operation\n     *      takes time proportional to the length of the slice; avoid using it\n     *      in loops, and call `slice.empty()` if you only need to know whether\n     *      the slice is empty or not.\n     * @param self The slice to operate on.\n     * @return The length of the slice in runes.\n     */\n    function len(slice self) internal pure returns (uint l) {\n        // Starting at ptr-31 means the LSB will be the byte we care about\n        uint ptr = self._ptr - 31;\n        uint end = ptr + self._len;\n        for (l = 0; ptr < end; l++) {\n            uint8 b;\n            assembly { b := and(mload(ptr), 0xFF) }\n            if (b < 0x80) {\n                ptr += 1;\n            } else if(b < 0xE0) {\n                ptr += 2;\n            } else if(b < 0xF0) {\n                ptr += 3;\n            } else if(b < 0xF8) {\n                ptr += 4;\n            } else if(b < 0xFC) {\n                ptr += 5;\n            } else {\n                ptr += 6;\n            }\n        }\n    }\n\n    /*\n     * @dev Returns true if the slice is empty (has a length of 0).\n     * @param self The slice to operate on.\n     * @return True if the slice is empty, False otherwise.\n     */\n    function empty(slice self) internal pure returns (bool) {\n        return self._len == 0;\n    }\n\n    /*\n     * @dev Returns a positive number if `other` comes lexicographically after\n     *      `self`, a negative number if it comes before, or zero if the\n     *      contents of the two slices are equal. Comparison is done per-rune,\n     *      on unicode codepoints.\n     * @param self The first slice to compare.\n     * @param other The second slice to compare.\n     * @return The result of the comparison.\n     */\n    function compare(slice self, slice other) internal pure returns (int) {\n        uint shortest = self._len;\n        if (other._len < self._len)\n            shortest = other._len;\n\n        uint selfptr = self._ptr;\n        uint otherptr = other._ptr;\n        for (uint idx = 0; idx < shortest; idx += 32) {\n            uint a;\n            uint b;\n            assembly {\n                a := mload(selfptr)\n                b := mload(otherptr)\n            }\n            if (a != b) {\n                // Mask out irrelevant bytes and check again\n                uint256 mask = uint256(-1); // 0xffff...\n                if(shortest < 32) {\n                  mask = ~(2 ** (8 * (32 - shortest + idx)) - 1);\n                }\n                uint256 diff = (a & mask) - (b & mask);\n                if (diff != 0)\n                    return int(diff);\n            }\n            selfptr += 32;\n            otherptr += 32;\n        }\n        return int(self._len) - int(other._len);\n    }\n\n    /*\n     * @dev Returns true if the two slices contain the same text.\n     * @param self The first slice to compare.\n     * @param self The second slice to compare.\n     * @return True if the slices are equal, false otherwise.\n     */\n    function equals(slice self, slice other) internal pure returns (bool) {\n        return compare(self, other) == 0;\n    }\n\n    /*\n     * @dev Extracts the first rune in the slice into `rune`, advancing the\n     *      slice to point to the next rune and returning `self`.\n     * @param self The slice to operate on.\n     * @param rune The slice that will contain the first rune.\n     * @return `rune`.\n     */\n    function nextRune(slice self, slice rune) internal pure returns (slice) {\n        rune._ptr = self._ptr;\n\n        if (self._len == 0) {\n            rune._len = 0;\n            return rune;\n        }\n\n        uint l;\n        uint b;\n        // Load the first byte of the rune into the LSBs of b\n        assembly { b := and(mload(sub(mload(add(self, 32)), 31)), 0xFF) }\n        if (b < 0x80) {\n            l = 1;\n        } else if(b < 0xE0) {\n            l = 2;\n        } else if(b < 0xF0) {\n            l = 3;\n        } else {\n            l = 4;\n        }\n\n        // Check for truncated codepoints\n        if (l > self._len) {\n            rune._len = self._len;\n            self._ptr += self._len;\n            self._len = 0;\n            return rune;\n        }\n\n        self._ptr += l;\n        self._len -= l;\n        rune._len = l;\n        return rune;\n    }\n\n    /*\n     * @dev Returns the first rune in the slice, advancing the slice to point\n     *      to the next rune.\n     * @param self The slice to operate on.\n     * @return A slice containing only the first rune from `self`.\n     */\n    function nextRune(slice self) internal pure returns (slice ret) {\n        nextRune(self, ret);\n    }\n\n    /*\n     * @dev Returns the number of the first codepoint in the slice.\n     * @param self The slice to operate on.\n     * @return The number of the first codepoint in the slice.\n     */\n    function ord(slice self) internal pure returns (uint ret) {\n        if (self._len == 0) {\n            return 0;\n        }\n\n        uint word;\n        uint length;\n        uint divisor = 2 ** 248;\n\n        // Load the rune into the MSBs of b\n        assembly { word:= mload(mload(add(self, 32))) }\n        uint b = word / divisor;\n        if (b < 0x80) {\n            ret = b;\n            length = 1;\n        } else if(b < 0xE0) {\n            ret = b & 0x1F;\n            length = 2;\n        } else if(b < 0xF0) {\n            ret = b & 0x0F;\n            length = 3;\n        } else {\n            ret = b & 0x07;\n            length = 4;\n        }\n\n        // Check for truncated codepoints\n        if (length > self._len) {\n            return 0;\n        }\n\n        for (uint i = 1; i < length; i++) {\n            divisor = divisor / 256;\n            b = (word / divisor) & 0xFF;\n            if (b & 0xC0 != 0x80) {\n                // Invalid UTF-8 sequence\n                return 0;\n            }\n            ret = (ret * 64) | (b & 0x3F);\n        }\n\n        return ret;\n    }\n\n    /*\n     * @dev Returns the keccak-256 hash of the slice.\n     * @param self The slice to hash.\n     * @return The hash of the slice.\n     */\n    function keccak(slice self) internal pure returns (bytes32 ret) {\n        assembly {\n            ret := keccak256(mload(add(self, 32)), mload(self))\n        }\n    }\n\n    /*\n     * @dev Returns true if `self` starts with `needle`.\n     * @param self The slice to operate on.\n     * @param needle The slice to search for.\n     * @return True if the slice starts with the provided text, false otherwise.\n     */\n    function startsWith(slice self, slice needle) internal pure returns (bool) {\n        if (self._len < needle._len) {\n            return false;\n        }\n\n        if (self._ptr == needle._ptr) {\n            return true;\n        }\n\n        bool equal;\n        assembly {\n            let length := mload(needle)\n            let selfptr := mload(add(self, 0x20))\n            let needleptr := mload(add(needle, 0x20))\n            equal := eq(keccak256(selfptr, length), keccak256(needleptr, length))\n        }\n        return equal;\n    }\n\n    /*\n     * @dev If `self` starts with `needle`, `needle` is removed from the\n     *      beginning of `self`. Otherwise, `self` is unmodified.\n     * @param self The slice to operate on.\n     * @param needle The slice to search for.\n     * @return `self`\n     */\n    function beyond(slice self, slice needle) internal pure returns (slice) {\n        if (self._len < needle._len) {\n            return self;\n        }\n\n        bool equal = true;\n        if (self._ptr != needle._ptr) {\n            assembly {\n                let length := mload(needle)\n                let selfptr := mload(add(self, 0x20))\n                let needleptr := mload(add(needle, 0x20))\n                equal := eq(sha3(selfptr, length), sha3(needleptr, length))\n            }\n        }\n\n        if (equal) {\n            self._len -= needle._len;\n            self._ptr += needle._len;\n        }\n\n        return self;\n    }\n\n    /*\n     * @dev Returns true if the slice ends with `needle`.\n     * @param self The slice to operate on.\n     * @param needle The slice to search for.\n     * @return True if the slice starts with the provided text, false otherwise.\n     */\n    function endsWith(slice self, slice needle) internal pure returns (bool) {\n        if (self._len < needle._len) {\n            return false;\n        }\n\n        uint selfptr = self._ptr + self._len - needle._len;\n\n        if (selfptr == needle._ptr) {\n            return true;\n        }\n\n        bool equal;\n        assembly {\n            let length := mload(needle)\n            let needleptr := mload(add(needle, 0x20))\n            equal := eq(keccak256(selfptr, length), keccak256(needleptr, length))\n        }\n\n        return equal;\n    }\n\n    /*\n     * @dev If `self` ends with `needle`, `needle` is removed from the\n     *      end of `self`. Otherwise, `self` is unmodified.\n     * @param self The slice to operate on.\n     * @param needle The slice to search for.\n     * @return `self`\n     */\n    function until(slice self, slice needle) internal pure returns (slice) {\n        if (self._len < needle._len) {\n            return self;\n        }\n\n        uint selfptr = self._ptr + self._len - needle._len;\n        bool equal = true;\n        if (selfptr != needle._ptr) {\n            assembly {\n                let length := mload(needle)\n                let needleptr := mload(add(needle, 0x20))\n                equal := eq(keccak256(selfptr, length), keccak256(needleptr, length))\n            }\n        }\n\n        if (equal) {\n            self._len -= needle._len;\n        }\n\n        return self;\n    }\n\n    event log_bytemask(bytes32 mask);\n\n    // Returns the memory address of the first byte of the first occurrence of\n    // `needle` in `self`, or the first byte after `self` if not found.\n    function findPtr(uint selflen, uint selfptr, uint needlelen, uint needleptr) private pure returns (uint) {\n        uint ptr = selfptr;\n        uint idx;\n\n        if (needlelen <= selflen) {\n            if (needlelen <= 32) {\n                bytes32 mask = bytes32(~(2 ** (8 * (32 - needlelen)) - 1));\n\n                bytes32 needledata;\n                assembly { needledata := and(mload(needleptr), mask) }\n\n                uint end = selfptr + selflen - needlelen;\n                bytes32 ptrdata;\n                assembly { ptrdata := and(mload(ptr), mask) }\n\n                while (ptrdata != needledata) {\n                    if (ptr >= end)\n                        return selfptr + selflen;\n                    ptr++;\n                    assembly { ptrdata := and(mload(ptr), mask) }\n                }\n                return ptr;\n            } else {\n                // For long needles, use hashing\n                bytes32 hash;\n                assembly { hash := sha3(needleptr, needlelen) }\n\n                for (idx = 0; idx <= selflen - needlelen; idx++) {\n                    bytes32 testHash;\n                    assembly { testHash := sha3(ptr, needlelen) }\n                    if (hash == testHash)\n                        return ptr;\n                    ptr += 1;\n                }\n            }\n        }\n        return selfptr + selflen;\n    }\n\n    // Returns the memory address of the first byte after the last occurrence of\n    // `needle` in `self`, or the address of `self` if not found.\n    function rfindPtr(uint selflen, uint selfptr, uint needlelen, uint needleptr) private pure returns (uint) {\n        uint ptr;\n\n        if (needlelen <= selflen) {\n            if (needlelen <= 32) {\n                bytes32 mask = bytes32(~(2 ** (8 * (32 - needlelen)) - 1));\n\n                bytes32 needledata;\n                assembly { needledata := and(mload(needleptr), mask) }\n\n                ptr = selfptr + selflen - needlelen;\n                bytes32 ptrdata;\n                assembly { ptrdata := and(mload(ptr), mask) }\n\n                while (ptrdata != needledata) {\n                    if (ptr <= selfptr)\n                        return selfptr;\n                    ptr--;\n                    assembly { ptrdata := and(mload(ptr), mask) }\n                }\n                return ptr + needlelen;\n            } else {\n                // For long needles, use hashing\n                bytes32 hash;\n                assembly { hash := sha3(needleptr, needlelen) }\n                ptr = selfptr + (selflen - needlelen);\n                while (ptr >= selfptr) {\n                    bytes32 testHash;\n                    assembly { testHash := sha3(ptr, needlelen) }\n                    if (hash == testHash)\n                        return ptr + needlelen;\n                    ptr -= 1;\n                }\n            }\n        }\n        return selfptr;\n    }\n\n    /*\n     * @dev Modifies `self` to contain everything from the first occurrence of\n     *      `needle` to the end of the slice. `self` is set to the empty slice\n     *      if `needle` is not found.\n     * @param self The slice to search and modify.\n     * @param needle The text to search for.\n     * @return `self`.\n     */\n    function find(slice self, slice needle) internal pure returns (slice) {\n        uint ptr = findPtr(self._len, self._ptr, needle._len, needle._ptr);\n        self._len -= ptr - self._ptr;\n        self._ptr = ptr;\n        return self;\n    }\n\n    /*\n     * @dev Modifies `self` to contain the part of the string from the start of\n     *      `self` to the end of the first occurrence of `needle`. If `needle`\n     *      is not found, `self` is set to the empty slice.\n     * @param self The slice to search and modify.\n     * @param needle The text to search for.\n     * @return `self`.\n     */\n    function rfind(slice self, slice needle) internal pure returns (slice) {\n        uint ptr = rfindPtr(self._len, self._ptr, needle._len, needle._ptr);\n        self._len = ptr - self._ptr;\n        return self;\n    }\n\n    /*\n     * @dev Splits the slice, setting `self` to everything after the first\n     *      occurrence of `needle`, and `token` to everything before it. If\n     *      `needle` does not occur in `self`, `self` is set to the empty slice,\n     *      and `token` is set to the entirety of `self`.\n     * @param self The slice to split.\n     * @param needle The text to search for in `self`.\n     * @param token An output parameter to which the first token is written.\n     * @return `token`.\n     */\n    function split(slice self, slice needle, slice token) internal pure returns (slice) {\n        uint ptr = findPtr(self._len, self._ptr, needle._len, needle._ptr);\n        token._ptr = self._ptr;\n        token._len = ptr - self._ptr;\n        if (ptr == self._ptr + self._len) {\n            // Not found\n            self._len = 0;\n        } else {\n            self._len -= token._len + needle._len;\n            self._ptr = ptr + needle._len;\n        }\n        return token;\n    }\n\n    /*\n     * @dev Splits the slice, setting `self` to everything after the first\n     *      occurrence of `needle`, and returning everything before it. If\n     *      `needle` does not occur in `self`, `self` is set to the empty slice,\n     *      and the entirety of `self` is returned.\n     * @param self The slice to split.\n     * @param needle The text to search for in `self`.\n     * @return The part of `self` up to the first occurrence of `delim`.\n     */\n    function split(slice self, slice needle) internal pure returns (slice token) {\n        split(self, needle, token);\n    }\n\n    /*\n     * @dev Splits the slice, setting `self` to everything before the last\n     *      occurrence of `needle`, and `token` to everything after it. If\n     *      `needle` does not occur in `self`, `self` is set to the empty slice,\n     *      and `token` is set to the entirety of `self`.\n     * @param self The slice to split.\n     * @param needle The text to search for in `self`.\n     * @param token An output parameter to which the first token is written.\n     * @return `token`.\n     */\n    function rsplit(slice self, slice needle, slice token) internal pure returns (slice) {\n        uint ptr = rfindPtr(self._len, self._ptr, needle._len, needle._ptr);\n        token._ptr = ptr;\n        token._len = self._len - (ptr - self._ptr);\n        if (ptr == self._ptr) {\n            // Not found\n            self._len = 0;\n        } else {\n            self._len -= token._len + needle._len;\n        }\n        return token;\n    }\n\n    /*\n     * @dev Splits the slice, setting `self` to everything before the last\n     *      occurrence of `needle`, and returning everything after it. If\n     *      `needle` does not occur in `self`, `self` is set to the empty slice,\n     *      and the entirety of `self` is returned.\n     * @param self The slice to split.\n     * @param needle The text to search for in `self`.\n     * @return The part of `self` after the last occurrence of `delim`.\n     */\n    function rsplit(slice self, slice needle) internal pure returns (slice token) {\n        rsplit(self, needle, token);\n    }\n\n    /*\n     * @dev Counts the number of nonoverlapping occurrences of `needle` in `self`.\n     * @param self The slice to search.\n     * @param needle The text to search for in `self`.\n     * @return The number of occurrences of `needle` found in `self`.\n     */\n    function count(slice self, slice needle) internal pure returns (uint cnt) {\n        uint ptr = findPtr(self._len, self._ptr, needle._len, needle._ptr) + needle._len;\n        while (ptr <= self._ptr + self._len) {\n            cnt++;\n            ptr = findPtr(self._len - (ptr - self._ptr), ptr, needle._len, needle._ptr) + needle._len;\n        }\n    }\n\n    /*\n     * @dev Returns True if `self` contains `needle`.\n     * @param self The slice to search.\n     * @param needle The text to search for in `self`.\n     * @return True if `needle` is found in `self`, false otherwise.\n     */\n    function contains(slice self, slice needle) internal pure returns (bool) {\n        return rfindPtr(self._len, self._ptr, needle._len, needle._ptr) != self._ptr;\n    }\n\n    /*\n     * @dev Returns a newly allocated string containing the concatenation of\n     *      `self` and `other`.\n     * @param self The first slice to concatenate.\n     * @param other The second slice to concatenate.\n     * @return The concatenation of the two strings.\n     */\n    function concat(slice self, slice other) internal pure returns (string) {\n        string memory ret = new string(self._len + other._len);\n        uint retptr;\n        assembly { retptr := add(ret, 32) }\n        memcpy(retptr, self._ptr, self._len);\n        memcpy(retptr + self._len, other._ptr, other._len);\n        return ret;\n    }\n\n    /*\n     * @dev Joins an array of slices, using `self` as a delimiter, returning a\n     *      newly allocated string.\n     * @param self The delimiter to use.\n     * @param parts A list of slices to join.\n     * @return A newly allocated string containing all the slices in `parts`,\n     *         joined with `self`.\n     */\n    function join(slice self, slice[] parts) internal pure returns (string) {\n        if (parts.length == 0)\n            return \"\";\n\n        uint length = self._len * (parts.length - 1);\n        for(uint i = 0; i < parts.length; i++)\n            length += parts[i]._len;\n\n        string memory ret = new string(length);\n        uint retptr;\n        assembly { retptr := add(ret, 32) }\n\n        for(i = 0; i < parts.length; i++) {\n            memcpy(retptr, parts[i]._ptr, parts[i]._len);\n            retptr += parts[i]._len;\n            if (i < parts.length - 1) {\n                memcpy(retptr, self._ptr, self._len);\n                retptr += self._len;\n            }\n        }\n\n        return ret;\n    }\n}\n\n// File: contracts/MultiSigDocumentWithStorage.sol\n\ncontract ILockableStorage {\n    function getAllKeys() public view returns(string);\n    function addEntry(string memory key, string value) public;\n    function getEntry(string memory key) public view returns (string);\n    function updateEntry(string memory key, string value) public;\n    function deleteEntry(string memory key) public; // Delete Value only\n    function changeWritePermission(bool _writable, string memory key) public;\n\n    event EntrySet(address indexed document, string entryKey);\n    event EntryDeleted(address indexed document, string entryKey);\n    event EntryUpdateRequest(address indexed document, string entryKey);\n}\n\ncontract MultiSigDocumentWithStorage is MultiSigDocument, ILockableStorage {\n  using strings for *;\n  string constant NULL_CHAR = '\\u0000';\n  //Data\n  mapping (bytes32 => string) public entryStorage;\n  // A long string contains all of the key allKeysInString\n  /* string public allKeysInString; */\n\n  string[] public entryKeys;\n  bool public writable = false;\n\n  constructor(\n    address[] signers,\n    address verifier,\n    uint8 required,\n    uint effectiveDurationInDay,\n    uint offset,\n    bytes buffer\n    )\n  MultiSigDocument(signers, verifier, required, effectiveDurationInDay, 30)\n  public\n  {\n    setData(offset, buffer);\n  }\n\n  modifier entryNotExisted(string memory entryKey) {\n    assert(bytes(entryStorage[entryKey.toSlice().keccak()]).length == 0);\n    _;\n  }\n\n  modifier entryExisted(string memory entryKey) {\n    assert(bytes(entryStorage[entryKey.toSlice().keccak()]).length != 0);\n    _;\n  }\n  modifier isWritable() {\n    assert(writable);\n    _;\n  }\n  event LogString(uint l1, string s1, string  s2);\n  function setData(uint offset, bytes memory buffer)\n    internal\n  {\n    while(offset > 0) {\n\n      uint size;\n      assembly {\n         size := mload(add(buffer, offset))\n      }\n      string memory strKey = new string(size);\n      writeBytesToString(offset, buffer, bytes(strKey));\n      offset -= sizeOfString(strKey);\n      assembly {\n         size := mload(add(buffer, offset))\n      }\n      string memory strVal = new string(size);\n      writeBytesToString(offset, buffer, bytes(strVal));\n      offset -= sizeOfString(strVal);\n\n      string memory strippedVal = strVal.toSlice().split(NULL_CHAR.toSlice()).toString();\n      entryStorage[keccak256(abi.encodePacked(strKey))] = strippedVal;\n\n      entryKeys.push(strKey.toSlice().split(NULL_CHAR.toSlice()).toString());\n    }\n  }\n\n  function sizeOfString(string _in)\n    internal\n    pure\n    returns(uint _size)\n  {\n      _size = bytes(_in).length / 32;\n       if(bytes(_in).length % 32 != 0)\n          _size++;\n\n      _size++;\n      _size *= 32;\n  }\n\n  function writeBytesToString(uint offset, bytes buffer, bytes output)\n    internal\n    pure\n  {\n    uint size = 32;\n    assembly {\n      let word_count\n      size := mload(add(buffer, offset))\n      word_count := add(div(size,32), 1)\n      if gt(mod(size, 32), 0) {\n        word_count := add(word_count,1)\n      }\n      for { let i := 0 } lt(i, word_count) { i := add(i, 1) } {\n        mstore(add(output,mul(i, 0x20)),mload(add(buffer,offset)))\n        offset:= sub(offset, 32)\n      }\n    }\n  }\n\n  function getAllKeys()\n    public\n    view\n    returns (string memory out1)\n  {\n    for(uint32 i = 0 ; i < entryKeys.length; i++)\n    {\n      out1 = out1.toSlice().concat(\n        entryKeys[i].toSlice()).toSlice().concat(\";\".toSlice());\n    }\n  }\n\n  function getAllValues()\n    public\n    view\n    returns (string memory out1)\n  {\n    for(uint32 i = 0 ; i < entryKeys.length; i++)\n    {\n      string memory s = entryStorage[entryKeys[i].toSlice().keccak()];\n      out1 = out1.toSlice().concat(s.toSlice());\n    }\n  }\n\n  function getProofHash()\n    public\n    view\n    returns (bytes32)\n  {\n    return keccak256(abi.encodePacked(getAllValues()));\n  }\n\n  function addEntry(string memory key, string value)\n    public\n    isWritable()\n    entryNotExisted(key)\n    beforeModificationDeadline()\n    onlyIssuer()\n  {\n    entryStorage[key.toSlice().keccak()] = value;\n    entryKeys.push(key);\n    emit EntrySet(address(this), key);\n  }\n\n  function updateEntry(string memory key, string value)\n    public\n    isWritable()\n    beforeModificationDeadline()\n    entryExisted(key)\n    onlyIssuer()\n  {\n    entryStorage[key.toSlice().keccak()] = value;\n    emit EntrySet(address(this), key);\n  }\n\n  function deleteEntry(string memory key)\n    public\n    beforeModificationDeadline()\n    isWritable()\n    onlyIssuer()\n  {\n    delete entryStorage[key.toSlice().keccak()];\n    emit EntryDeleted(address(this), key);\n  }\n\n  function changeWritePermission(bool _writable, string memory key)\n    public\n    onlyVerifier()\n  {\n    writable = _writable;\n    emit EntryUpdateRequest(address(this), key);\n  }\n\n  function getEntry(string memory key)\n    public\n    view\n    returns (string)\n  {\n    return entryStorage[key.toSlice().keccak()];\n  }\n  function getKKHash(string memory s1)\n    public\n    view\n    returns (bytes32)\n  {\n    return keccak256(abi.encodePacked(entryStorage[s1.toSlice().keccak()]));\n  }\n\n  function deleteDocument()\n      public\n      isExpired()\n      allowDelete()\n      signerExists(msg.sender)\n  {\n      selfdestruct(issuer);\n  }\n\n  function deleteData()\n      internal\n  {\n\n  }\n\n  function () public {\n    // fallback\n  }\n\n}\n",
  "sourcePath": "/Users/henry/ws/digicert/contracts/MultiSigDocumentWithStorage_all.sol",
  "compiler": {
    "name": "solc",
    "version": "0.4.24+commit.e67f0147.Emscripten.clang"
  },
  "schemaVersion": "2.0.1",
  "updatedAt": "2018-08-28T09:04:27.779Z"
}